{
  "_format": "hh-sol-artifact-1",
  "contractName": "PhygitalAsset",
  "sourceName": "contracts/PhygitalAsset.sol",
  "abi": [
    {
      "inputs": [
        {
          "internalType": "bytes32",
          "name": "merkleRootOfCollection_",
          "type": "bytes32"
        },
        {
          "internalType": "bytes",
          "name": "collectionJSONURL_",
          "type": "bytes"
        },
        {
          "internalType": "string",
          "name": "name_",
          "type": "string"
        },
        {
          "internalType": "string",
          "name": "symbol_",
          "type": "string"
        },
        {
          "internalType": "bytes",
          "name": "metadataJSONURL_",
          "type": "bytes"
        },
        {
          "internalType": "bytes",
          "name": "metadataBaseURI_",
          "type": "bytes"
        },
        {
          "internalType": "address",
          "name": "collectionOwner_",
          "type": "address"
        }
      ],
      "stateMutability": "nonpayable",
      "type": "constructor"
    },
    {
      "inputs": [],
      "name": "ERC725Y_DataKeysValuesEmptyArray",
      "type": "error"
    },
    {
      "inputs": [],
      "name": "ERC725Y_DataKeysValuesLengthMismatch",
      "type": "error"
    },
    {
      "inputs": [],
      "name": "ERC725Y_MsgValueDisallowed",
      "type": "error"
    },
    {
      "inputs": [
        {
          "internalType": "bytes",
          "name": "storedData",
          "type": "bytes"
        }
      ],
      "name": "InvalidExtensionAddress",
      "type": "error"
    },
    {
      "inputs": [
        {
          "internalType": "bytes",
          "name": "data",
          "type": "bytes"
        }
      ],
      "name": "InvalidFunctionSelector",
      "type": "error"
    },
    {
      "inputs": [],
      "name": "LSP4TokenNameNotEditable",
      "type": "error"
    },
    {
      "inputs": [],
      "name": "LSP4TokenSymbolNotEditable",
      "type": "error"
    },
    {
      "inputs": [],
      "name": "LSP8CannotSendToAddressZero",
      "type": "error"
    },
    {
      "inputs": [],
      "name": "LSP8CannotSendToSelf",
      "type": "error"
    },
    {
      "inputs": [],
      "name": "LSP8CannotUseAddressZeroAsOperator",
      "type": "error"
    },
    {
      "inputs": [],
      "name": "LSP8InvalidTransferBatch",
      "type": "error"
    },
    {
      "inputs": [
        {
          "internalType": "bytes32",
          "name": "tokenId",
          "type": "bytes32"
        }
      ],
      "name": "LSP8NonExistentTokenId",
      "type": "error"
    },
    {
      "inputs": [
        {
          "internalType": "address",
          "name": "operator",
          "type": "address"
        },
        {
          "internalType": "bytes32",
          "name": "tokenId",
          "type": "bytes32"
        }
      ],
      "name": "LSP8NonExistingOperator",
      "type": "error"
    },
    {
      "inputs": [
        {
          "internalType": "bytes32",
          "name": "tokenId",
          "type": "bytes32"
        },
        {
          "internalType": "address",
          "name": "caller",
          "type": "address"
        }
      ],
      "name": "LSP8NotTokenOperator",
      "type": "error"
    },
    {
      "inputs": [
        {
          "internalType": "address",
          "name": "tokenOwner",
          "type": "address"
        },
        {
          "internalType": "bytes32",
          "name": "tokenId",
          "type": "bytes32"
        },
        {
          "internalType": "address",
          "name": "caller",
          "type": "address"
        }
      ],
      "name": "LSP8NotTokenOwner",
      "type": "error"
    },
    {
      "inputs": [
        {
          "internalType": "address",
          "name": "tokenReceiver",
          "type": "address"
        }
      ],
      "name": "LSP8NotifyTokenReceiverContractMissingLSP1Interface",
      "type": "error"
    },
    {
      "inputs": [
        {
          "internalType": "address",
          "name": "tokenReceiver",
          "type": "address"
        }
      ],
      "name": "LSP8NotifyTokenReceiverIsEOA",
      "type": "error"
    },
    {
      "inputs": [
        {
          "internalType": "address",
          "name": "operator",
          "type": "address"
        },
        {
          "internalType": "bytes32",
          "name": "tokenId",
          "type": "bytes32"
        }
      ],
      "name": "LSP8OperatorAlreadyAuthorized",
      "type": "error"
    },
    {
      "inputs": [],
      "name": "LSP8TokenContractCannotHoldValue",
      "type": "error"
    },
    {
      "inputs": [
        {
          "internalType": "bytes32",
          "name": "tokenId",
          "type": "bytes32"
        }
      ],
      "name": "LSP8TokenIdAlreadyMinted",
      "type": "error"
    },
    {
      "inputs": [],
      "name": "LSP8TokenIdTypeNotEditable",
      "type": "error"
    },
    {
      "inputs": [],
      "name": "LSP8TokenOwnerCannotBeOperator",
      "type": "error"
    },
    {
      "inputs": [
        {
          "internalType": "bytes4",
          "name": "functionSelector",
          "type": "bytes4"
        }
      ],
      "name": "NoExtensionFoundForFunctionSelector",
      "type": "error"
    },
    {
      "inputs": [
        {
          "internalType": "address",
          "name": "callerAddress",
          "type": "address"
        }
      ],
      "name": "OwnableCallerNotTheOwner",
      "type": "error"
    },
    {
      "inputs": [],
      "name": "OwnableCannotSetZeroAddressAsOwner",
      "type": "error"
    },
    {
      "inputs": [
        {
          "internalType": "address",
          "name": "owner",
          "type": "address"
        },
        {
          "internalType": "bytes32",
          "name": "phygitalId",
          "type": "bytes32"
        }
      ],
      "name": "PhygitalAssetHasAlreadyAVerifiedOwnership",
      "type": "error"
    },
    {
      "inputs": [
        {
          "internalType": "address",
          "name": "owner",
          "type": "address"
        },
        {
          "internalType": "bytes32",
          "name": "phygitalId",
          "type": "bytes32"
        }
      ],
      "name": "PhygitalAssetHasAnUnverifiedOwnership",
      "type": "error"
    },
    {
      "inputs": [
        {
          "internalType": "bytes32",
          "name": "phygitalId",
          "type": "bytes32"
        }
      ],
      "name": "PhygitalAssetIsNotPartOfCollection",
      "type": "error"
    },
    {
      "inputs": [
        {
          "internalType": "address",
          "name": "owner",
          "type": "address"
        },
        {
          "internalType": "bytes32",
          "name": "phygitalId",
          "type": "bytes32"
        }
      ],
      "name": "PhygitalAssetOwnershipVerificationFailed",
      "type": "error"
    },
    {
      "anonymous": false,
      "inputs": [
        {
          "indexed": true,
          "internalType": "address",
          "name": "operator",
          "type": "address"
        },
        {
          "indexed": true,
          "internalType": "address",
          "name": "tokenOwner",
          "type": "address"
        },
        {
          "indexed": true,
          "internalType": "bytes32",
          "name": "tokenId",
          "type": "bytes32"
        },
        {
          "indexed": false,
          "internalType": "bytes",
          "name": "operatorNotificationData",
          "type": "bytes"
        }
      ],
      "name": "AuthorizedOperator",
      "type": "event"
    },
    {
      "anonymous": false,
      "inputs": [
        {
          "indexed": true,
          "internalType": "bytes32",
          "name": "dataKey",
          "type": "bytes32"
        },
        {
          "indexed": false,
          "internalType": "bytes",
          "name": "dataValue",
          "type": "bytes"
        }
      ],
      "name": "DataChanged",
      "type": "event"
    },
    {
      "anonymous": false,
      "inputs": [
        {
          "indexed": true,
          "internalType": "address",
          "name": "previousOwner",
          "type": "address"
        },
        {
          "indexed": true,
          "internalType": "address",
          "name": "newOwner",
          "type": "address"
        }
      ],
      "name": "OwnershipTransferred",
      "type": "event"
    },
    {
      "anonymous": false,
      "inputs": [
        {
          "indexed": true,
          "internalType": "address",
          "name": "operator",
          "type": "address"
        },
        {
          "indexed": true,
          "internalType": "address",
          "name": "tokenOwner",
          "type": "address"
        },
        {
          "indexed": true,
          "internalType": "bytes32",
          "name": "tokenId",
          "type": "bytes32"
        },
        {
          "indexed": false,
          "internalType": "bool",
          "name": "notified",
          "type": "bool"
        },
        {
          "indexed": false,
          "internalType": "bytes",
          "name": "operatorNotificationData",
          "type": "bytes"
        }
      ],
      "name": "RevokedOperator",
      "type": "event"
    },
    {
      "anonymous": false,
      "inputs": [
        {
          "indexed": false,
          "internalType": "address",
          "name": "operator",
          "type": "address"
        },
        {
          "indexed": true,
          "internalType": "address",
          "name": "from",
          "type": "address"
        },
        {
          "indexed": true,
          "internalType": "address",
          "name": "to",
          "type": "address"
        },
        {
          "indexed": true,
          "internalType": "bytes32",
          "name": "tokenId",
          "type": "bytes32"
        },
        {
          "indexed": false,
          "internalType": "bool",
          "name": "force",
          "type": "bool"
        },
        {
          "indexed": false,
          "internalType": "bytes",
          "name": "data",
          "type": "bytes"
        }
      ],
      "name": "Transfer",
      "type": "event"
    },
    {
      "stateMutability": "payable",
      "type": "fallback"
    },
    {
      "inputs": [
        {
          "internalType": "bytes32[]",
          "name": "merkleProofOfCollection",
          "type": "bytes32[]"
        },
        {
          "internalType": "bytes32",
          "name": "phygitalId",
          "type": "bytes32"
        }
      ],
      "name": "_isPhygitalPartOfCollection",
      "outputs": [
        {
          "internalType": "bool",
          "name": "",
          "type": "bool"
        }
      ],
      "stateMutability": "view",
      "type": "function"
    },
    {
      "inputs": [
        {
          "internalType": "address",
          "name": "phygitalOwner",
          "type": "address"
        },
        {
          "internalType": "bytes32",
          "name": "phygitalId",
          "type": "bytes32"
        },
        {
          "internalType": "bytes",
          "name": "phygitalSignature",
          "type": "bytes"
        }
      ],
      "name": "_verifyPhygitalOwnership",
      "outputs": [
        {
          "internalType": "bool",
          "name": "",
          "type": "bool"
        }
      ],
      "stateMutability": "view",
      "type": "function"
    },
    {
      "inputs": [
        {
          "internalType": "address",
          "name": "operator",
          "type": "address"
        },
        {
          "internalType": "bytes32",
          "name": "tokenId",
          "type": "bytes32"
        },
        {
          "internalType": "bytes",
          "name": "operatorNotificationData",
          "type": "bytes"
        }
      ],
      "name": "authorizeOperator",
      "outputs": [],
      "stateMutability": "nonpayable",
      "type": "function"
    },
    {
      "inputs": [
        {
          "internalType": "address",
          "name": "tokenOwner",
          "type": "address"
        }
      ],
      "name": "balanceOf",
      "outputs": [
        {
          "internalType": "uint256",
          "name": "",
          "type": "uint256"
        }
      ],
      "stateMutability": "view",
      "type": "function"
    },
    {
      "inputs": [
        {
          "internalType": "bytes32",
          "name": "dataKey",
          "type": "bytes32"
        }
      ],
      "name": "getData",
      "outputs": [
        {
          "internalType": "bytes",
          "name": "dataValue",
          "type": "bytes"
        }
      ],
      "stateMutability": "view",
      "type": "function"
    },
    {
      "inputs": [
        {
          "internalType": "bytes32[]",
          "name": "dataKeys",
          "type": "bytes32[]"
        }
      ],
      "name": "getDataBatch",
      "outputs": [
        {
          "internalType": "bytes[]",
          "name": "dataValues",
          "type": "bytes[]"
        }
      ],
      "stateMutability": "view",
      "type": "function"
    },
    {
      "inputs": [
        {
          "internalType": "bytes32",
          "name": "tokenId",
          "type": "bytes32"
        }
      ],
      "name": "getOperatorsOf",
      "outputs": [
        {
          "internalType": "address[]",
          "name": "",
          "type": "address[]"
        }
      ],
      "stateMutability": "view",
      "type": "function"
    },
    {
      "inputs": [
        {
          "internalType": "address",
          "name": "operator",
          "type": "address"
        },
        {
          "internalType": "bytes32",
          "name": "tokenId",
          "type": "bytes32"
        }
      ],
      "name": "isOperatorFor",
      "outputs": [
        {
          "internalType": "bool",
          "name": "",
          "type": "bool"
        }
      ],
      "stateMutability": "view",
      "type": "function"
    },
    {
      "inputs": [],
      "name": "merkleRootOfCollection",
      "outputs": [
        {
          "internalType": "bytes32",
          "name": "",
          "type": "bytes32"
        }
      ],
      "stateMutability": "view",
      "type": "function"
    },
    {
      "inputs": [
        {
          "internalType": "address",
          "name": "phygitalAddress",
          "type": "address"
        },
        {
          "internalType": "bytes",
          "name": "phygitalSignature",
          "type": "bytes"
        },
        {
          "internalType": "bytes32[]",
          "name": "merkleProofOfCollection",
          "type": "bytes32[]"
        },
        {
          "internalType": "bool",
          "name": "force",
          "type": "bool"
        }
      ],
      "name": "mint",
      "outputs": [],
      "stateMutability": "nonpayable",
      "type": "function"
    },
    {
      "inputs": [
        {
          "internalType": "bytes32",
          "name": "",
          "type": "bytes32"
        }
      ],
      "name": "nonce",
      "outputs": [
        {
          "internalType": "uint256",
          "name": "",
          "type": "uint256"
        }
      ],
      "stateMutability": "view",
      "type": "function"
    },
    {
      "inputs": [],
      "name": "owner",
      "outputs": [
        {
          "internalType": "address",
          "name": "",
          "type": "address"
        }
      ],
      "stateMutability": "view",
      "type": "function"
    },
    {
      "inputs": [],
      "name": "renounceOwnership",
      "outputs": [],
      "stateMutability": "nonpayable",
      "type": "function"
    },
    {
      "inputs": [
        {
          "internalType": "address",
          "name": "operator",
          "type": "address"
        },
        {
          "internalType": "bytes32",
          "name": "tokenId",
          "type": "bytes32"
        },
        {
          "internalType": "bool",
          "name": "notify",
          "type": "bool"
        },
        {
          "internalType": "bytes",
          "name": "operatorNotificationData",
          "type": "bytes"
        }
      ],
      "name": "revokeOperator",
      "outputs": [],
      "stateMutability": "nonpayable",
      "type": "function"
    },
    {
      "inputs": [
        {
          "internalType": "bytes32",
          "name": "dataKey",
          "type": "bytes32"
        },
        {
          "internalType": "bytes",
          "name": "dataValue",
          "type": "bytes"
        }
      ],
      "name": "setData",
      "outputs": [],
      "stateMutability": "payable",
      "type": "function"
    },
    {
      "inputs": [
        {
          "internalType": "bytes32[]",
          "name": "dataKeys",
          "type": "bytes32[]"
        },
        {
          "internalType": "bytes[]",
          "name": "dataValues",
          "type": "bytes[]"
        }
      ],
      "name": "setDataBatch",
      "outputs": [],
      "stateMutability": "payable",
      "type": "function"
    },
    {
      "inputs": [
        {
          "internalType": "bytes4",
          "name": "interfaceId",
          "type": "bytes4"
        }
      ],
      "name": "supportsInterface",
      "outputs": [
        {
          "internalType": "bool",
          "name": "",
          "type": "bool"
        }
      ],
      "stateMutability": "view",
      "type": "function"
    },
    {
      "inputs": [
        {
          "internalType": "uint256",
          "name": "index",
          "type": "uint256"
        }
      ],
      "name": "tokenAt",
      "outputs": [
        {
          "internalType": "bytes32",
          "name": "",
          "type": "bytes32"
        }
      ],
      "stateMutability": "view",
      "type": "function"
    },
    {
      "inputs": [
        {
          "internalType": "address",
          "name": "tokenOwner",
          "type": "address"
        }
      ],
      "name": "tokenIdsOf",
      "outputs": [
        {
          "internalType": "bytes32[]",
          "name": "",
          "type": "bytes32[]"
        }
      ],
      "stateMutability": "view",
      "type": "function"
    },
    {
      "inputs": [
        {
          "internalType": "bytes32",
          "name": "tokenId",
          "type": "bytes32"
        }
      ],
      "name": "tokenOwnerOf",
      "outputs": [
        {
          "internalType": "address",
          "name": "",
          "type": "address"
        }
      ],
      "stateMutability": "view",
      "type": "function"
    },
    {
      "inputs": [],
      "name": "totalSupply",
      "outputs": [
        {
          "internalType": "uint256",
          "name": "",
          "type": "uint256"
        }
      ],
      "stateMutability": "view",
      "type": "function"
    },
    {
      "inputs": [
        {
          "internalType": "address",
          "name": "from",
          "type": "address"
        },
        {
          "internalType": "address",
          "name": "to",
          "type": "address"
        },
        {
          "internalType": "bytes32",
          "name": "tokenId",
          "type": "bytes32"
        },
        {
          "internalType": "bool",
          "name": "force",
          "type": "bool"
        },
        {
          "internalType": "bytes",
          "name": "data",
          "type": "bytes"
        }
      ],
      "name": "transfer",
      "outputs": [],
      "stateMutability": "nonpayable",
      "type": "function"
    },
    {
      "inputs": [
        {
          "internalType": "address[]",
          "name": "from",
          "type": "address[]"
        },
        {
          "internalType": "address[]",
          "name": "to",
          "type": "address[]"
        },
        {
          "internalType": "bytes32[]",
          "name": "tokenId",
          "type": "bytes32[]"
        },
        {
          "internalType": "bool[]",
          "name": "force",
          "type": "bool[]"
        },
        {
          "internalType": "bytes[]",
          "name": "data",
          "type": "bytes[]"
        }
      ],
      "name": "transferBatch",
      "outputs": [],
      "stateMutability": "nonpayable",
      "type": "function"
    },
    {
      "inputs": [
        {
          "internalType": "address",
          "name": "newOwner",
          "type": "address"
        }
      ],
      "name": "transferOwnership",
      "outputs": [],
      "stateMutability": "nonpayable",
      "type": "function"
    },
    {
      "inputs": [
        {
          "internalType": "bytes32",
          "name": "",
          "type": "bytes32"
        }
      ],
      "name": "verifiedOwnership",
      "outputs": [
        {
          "internalType": "bool",
          "name": "",
          "type": "bool"
        }
      ],
      "stateMutability": "view",
      "type": "function"
    },
    {
      "inputs": [
        {
          "internalType": "address",
          "name": "phygitalAddress",
          "type": "address"
        },
        {
          "internalType": "bytes",
          "name": "phygitalSignature",
          "type": "bytes"
        }
      ],
      "name": "verifyOwnershipAfterTransfer",
      "outputs": [],
      "stateMutability": "nonpayable",
      "type": "function"
    },
    {
      "stateMutability": "payable",
      "type": "receive"
    }
  ],
  "bytecode": "0x60a06040523480156200001157600080fd5b50604051620041f8380380620041f8833981016040819052620000349162000746565b848433600283838380806200005c576040516306b620db60e21b815260040160405180910390fd5b620000678162000357565b506040805180820190915260048152632936598960e21b6020820152620000b0907feafec4d89fa9619884b60000a4d96624a38f7ac2d8d9a604ecf07c12c77e480c90620003c5565b620000dc7fdeba1e292f8ba88238e10ab3c7f88bd4be4fac56cad5194b6ecceaf653468af184620003c5565b620001087f2f0a68ab07768e01943a599e73362a0e17a63a72e94dd2e384d2c1d4db93275683620003c5565b505060408051602081018490526200015492507f715f248956de7ce65e94d9d836bfead479f7e70d69b718d47bfe7b00e05b4fe4910160408051601f198184030181529190526200040d565b505050608088905250620001897f4eff76d745d12fd5e5f7b38e8f396dd0d099124739e69a289ca1faa7ebc5376887620004f2565b620001b57f9afb95cacc9f95858ec44aa8c3b685511002e30ae54415823f406128b85b238e84620004f2565b620002077fe0261fa95db2eb3b5439bd033cda66d56b96f92f243a8228fd87550ed7bdfdb360001b6002604051602001620001f1919062000844565b60408051601f19818403018152919052620004f2565b620002337f1a7628600c3bac7101f53697f48df381ddc36b9015e7d7c9c5633d1252aa284383620004f2565b604051600160801b602082015262000270907f114bd03b3a46d48759680d81ebb2b414fda7d030a7105a851867accf1c2352e790603001620001f1565b604080516f0452f40ece91b521d65a03607aecad0560821b602082015260006030820152620002d49101604051602081830303815290604052620002b4906200086d565b6040516001600160601b0319606085901b166020820152603401620001f1565b6040805169036f42f57aecc15a72ed60b51b60208201526001600160601b0319606084901b16602c8201526200033f91016040516020818303038152906040526200031f906200086d565b6040516324871b3d60e01b602082015260006024820152603401620001f1565b6200034a8162000357565b5050505050505062000a47565b6000546001600160a01b03828116911614620003c257600080546040516001600160a01b03808516939216917f8be0079c531659141344cd1fd0a4f28419497f9722a3daafe3b4186f6b6457e091a3600080546001600160a01b0319166001600160a01b0383161790555b50565b6000828152600160205260409020620003df82826200091e565b5081600080516020620041d883398151915282604051620004019190620009ea565b60405180910390a25050565b7f2145e1d6d074577dc71ef54c3807742b41b053a9352ae6b491331509acb9750f82016200044e576040516385c169bd60e01b815260040160405180910390fd5b7fd0f59754f88971fe6bc5a6618cc9d5f1e859c58d16b22d1c7b2d3e2b246cd8aa82016200048f57604051630eceab6760e31b815260040160405180910390fd5b6000828152600160205260409020620004a982826200091e565b5081600080516020620041d883398151915261010083511115620004dd57620004d78360006101006200053f565b620004df565b825b604051620004019190620009ea565b5050565b7f8ea0db76a9218319a16b2627c940152b860818f29648e72b840184ff1fa4b01c820162000533576040516329de089160e11b815260040160405180910390fd5b620004ee82826200040d565b6060816200054f81601f62000a1f565b1015620005945760405162461bcd60e51b815260206004820152600e60248201526d736c6963655f6f766572666c6f7760901b60448201526064015b60405180910390fd5b620005a0828462000a1f565b84511015620005e65760405162461bcd60e51b8152602060048201526011602482015270736c6963655f6f75744f66426f756e647360781b60448201526064016200058b565b60608215801562000607576040519150600082526020820160405262000653565b6040519150601f8416801560200281840101858101878315602002848b0101015b818310156200064257805183526020928301920162000628565b5050858452601f01601f1916604052505b50949350505050565b634e487b7160e01b600052604160045260246000fd5b60005b838110156200068f57818101518382015260200162000675565b50506000910152565b600082601f830112620006aa57600080fd5b81516001600160401b0380821115620006c757620006c76200065c565b604051601f8301601f19908116603f01168101908282118183101715620006f257620006f26200065c565b816040528381528660208588010111156200070c57600080fd5b6200071f84602083016020890162000672565b9695505050505050565b80516001600160a01b03811681146200074157600080fd5b919050565b600080600080600080600060e0888a0312156200076257600080fd5b875160208901519097506001600160401b03808211156200078257600080fd5b620007908b838c0162000698565b975060408a0151915080821115620007a757600080fd5b620007b58b838c0162000698565b965060608a0151915080821115620007cc57600080fd5b620007da8b838c0162000698565b955060808a0151915080821115620007f157600080fd5b620007ff8b838c0162000698565b945060a08a01519150808211156200081657600080fd5b50620008258a828b0162000698565b9250506200083660c0890162000729565b905092959891949750929550565b60208101600383106200086757634e487b7160e01b600052602160045260246000fd5b91905290565b805160208083015191908110156200088f576000198160200360031b1b821691505b50919050565b600181811c90821680620008aa57607f821691505b6020821081036200088f57634e487b7160e01b600052602260045260246000fd5b601f8211156200091957600081815260208120601f850160051c81016020861015620008f45750805b601f850160051c820191505b81811015620009155782815560010162000900565b5050505b505050565b81516001600160401b038111156200093a576200093a6200065c565b62000952816200094b845462000895565b84620008cb565b602080601f8311600181146200098a5760008415620009715750858301515b600019600386901b1c1916600185901b17855562000915565b600085815260208120601f198616915b82811015620009bb578886015182559484019460019091019084016200099a565b5085821015620009da5787850151600019600388901b60f8161c191681555b5050505050600190811b01905550565b602081526000825180602084015262000a0b81604085016020870162000672565b601f01601f19169190910160400192915050565b8082018082111562000a4157634e487b7160e01b600052601160045260246000fd5b92915050565b60805161376e62000a6a600039600081816102d3015261106f015261376e6000f3fe6080604052600436106101a55760003560e01c80637e87632c116100e1578063979024211161008a578063db8c966311610064578063db8c9663146105bc578063dedff9c6146105dc578063f2fde38b14610609578063fa8dc2341461062957610232565b8063979024211461055c578063a20dd6451461056f578063a3b261f21461058f57610232565b80638da5cb5b116100bb5780638da5cb5b146104e4578063905da30f1461050257806392a91a3a1461052f57610232565b80637e87632c146104915780637f23690c146104b157806386a10ddd146104c457610232565b806341b3d5131161014e578063511b695211610128578063511b69521461040f57806354f6127f1461042f57806370a082311461045c578063715018a61461047c57610232565b806341b3d5131461039257806349a6078d146103b25780634d55c5a4146103df57610232565b8063217b22701161017f578063217b2270146103185780632a3654a414610350578063316466131461037057610232565b806301ffc9a71461028c57806307c79bb2146102c157806318160ddd1461030357610232565b366102325734600003610200576040517fe5099ee30000000000000000000000000000000000000000000000000000000081526004016101f79060208082526004908201526000604082015260600190565b60405180910390fd5b6040517f61f4944200000000000000000000000000000000000000000000000000000000815260040160405180910390fd5b600036606060048210156102765782826040517fe5099ee30000000000000000000000000000000000000000000000000000000081526004016101f7929190612979565b6102808383610649565b80519350602001915050f35b34801561029857600080fd5b506102ac6102a73660046129a8565b610788565b60405190151581526020015b60405180910390f35b3480156102cd57600080fd5b506102f57f000000000000000000000000000000000000000000000000000000000000000081565b6040519081526020016102b8565b34801561030f57600080fd5b506002546102f5565b34801561032457600080fd5b506103386103333660046129ea565b6107de565b6040516001600160a01b0390911681526020016102b8565b34801561035c57600080fd5b506102ac61036b366004612a1f565b610830565b34801561037c57600080fd5b5061039061038b366004612bc1565b61084c565b005b34801561039e57600080fd5b506103906103ad366004612c46565b6109b8565b3480156103be57600080fd5b506103d26103cd3660046129ea565b610b48565b6040516102b89190612c94565b3480156103eb57600080fd5b506102ac6103fa3660046129ea565b60096020526000908152604090205460ff1681565b34801561041b57600080fd5b5061039061042a366004612ce1565b610b6a565b34801561043b57600080fd5b5061044f61044a3660046129ea565b610bc7565b6040516102b89190612daa565b34801561046857600080fd5b506102f5610477366004612dbd565b610bd2565b34801561048857600080fd5b50610390610bf3565b34801561049d57600080fd5b506103906104ac366004612f1c565b610c07565b6103906104bf366004612fe1565b610d0f565b3480156104d057600080fd5b506103906104df366004613012565b610d5d565b3480156104f057600080fd5b506000546001600160a01b0316610338565b34801561050e57600080fd5b506102f561051d3660046129ea565b600a6020526000908152604090205481565b34801561053b57600080fd5b506102f561054a3660046129ea565b60009081526007602052604090205490565b61039061056a366004613069565b610f5d565b34801561057b57600080fd5b506102ac61058a3660046130c3565b611068565b34801561059b57600080fd5b506105af6105aa366004612dbd565b6110c7565b6040516102b89190613108565b3480156105c857600080fd5b506103906105d7366004613140565b6110eb565b3480156105e857600080fd5b506105fc6105f73660046131a8565b61120a565b6040516102b891906131dd565b34801561061557600080fd5b50610390610624366004612dbd565b6112b5565b34801561063557600080fd5b506102ac610644366004613012565b611309565b6060600061067a6000357fffffffff000000000000000000000000000000000000000000000000000000001661140b565b5090506001600160a01b0381166106e3576040517fbb370b2b0000000000000000000000000000000000000000000000000000000081527fffffffff000000000000000000000000000000000000000000000000000000006000351660048201526024016101f7565b600080826001600160a01b03163487873334604051602001610708949392919061325d565b60408051601f1981840301815290829052610722916132a0565b60006040518083038185875af1925050503d806000811461075f576040519150601f19603f3d011682016040523d82523d6000602084013e610764565b606091505b50915091508115610779579250610782915050565b80518060208301fd5b92915050565b60007fffffffff0000000000000000000000000000000000000000000000000000000082167ff60211900000000000000000000000000000000000000000000000000000000014806107825750610782826114cd565b6000818152600360205260408120546001600160a01b031680610782576040517fae8f9a36000000000000000000000000000000000000000000000000000000008152600481018490526024016101f7565b600061083b82611532565b6108458383611583565b9392505050565b604080516001600160a01b038616602082015233916000910160408051601f1981840301815291815281516020928301206000818152600a909352912054909150156108c7576040517f34c7b511000000000000000000000000000000000000000000000000000000008152600481018290526024016101f7565b6108d2828287611309565b61091a576040517fe73552b60000000000000000000000000000000000000000000000000000000081526001600160a01b0383166004820152602481018290526044016101f7565b6109248482611068565b61095d576040517f461e0d36000000000000000000000000000000000000000000000000000000008152600481018290526024016101f7565b600081815260096020908152604080832080547fffffffffffffffffffffffffffffffffffffffffffffffffffffffffffffff00166001179055805191820190529081526109b0908390839086906115c0565b505050505050565b604080516001600160a01b0384166020820152600091016040516020818303038152906040528051906020012090506109f0816107de565b6001600160a01b0316336001600160a01b031614610a5c57610a11816107de565b6040517f5b271ea20000000000000000000000000000000000000000000000000000000081526001600160a01b039091166004820152602481018290523360448201526064016101f7565b600081815260096020526040902054339060ff1615610ab9576040517f56d5acaf0000000000000000000000000000000000000000000000000000000081526001600160a01b0382166004820152602481018390526044016101f7565b610ac4818385611309565b610b0c576040517fe73552b60000000000000000000000000000000000000000000000000000000081526001600160a01b0382166004820152602481018390526044016101f7565b50600090815260096020526040902080547fffffffffffffffffffffffffffffffffffffffffffffffffffffffffffffff001660011790555050565b6060610b5382611532565b600082815260056020526040902061078290611758565b610b743384611583565b610bb3576040517f1294d2a9000000000000000000000000000000000000000000000000000000008152600481018490523360248201526044016101f7565b610bc08585858585611765565b5050505050565b6060610782826119c5565b6001600160a01b038116600090815260046020526040812061078290611a67565b610bfb611a71565b610c056000611ac6565b565b8451845181141580610c1a575083518114155b80610c26575082518114155b80610c32575081518114155b15610c69576040517f93a8311900000000000000000000000000000000000000000000000000000000815260040160405180910390fd5b60005b81811015610d0657610cfe878281518110610c8957610c896132bc565b6020026020010151878381518110610ca357610ca36132bc565b6020026020010151878481518110610cbd57610cbd6132bc565b6020026020010151878581518110610cd757610cd76132bc565b6020026020010151878681518110610cf157610cf16132bc565b6020026020010151610b6a565b600101610c6c565b50505050505050565b610d17611a71565b3415610d4f576040517ff36ba73700000000000000000000000000000000000000000000000000000000815260040160405180910390fd5b610d598282611b4c565b5050565b6000610d68836107de565b90506001600160a01b0381163314610dc4576040517f5b271ea20000000000000000000000000000000000000000000000000000000081526001600160a01b0382166004820152602481018490523360448201526064016101f7565b6001600160a01b038416610e04576040517f9577b8b300000000000000000000000000000000000000000000000000000000815260040160405180910390fd5b836001600160a01b0316816001600160a01b031603610e4f576040517f89fdad6200000000000000000000000000000000000000000000000000000000815260040160405180910390fd5b6000838152600560205260408120610e679086611baf565b905080610eb2576040517fa7626b680000000000000000000000000000000000000000000000000000000081526001600160a01b0386166004820152602481018590526044016101f7565b83826001600160a01b0316866001600160a01b03167e52e433f2d4225671bc164dd1cdc9a76044356091f27ad234798bd0cbf0834986604051610ef59190612daa565b60405180910390a460003385600186604051602001610f1794939291906132eb565b60408051601f1981840301815291905290506109b06001600160a01b0387167f8a1c15a8799f71b547e08e2bcb2e85257e81b0a07eee2ce6712549eef1f0097083611bc4565b610f65611a71565b3415610f9d576040517ff36ba73700000000000000000000000000000000000000000000000000000000815260040160405180910390fd5b8051825114610fd8576040517f3bcc897900000000000000000000000000000000000000000000000000000000815260040160405180910390fd5b8151600003611013576040517f97da5f9500000000000000000000000000000000000000000000000000000000815260040160405180910390fd5b60005b82518110156110635761105b838281518110611034576110346132bc565b602002602001015183838151811061104e5761104e6132bc565b6020026020010151611b4c565b600101611016565b505050565b60006108457f0000000000000000000000000000000000000000000000000000000000000000836040516020016110a191815260200190565b6040516020818303038152906040528051906020012085611c909092919063ffffffff16565b6001600160a01b038116600090815260046020526040902060609061078290611758565b60006110f6846107de565b90506001600160a01b0381163314611152576040517f5b271ea20000000000000000000000000000000000000000000000000000000081526001600160a01b0382166004820152602481018590523360448201526064016101f7565b6001600160a01b038516611192576040517f9577b8b300000000000000000000000000000000000000000000000000000000815260040160405180910390fd5b846001600160a01b0316816001600160a01b0316036111dd576040517f89fdad6200000000000000000000000000000000000000000000000000000000815260040160405180910390fd5b6111ea8582868686611ca6565b8215610bc05760003385600085604051602001610f1794939291906132eb565b6060815167ffffffffffffffff81111561122657611226612a49565b60405190808252806020026020018201604052801561125957816020015b60608152602001906001900390816112445790505b50905060005b82518110156112af5761128a83828151811061127d5761127d6132bc565b60200260200101516119c5565b82828151811061129c5761129c6132bc565b602090810291909101015260010161125f565b50919050565b6112bd611a71565b6001600160a01b0381166112fd576040517f1ad8836c00000000000000000000000000000000000000000000000000000000815260040160405180910390fd5b61130681611ac6565b50565b6000828152600a60209081526040808320548151606088901b7fffffffffffffffffffffffffffffffffffffffff000000000000000000000000168185015260348082019290925282518082039092018252605401909152805191012081806113728386611d5f565b509150915080600381111561138957611389613325565b156113d2576040517fe73552b60000000000000000000000000000000000000000000000000000000081526001600160a01b0388166004820152602481018790526044016101f7565b604080516001600160a01b0384166020820152879101604051602081830303815290604052805190602001201493505050509392505050565b6000808061145b7fcee78b4094da86011096000000000000000000000000000000000000000000007fffffffff000000000000000000000000000000000000000000000000000000008616611dac565b90506000611468826119c5565b9050805160141415801561147c5750805115155b156114b557806040517f42bfe79f0000000000000000000000000000000000000000000000000000000081526004016101f79190612daa565b6114be81613354565b60601c95600195509350505050565b60007fffffffff0000000000000000000000000000000000000000000000000000000082167f30dc5278000000000000000000000000000000000000000000000000000000001480611523575061152382611e30565b80610782575061078282611e86565b6000818152600360205260409020546001600160a01b0316611306576040517fae8f9a36000000000000000000000000000000000000000000000000000000008152600481018290526024016101f7565b600061158e826107de565b6001600160a01b0316836001600160a01b03161480610845575060008281526005602052604090206108459084611ed6565b6001600160a01b038416611600576040517f24ecef4d00000000000000000000000000000000000000000000000000000000815260040160405180910390fd5b61160d6000858584611ef8565b6000838152600360205260409020546001600160a01b03161561165f576040517f34c7b511000000000000000000000000000000000000000000000000000000008152600481018490526024016101f7565b60026000815461166e906133d3565b909155506001600160a01b03841660009081526004602052604090206116949084611f74565b5060008381526003602052604080822080547fffffffffffffffffffffffff0000000000000000000000000000000000000000166001600160a01b03881690811790915590518592907fb333c813a7426a7a11e2b190cad52c44119421594b47f6f32ace6d8c7207b2bf9061170e9033908890889061340b565b60405180910390a46117236000858584611f80565b60008085858460405160200161173c949392919061343e565b6040516020818303038152906040529050610bc0858483612005565b6060600061084583612133565b836001600160a01b0316856001600160a01b0316036117b0576040517f5d67d6c100000000000000000000000000000000000000000000000000000000815260040160405180910390fd5b60006117bb846107de565b9050856001600160a01b0316816001600160a01b031614611822576040517f5b271ea20000000000000000000000000000000000000000000000000000000081526001600160a01b03808316600483015260248201869052871660448201526064016101f7565b6001600160a01b038516611862576040517f24ecef4d00000000000000000000000000000000000000000000000000000000815260040160405180910390fd5b61186e86868685611ef8565b611877846107de565b9050611883868561218e565b6001600160a01b03861660009081526004602052604090206118a590856121e6565b506001600160a01b03851660009081526004602052604090206118c89085611f74565b506000848152600360205260409081902080547fffffffffffffffffffffffff0000000000000000000000000000000000000000166001600160a01b0388811691821790925591518692918916907fb333c813a7426a7a11e2b190cad52c44119421594b47f6f32ace6d8c7207b2bf906119479033908990899061340b565b60405180910390a461195b86868685611f80565b600086868685604051602001611974949392919061343e565b60408051601f1981840301815291905290506119ba6001600160a01b0388167fb23eae7e6d1564b295b4c3e3be402d9a2f0776c57bdf365903496f6fa481ab0083611bc4565b610d06868583612005565b60008181526001602052604090208054606091906119e290613470565b80601f0160208091040260200160405190810160405280929190818152602001828054611a0e90613470565b8015611a5b5780601f10611a3057610100808354040283529160200191611a5b565b820191906000526020600020905b815481529060010190602001808311611a3e57829003601f168201915b50505050509050919050565b6000610782825490565b33611a846000546001600160a01b031690565b6001600160a01b031614610c05576040517fbf1169c50000000000000000000000000000000000000000000000000000000081523360048201526024016101f7565b6000546001600160a01b0382811691161461130657600080546040516001600160a01b03808516939216917f8be0079c531659141344cd1fd0a4f28419497f9722a3daafe3b4186f6b6457e091a3600080546001600160a01b0383167fffffffffffffffffffffffff000000000000000000000000000000000000000090911617905550565b7f8ea0db76a9218319a16b2627c940152b860818f29648e72b840184ff1fa4b01c8201611ba5576040517f53bc112200000000000000000000000000000000000000000000000000000000815260040160405180910390fd5b610d5982826121f2565b6000610845836001600160a01b038416612318565b611bf76001600160a01b0384167f6bb56a1400000000000000000000000000000000000000000000000000000000612367565b15611063576040517f6bb56a140000000000000000000000000000000000000000000000000000000081526001600160a01b03841690636bb56a1490611c4390859085906004016134bd565b6000604051808303816000875af1158015611c62573d6000803e3d6000fd5b505050506040513d6000823e601f3d908101601f19168201604052611c8a91908101906134d6565b50505050565b600082611c9d8584612437565b14949350505050565b6000838152600560205260408120611cbe9087612484565b905080611d09576040517f4aa31a8c0000000000000000000000000000000000000000000000000000000081526001600160a01b0387166004820152602481018590526044016101f7565b83856001600160a01b0316876001600160a01b03167f3ee932cea40ebbbfd8577d47156cc17cce8683802c57bbd1fb8c131c6f07af0a8686604051611d4f929190613544565b60405180910390a4505050505050565b60008060008351604103611d995760208401516040850151606086015160001a611d8b88828585612499565b955095509550505050611da5565b50508151600091506002905b9250925092565b604080517fffffffffffffffffffff00000000000000000000000000000000000000000000841660208201526000602a82018190527fffffffffffffffffffffffffffffffffffffffff0000000000000000000000008416602c83015291829101604051602081830303815290604052905080611e289061355f565b949350505050565b60007fffffffff0000000000000000000000000000000000000000000000000000000082167fa918fa6b000000000000000000000000000000000000000000000000000000001480610782575061078282612568565b600080611eb27f01ffc9a70000000000000000000000000000000000000000000000000000000061140b565b5090506001600160a01b038116611ecc5750600092915050565b6108458184612367565b6001600160a01b03811660009081526001830160205260408120541515610845565b6001600160a01b03841615801590611f1f575060008281526009602052604090205460ff16155b15611f68576040517f906fb8a70000000000000000000000000000000000000000000000000000000081526001600160a01b0385166004820152602481018390526044016101f7565b611c8a848484846125ff565b60006108458383612318565b6001600160a01b03841615611fed57600082815260096020908152604080832080547fffffffffffffffffffffffffffffffffffffffffffffffffffffffffffffff00169055600a909152902054611fd99060016135a1565b6000838152600a6020526040902055611c8a565b6000828152600a60205260409020600190555b611c8a565b6120386001600160a01b0384167f6bb56a1400000000000000000000000000000000000000000000000000000000612367565b156120a4576040517f6bb56a140000000000000000000000000000000000000000000000000000000081526001600160a01b03841690636bb56a1490611c43907f0b084a55ebf70fd3c06fd755269dac2212c4d3f0f4d09079780bfa50c1b2984d9085906004016134bd565b81611063576001600160a01b0383163b156120f6576040517f4349776d0000000000000000000000000000000000000000000000000000000081526001600160a01b03841660048201526024016101f7565b6040517f031731370000000000000000000000000000000000000000000000000000000081526001600160a01b03841660048201526024016101f7565b606081600001805480602002602001604051908101604052809291908181526020018280548015611a5b57602002820191906000526020600020905b81548152602001906001019080831161216f5750505050509050919050565b6000818152600560205260408120906121a682611a67565b90506000805b828110156109b0576121bf8460006126c5565b91506121de828787600060405180602001604052806000815250611ca6565b6001016121ac565b600061084583836126d1565b7f2145e1d6d074577dc71ef54c3807742b41b053a9352ae6b491331509acb9750f820161224b576040517f85c169bd00000000000000000000000000000000000000000000000000000000815260040160405180910390fd5b7fd0f59754f88971fe6bc5a6618cc9d5f1e859c58d16b22d1c7b2d3e2b246cd8aa82016122a4576040517f76755b3800000000000000000000000000000000000000000000000000000000815260040160405180910390fd5b60008281526001602052604090206122bc82826135fa565b50817fece574603820d07bc9b91f2a932baadf4628aabcb8afba49776529c14a6104b2610100835111156122fd576122f88360006101006127c4565b6122ff565b825b60405161230c9190612daa565b60405180910390a25050565b600081815260018301602052604081205461235f57508154600181810184556000848152602080822090930184905584548482528286019093526040902091909155610782565b506000610782565b6040517fffffffff0000000000000000000000000000000000000000000000000000000082166024820152600090819060440160408051601f19818403018152919052602080820180517bffffffffffffffffffffffffffffffffffffffffffffffffffffffff167f01ffc9a700000000000000000000000000000000000000000000000000000000178152825192935060009283928392909183918a617530fa92503d91506000519050828015612420575060208210155b801561242c5750600081115b979650505050505050565b600081815b845181101561247c576124688286838151811061245b5761245b6132bc565b6020026020010151612920565b915080612474816133d3565b91505061243c565b509392505050565b6000610845836001600160a01b0384166126d1565b600080807f7fffffffffffffffffffffffffffffff5d576e7357a4501ddfe92f46681b20a08411156124d4575060009150600390508261255e565b604080516000808252602082018084528a905260ff891692820192909252606081018790526080810186905260019060a0016020604051602081039080840390855afa158015612528573d6000803e3d6000fd5b5050604051601f1901519150506001600160a01b0381166125545750600092506001915082905061255e565b9250600091508190505b9450945094915050565b60007fffffffff0000000000000000000000000000000000000000000000000000000082167f629aa69400000000000000000000000000000000000000000000000000000000148061078257507f01ffc9a7000000000000000000000000000000000000000000000000000000007fffffffff00000000000000000000000000000000000000000000000000000000831614610782565b6001600160a01b03841661263957600061261860025490565b60008181526007602090815260408083208790558683526008909152902055505b6001600160a01b038316612000576000600161265460025490565b61265e91906136f6565b600084815260086020526040902054909150818110156126a0576000828152600760209081526040808320548484528184208190558352600890915290208190555b5060009081526007602090815260408083208390558483526008909152812055611c8a565b6000610845838361294f565b600081815260018301602052604081205480156127ba5760006126f56001836136f6565b8554909150600090612709906001906136f6565b905080821461276e576000866000018281548110612729576127296132bc565b906000526020600020015490508087600001848154811061274c5761274c6132bc565b6000918252602080832090910192909255918252600188019052604090208390555b855486908061277f5761277f613709565b600190038181906000526020600020016000905590558560010160008681526020019081526020016000206000905560019350505050610782565b6000915050610782565b6060816127d281601f6135a1565b101561283a576040517f08c379a000000000000000000000000000000000000000000000000000000000815260206004820152600e60248201527f736c6963655f6f766572666c6f7700000000000000000000000000000000000060448201526064016101f7565b61284482846135a1565b845110156128ae576040517f08c379a000000000000000000000000000000000000000000000000000000000815260206004820152601160248201527f736c6963655f6f75744f66426f756e647300000000000000000000000000000060448201526064016101f7565b6060821580156128cd5760405191506000825260208201604052612917565b6040519150601f8416801560200281840101858101878315602002848b0101015b818310156129065780518352602092830192016128ee565b5050858452601f01601f1916604052505b50949350505050565b600081831061293c576000828152602084905260409020610845565b6000838152602083905260409020610845565b6000826000018281548110612966576129666132bc565b9060005260206000200154905092915050565b60208152816020820152818360408301376000818301604090810191909152601f909201601f19160101919050565b6000602082840312156129ba57600080fd5b81357fffffffff000000000000000000000000000000000000000000000000000000008116811461084557600080fd5b6000602082840312156129fc57600080fd5b5035919050565b80356001600160a01b0381168114612a1a57600080fd5b919050565b60008060408385031215612a3257600080fd5b612a3b83612a03565b946020939093013593505050565b7f4e487b7100000000000000000000000000000000000000000000000000000000600052604160045260246000fd5b604051601f8201601f1916810167ffffffffffffffff81118282101715612aa157612aa1612a49565b604052919050565b600067ffffffffffffffff821115612ac357612ac3612a49565b50601f01601f191660200190565b600082601f830112612ae257600080fd5b8135612af5612af082612aa9565b612a78565b818152846020838601011115612b0a57600080fd5b816020850160208301376000918101602001919091529392505050565b600067ffffffffffffffff821115612b4157612b41612a49565b5060051b60200190565b600082601f830112612b5c57600080fd5b81356020612b6c612af083612b27565b82815260059290921b84018101918181019086841115612b8b57600080fd5b8286015b84811015612ba65780358352918301918301612b8f565b509695505050505050565b80358015158114612a1a57600080fd5b60008060008060808587031215612bd757600080fd5b612be085612a03565b9350602085013567ffffffffffffffff80821115612bfd57600080fd5b612c0988838901612ad1565b94506040870135915080821115612c1f57600080fd5b50612c2c87828801612b4b565b925050612c3b60608601612bb1565b905092959194509250565b60008060408385031215612c5957600080fd5b612c6283612a03565b9150602083013567ffffffffffffffff811115612c7e57600080fd5b612c8a85828601612ad1565b9150509250929050565b6020808252825182820181905260009190848201906040850190845b81811015612cd55783516001600160a01b031683529284019291840191600101612cb0565b50909695505050505050565b600080600080600060a08688031215612cf957600080fd5b612d0286612a03565b9450612d1060208701612a03565b935060408601359250612d2560608701612bb1565b9150608086013567ffffffffffffffff811115612d4157600080fd5b612d4d88828901612ad1565b9150509295509295909350565b60005b83811015612d75578181015183820152602001612d5d565b50506000910152565b60008151808452612d96816020860160208601612d5a565b601f01601f19169290920160200192915050565b6020815260006108456020830184612d7e565b600060208284031215612dcf57600080fd5b61084582612a03565b600082601f830112612de957600080fd5b81356020612df9612af083612b27565b82815260059290921b84018101918181019086841115612e1857600080fd5b8286015b84811015612ba657612e2d81612a03565b8352918301918301612e1c565b600082601f830112612e4b57600080fd5b81356020612e5b612af083612b27565b82815260059290921b84018101918181019086841115612e7a57600080fd5b8286015b84811015612ba657612e8f81612bb1565b8352918301918301612e7e565b600082601f830112612ead57600080fd5b81356020612ebd612af083612b27565b82815260059290921b84018101918181019086841115612edc57600080fd5b8286015b84811015612ba657803567ffffffffffffffff811115612f005760008081fd5b612f0e8986838b0101612ad1565b845250918301918301612ee0565b600080600080600060a08688031215612f3457600080fd5b853567ffffffffffffffff80821115612f4c57600080fd5b612f5889838a01612dd8565b96506020880135915080821115612f6e57600080fd5b612f7a89838a01612dd8565b95506040880135915080821115612f9057600080fd5b612f9c89838a01612b4b565b94506060880135915080821115612fb257600080fd5b612fbe89838a01612e3a565b93506080880135915080821115612fd457600080fd5b50612d4d88828901612e9c565b60008060408385031215612ff457600080fd5b82359150602083013567ffffffffffffffff811115612c7e57600080fd5b60008060006060848603121561302757600080fd5b61303084612a03565b925060208401359150604084013567ffffffffffffffff81111561305357600080fd5b61305f86828701612ad1565b9150509250925092565b6000806040838503121561307c57600080fd5b823567ffffffffffffffff8082111561309457600080fd5b6130a086838701612b4b565b935060208501359150808211156130b657600080fd5b50612c8a85828601612e9c565b600080604083850312156130d657600080fd5b823567ffffffffffffffff8111156130ed57600080fd5b6130f985828601612b4b565b95602094909401359450505050565b6020808252825182820181905260009190848201906040850190845b81811015612cd557835183529284019291840191600101613124565b6000806000806080858703121561315657600080fd5b61315f85612a03565b93506020850135925061317460408601612bb1565b9150606085013567ffffffffffffffff81111561319057600080fd5b61319c87828801612ad1565b91505092959194509250565b6000602082840312156131ba57600080fd5b813567ffffffffffffffff8111156131d157600080fd5b611e2884828501612b4b565b6000602080830181845280855180835260408601915060408160051b870101925083870160005b82811015613250577fffffffffffffffffffffffffffffffffffffffffffffffffffffffffffffffc088860301845261323e858351612d7e565b94509285019290850190600101613204565b5092979650505050505050565b8385823760609290921b7fffffffffffffffffffffffffffffffffffffffff00000000000000000000000016919092019081526014810191909152603401919050565b600082516132b2818460208701612d5a565b9190910192915050565b7f4e487b7100000000000000000000000000000000000000000000000000000000600052603260045260246000fd5b6001600160a01b0385168152836020820152821515604082015260806060820152600061331b6080830184612d7e565b9695505050505050565b7f4e487b7100000000000000000000000000000000000000000000000000000000600052602160045260246000fd5b6000815160208301517fffffffffffffffffffffffffffffffffffffffff0000000000000000000000008082169350601483101561339c5780818460140360031b1b83161693505b505050919050565b7f4e487b7100000000000000000000000000000000000000000000000000000000600052601160045260246000fd5b60007fffffffffffffffffffffffffffffffffffffffffffffffffffffffffffffffff8203613404576134046133a4565b5060010190565b6001600160a01b038416815282151560208201526060604082015260006134356060830184612d7e565b95945050505050565b60006001600160a01b0380871683528086166020840152508360408301526080606083015261331b6080830184612d7e565b600181811c9082168061348457607f821691505b6020821081036112af577f4e487b7100000000000000000000000000000000000000000000000000000000600052602260045260246000fd5b828152604060208201526000611e286040830184612d7e565b6000602082840312156134e857600080fd5b815167ffffffffffffffff8111156134ff57600080fd5b8201601f8101841361351057600080fd5b805161351e612af082612aa9565b81815285602083850101111561353357600080fd5b613435826020830160208601612d5a565b8215158152604060208201526000611e286040830184612d7e565b805160208083015191908110156112af577fffffffffffffffffffffffffffffffffffffffffffffffffffffffffffffffff60209190910360031b1b16919050565b80820180821115610782576107826133a4565b601f82111561106357600081815260208120601f850160051c810160208610156135db5750805b601f850160051c820191505b818110156109b0578281556001016135e7565b815167ffffffffffffffff81111561361457613614612a49565b613628816136228454613470565b846135b4565b602080601f83116001811461367b57600084156136455750858301515b7fffffffffffffffffffffffffffffffffffffffffffffffffffffffffffffffff600386901b1c1916600185901b1785556109b0565b600085815260208120601f198616915b828110156136aa5788860151825594840194600190910190840161368b565b50858210156136e657878501517fffffffffffffffffffffffffffffffffffffffffffffffffffffffffffffffff600388901b60f8161c191681555b5050505050600190811b01905550565b81810381811115610782576107826133a4565b7f4e487b7100000000000000000000000000000000000000000000000000000000600052603160045260246000fdfea26469706673582212207ac69c36649c7731ec0f4f6494315c7e790a83b4ad4daf96f653275bbb7ea92a64736f6c63430008140033ece574603820d07bc9b91f2a932baadf4628aabcb8afba49776529c14a6104b2",
  "linkReferences": {},
  "deployedLinkReferences": {}
}