{
  "_format": "hh-sol-artifact-1",
  "contractName": "PhygitalAsset",
  "sourceName": "contracts/PhygitalAsset.sol",
  "abi": [
    {
      "inputs": [
        {
          "internalType": "bytes32",
          "name": "merkleRootOfCollection_",
          "type": "bytes32"
        },
        {
          "internalType": "bytes",
          "name": "collectionJSONURL_",
          "type": "bytes"
        },
        {
          "internalType": "string",
          "name": "name_",
          "type": "string"
        },
        {
          "internalType": "string",
          "name": "symbol_",
          "type": "string"
        },
        {
          "internalType": "bytes",
          "name": "metadataJSONURL_",
          "type": "bytes"
        },
        {
          "internalType": "address",
          "name": "collectionOwner_",
          "type": "address"
        }
      ],
      "stateMutability": "nonpayable",
      "type": "constructor"
    },
    {
      "inputs": [],
      "name": "ERC725Y_DataKeysValuesEmptyArray",
      "type": "error"
    },
    {
      "inputs": [],
      "name": "ERC725Y_DataKeysValuesLengthMismatch",
      "type": "error"
    },
    {
      "inputs": [],
      "name": "ERC725Y_MsgValueDisallowed",
      "type": "error"
    },
    {
      "inputs": [
        {
          "internalType": "bytes",
          "name": "storedData",
          "type": "bytes"
        }
      ],
      "name": "InvalidExtensionAddress",
      "type": "error"
    },
    {
      "inputs": [
        {
          "internalType": "bytes",
          "name": "data",
          "type": "bytes"
        }
      ],
      "name": "InvalidFunctionSelector",
      "type": "error"
    },
    {
      "inputs": [],
      "name": "LSP4TokenNameNotEditable",
      "type": "error"
    },
    {
      "inputs": [],
      "name": "LSP4TokenSymbolNotEditable",
      "type": "error"
    },
    {
      "inputs": [],
      "name": "LSP8CannotSendToAddressZero",
      "type": "error"
    },
    {
      "inputs": [],
      "name": "LSP8CannotSendToSelf",
      "type": "error"
    },
    {
      "inputs": [],
      "name": "LSP8CannotUseAddressZeroAsOperator",
      "type": "error"
    },
    {
      "inputs": [],
      "name": "LSP8InvalidTransferBatch",
      "type": "error"
    },
    {
      "inputs": [
        {
          "internalType": "bytes32",
          "name": "tokenId",
          "type": "bytes32"
        }
      ],
      "name": "LSP8NonExistentTokenId",
      "type": "error"
    },
    {
      "inputs": [
        {
          "internalType": "address",
          "name": "operator",
          "type": "address"
        },
        {
          "internalType": "bytes32",
          "name": "tokenId",
          "type": "bytes32"
        }
      ],
      "name": "LSP8NonExistingOperator",
      "type": "error"
    },
    {
      "inputs": [
        {
          "internalType": "bytes32",
          "name": "tokenId",
          "type": "bytes32"
        },
        {
          "internalType": "address",
          "name": "caller",
          "type": "address"
        }
      ],
      "name": "LSP8NotTokenOperator",
      "type": "error"
    },
    {
      "inputs": [
        {
          "internalType": "address",
          "name": "tokenOwner",
          "type": "address"
        },
        {
          "internalType": "bytes32",
          "name": "tokenId",
          "type": "bytes32"
        },
        {
          "internalType": "address",
          "name": "caller",
          "type": "address"
        }
      ],
      "name": "LSP8NotTokenOwner",
      "type": "error"
    },
    {
      "inputs": [
        {
          "internalType": "address",
          "name": "tokenReceiver",
          "type": "address"
        }
      ],
      "name": "LSP8NotifyTokenReceiverContractMissingLSP1Interface",
      "type": "error"
    },
    {
      "inputs": [
        {
          "internalType": "address",
          "name": "tokenReceiver",
          "type": "address"
        }
      ],
      "name": "LSP8NotifyTokenReceiverIsEOA",
      "type": "error"
    },
    {
      "inputs": [
        {
          "internalType": "address",
          "name": "operator",
          "type": "address"
        },
        {
          "internalType": "bytes32",
          "name": "tokenId",
          "type": "bytes32"
        }
      ],
      "name": "LSP8OperatorAlreadyAuthorized",
      "type": "error"
    },
    {
      "inputs": [],
      "name": "LSP8TokenContractCannotHoldValue",
      "type": "error"
    },
    {
      "inputs": [
        {
          "internalType": "bytes32",
          "name": "tokenId",
          "type": "bytes32"
        }
      ],
      "name": "LSP8TokenIdAlreadyMinted",
      "type": "error"
    },
    {
      "inputs": [],
      "name": "LSP8TokenIdTypeNotEditable",
      "type": "error"
    },
    {
      "inputs": [],
      "name": "LSP8TokenOwnerCannotBeOperator",
      "type": "error"
    },
    {
      "inputs": [
        {
          "internalType": "bytes4",
          "name": "functionSelector",
          "type": "bytes4"
        }
      ],
      "name": "NoExtensionFoundForFunctionSelector",
      "type": "error"
    },
    {
      "inputs": [
        {
          "internalType": "address",
          "name": "callerAddress",
          "type": "address"
        }
      ],
      "name": "OwnableCallerNotTheOwner",
      "type": "error"
    },
    {
      "inputs": [],
      "name": "OwnableCannotSetZeroAddressAsOwner",
      "type": "error"
    },
    {
      "inputs": [
        {
          "internalType": "address",
          "name": "owner",
          "type": "address"
        },
        {
          "internalType": "bytes32",
          "name": "phygitalId",
          "type": "bytes32"
        }
      ],
      "name": "PhygitalAssetHasAlreadyAVerifiedOwnership",
      "type": "error"
    },
    {
      "inputs": [
        {
          "internalType": "address",
          "name": "owner",
          "type": "address"
        },
        {
          "internalType": "bytes32",
          "name": "phygitalId",
          "type": "bytes32"
        }
      ],
      "name": "PhygitalAssetHasAnUnverifiedOwnership",
      "type": "error"
    },
    {
      "inputs": [
        {
          "internalType": "bytes32",
          "name": "phygitalId",
          "type": "bytes32"
        }
      ],
      "name": "PhygitalAssetIsNotPartOfCollection",
      "type": "error"
    },
    {
      "inputs": [
        {
          "internalType": "address",
          "name": "owner",
          "type": "address"
        },
        {
          "internalType": "bytes32",
          "name": "phygitalId",
          "type": "bytes32"
        }
      ],
      "name": "PhygitalAssetOwnershipVerificationFailed",
      "type": "error"
    },
    {
      "anonymous": false,
      "inputs": [
        {
          "indexed": true,
          "internalType": "address",
          "name": "operator",
          "type": "address"
        },
        {
          "indexed": true,
          "internalType": "address",
          "name": "tokenOwner",
          "type": "address"
        },
        {
          "indexed": true,
          "internalType": "bytes32",
          "name": "tokenId",
          "type": "bytes32"
        },
        {
          "indexed": false,
          "internalType": "bytes",
          "name": "operatorNotificationData",
          "type": "bytes"
        }
      ],
      "name": "AuthorizedOperator",
      "type": "event"
    },
    {
      "anonymous": false,
      "inputs": [
        {
          "indexed": true,
          "internalType": "bytes32",
          "name": "dataKey",
          "type": "bytes32"
        },
        {
          "indexed": false,
          "internalType": "bytes",
          "name": "dataValue",
          "type": "bytes"
        }
      ],
      "name": "DataChanged",
      "type": "event"
    },
    {
      "anonymous": false,
      "inputs": [
        {
          "indexed": true,
          "internalType": "address",
          "name": "previousOwner",
          "type": "address"
        },
        {
          "indexed": true,
          "internalType": "address",
          "name": "newOwner",
          "type": "address"
        }
      ],
      "name": "OwnershipTransferred",
      "type": "event"
    },
    {
      "anonymous": false,
      "inputs": [
        {
          "indexed": true,
          "internalType": "address",
          "name": "operator",
          "type": "address"
        },
        {
          "indexed": true,
          "internalType": "address",
          "name": "tokenOwner",
          "type": "address"
        },
        {
          "indexed": true,
          "internalType": "bytes32",
          "name": "tokenId",
          "type": "bytes32"
        },
        {
          "indexed": false,
          "internalType": "bool",
          "name": "notified",
          "type": "bool"
        },
        {
          "indexed": false,
          "internalType": "bytes",
          "name": "operatorNotificationData",
          "type": "bytes"
        }
      ],
      "name": "RevokedOperator",
      "type": "event"
    },
    {
      "anonymous": false,
      "inputs": [
        {
          "indexed": false,
          "internalType": "address",
          "name": "operator",
          "type": "address"
        },
        {
          "indexed": true,
          "internalType": "address",
          "name": "from",
          "type": "address"
        },
        {
          "indexed": true,
          "internalType": "address",
          "name": "to",
          "type": "address"
        },
        {
          "indexed": true,
          "internalType": "bytes32",
          "name": "tokenId",
          "type": "bytes32"
        },
        {
          "indexed": false,
          "internalType": "bool",
          "name": "force",
          "type": "bool"
        },
        {
          "indexed": false,
          "internalType": "bytes",
          "name": "data",
          "type": "bytes"
        }
      ],
      "name": "Transfer",
      "type": "event"
    },
    {
      "stateMutability": "payable",
      "type": "fallback"
    },
    {
      "inputs": [
        {
          "internalType": "bytes32[]",
          "name": "merkleProofOfCollection",
          "type": "bytes32[]"
        },
        {
          "internalType": "bytes32",
          "name": "phygitalId",
          "type": "bytes32"
        }
      ],
      "name": "_isPhygitalPartOfCollection",
      "outputs": [
        {
          "internalType": "bool",
          "name": "",
          "type": "bool"
        }
      ],
      "stateMutability": "view",
      "type": "function"
    },
    {
      "inputs": [
        {
          "internalType": "address",
          "name": "phygitalOwner",
          "type": "address"
        },
        {
          "internalType": "bytes32",
          "name": "phygitalId",
          "type": "bytes32"
        },
        {
          "internalType": "bytes",
          "name": "phygitalSignature",
          "type": "bytes"
        }
      ],
      "name": "_verifyPhygitalOwnership",
      "outputs": [
        {
          "internalType": "bool",
          "name": "",
          "type": "bool"
        }
      ],
      "stateMutability": "view",
      "type": "function"
    },
    {
      "inputs": [
        {
          "internalType": "address",
          "name": "operator",
          "type": "address"
        },
        {
          "internalType": "bytes32",
          "name": "tokenId",
          "type": "bytes32"
        },
        {
          "internalType": "bytes",
          "name": "operatorNotificationData",
          "type": "bytes"
        }
      ],
      "name": "authorizeOperator",
      "outputs": [],
      "stateMutability": "nonpayable",
      "type": "function"
    },
    {
      "inputs": [
        {
          "internalType": "address",
          "name": "tokenOwner",
          "type": "address"
        }
      ],
      "name": "balanceOf",
      "outputs": [
        {
          "internalType": "uint256",
          "name": "",
          "type": "uint256"
        }
      ],
      "stateMutability": "view",
      "type": "function"
    },
    {
      "inputs": [
        {
          "internalType": "bytes32",
          "name": "dataKey",
          "type": "bytes32"
        }
      ],
      "name": "getData",
      "outputs": [
        {
          "internalType": "bytes",
          "name": "dataValue",
          "type": "bytes"
        }
      ],
      "stateMutability": "view",
      "type": "function"
    },
    {
      "inputs": [
        {
          "internalType": "bytes32[]",
          "name": "dataKeys",
          "type": "bytes32[]"
        }
      ],
      "name": "getDataBatch",
      "outputs": [
        {
          "internalType": "bytes[]",
          "name": "dataValues",
          "type": "bytes[]"
        }
      ],
      "stateMutability": "view",
      "type": "function"
    },
    {
      "inputs": [
        {
          "internalType": "bytes32",
          "name": "tokenId",
          "type": "bytes32"
        }
      ],
      "name": "getOperatorsOf",
      "outputs": [
        {
          "internalType": "address[]",
          "name": "",
          "type": "address[]"
        }
      ],
      "stateMutability": "view",
      "type": "function"
    },
    {
      "inputs": [
        {
          "internalType": "address",
          "name": "operator",
          "type": "address"
        },
        {
          "internalType": "bytes32",
          "name": "tokenId",
          "type": "bytes32"
        }
      ],
      "name": "isOperatorFor",
      "outputs": [
        {
          "internalType": "bool",
          "name": "",
          "type": "bool"
        }
      ],
      "stateMutability": "view",
      "type": "function"
    },
    {
      "inputs": [],
      "name": "merkleRootOfCollection",
      "outputs": [
        {
          "internalType": "bytes32",
          "name": "",
          "type": "bytes32"
        }
      ],
      "stateMutability": "view",
      "type": "function"
    },
    {
      "inputs": [
        {
          "internalType": "bytes32",
          "name": "phygitalId",
          "type": "bytes32"
        },
        {
          "internalType": "bytes",
          "name": "phygitalSignature",
          "type": "bytes"
        },
        {
          "internalType": "bytes32[]",
          "name": "merkleProofOfCollection",
          "type": "bytes32[]"
        },
        {
          "internalType": "bool",
          "name": "force",
          "type": "bool"
        }
      ],
      "name": "mint",
      "outputs": [],
      "stateMutability": "nonpayable",
      "type": "function"
    },
    {
      "inputs": [
        {
          "internalType": "bytes32",
          "name": "",
          "type": "bytes32"
        }
      ],
      "name": "nonce",
      "outputs": [
        {
          "internalType": "uint256",
          "name": "",
          "type": "uint256"
        }
      ],
      "stateMutability": "view",
      "type": "function"
    },
    {
      "inputs": [],
      "name": "owner",
      "outputs": [
        {
          "internalType": "address",
          "name": "",
          "type": "address"
        }
      ],
      "stateMutability": "view",
      "type": "function"
    },
    {
      "inputs": [],
      "name": "renounceOwnership",
      "outputs": [],
      "stateMutability": "nonpayable",
      "type": "function"
    },
    {
      "inputs": [
        {
          "internalType": "address",
          "name": "operator",
          "type": "address"
        },
        {
          "internalType": "bytes32",
          "name": "tokenId",
          "type": "bytes32"
        },
        {
          "internalType": "bool",
          "name": "notify",
          "type": "bool"
        },
        {
          "internalType": "bytes",
          "name": "operatorNotificationData",
          "type": "bytes"
        }
      ],
      "name": "revokeOperator",
      "outputs": [],
      "stateMutability": "nonpayable",
      "type": "function"
    },
    {
      "inputs": [
        {
          "internalType": "bytes32",
          "name": "dataKey",
          "type": "bytes32"
        },
        {
          "internalType": "bytes",
          "name": "dataValue",
          "type": "bytes"
        }
      ],
      "name": "setData",
      "outputs": [],
      "stateMutability": "payable",
      "type": "function"
    },
    {
      "inputs": [
        {
          "internalType": "bytes32[]",
          "name": "dataKeys",
          "type": "bytes32[]"
        },
        {
          "internalType": "bytes[]",
          "name": "dataValues",
          "type": "bytes[]"
        }
      ],
      "name": "setDataBatch",
      "outputs": [],
      "stateMutability": "payable",
      "type": "function"
    },
    {
      "inputs": [
        {
          "internalType": "bytes4",
          "name": "interfaceId",
          "type": "bytes4"
        }
      ],
      "name": "supportsInterface",
      "outputs": [
        {
          "internalType": "bool",
          "name": "",
          "type": "bool"
        }
      ],
      "stateMutability": "view",
      "type": "function"
    },
    {
      "inputs": [
        {
          "internalType": "uint256",
          "name": "index",
          "type": "uint256"
        }
      ],
      "name": "tokenAt",
      "outputs": [
        {
          "internalType": "bytes32",
          "name": "",
          "type": "bytes32"
        }
      ],
      "stateMutability": "view",
      "type": "function"
    },
    {
      "inputs": [
        {
          "internalType": "address",
          "name": "tokenOwner",
          "type": "address"
        }
      ],
      "name": "tokenIdsOf",
      "outputs": [
        {
          "internalType": "bytes32[]",
          "name": "",
          "type": "bytes32[]"
        }
      ],
      "stateMutability": "view",
      "type": "function"
    },
    {
      "inputs": [
        {
          "internalType": "bytes32",
          "name": "tokenId",
          "type": "bytes32"
        }
      ],
      "name": "tokenOwnerOf",
      "outputs": [
        {
          "internalType": "address",
          "name": "",
          "type": "address"
        }
      ],
      "stateMutability": "view",
      "type": "function"
    },
    {
      "inputs": [],
      "name": "totalSupply",
      "outputs": [
        {
          "internalType": "uint256",
          "name": "",
          "type": "uint256"
        }
      ],
      "stateMutability": "view",
      "type": "function"
    },
    {
      "inputs": [
        {
          "internalType": "address",
          "name": "from",
          "type": "address"
        },
        {
          "internalType": "address",
          "name": "to",
          "type": "address"
        },
        {
          "internalType": "bytes32",
          "name": "tokenId",
          "type": "bytes32"
        },
        {
          "internalType": "bool",
          "name": "force",
          "type": "bool"
        },
        {
          "internalType": "bytes",
          "name": "data",
          "type": "bytes"
        }
      ],
      "name": "transfer",
      "outputs": [],
      "stateMutability": "nonpayable",
      "type": "function"
    },
    {
      "inputs": [
        {
          "internalType": "address[]",
          "name": "from",
          "type": "address[]"
        },
        {
          "internalType": "address[]",
          "name": "to",
          "type": "address[]"
        },
        {
          "internalType": "bytes32[]",
          "name": "tokenId",
          "type": "bytes32[]"
        },
        {
          "internalType": "bool[]",
          "name": "force",
          "type": "bool[]"
        },
        {
          "internalType": "bytes[]",
          "name": "data",
          "type": "bytes[]"
        }
      ],
      "name": "transferBatch",
      "outputs": [],
      "stateMutability": "nonpayable",
      "type": "function"
    },
    {
      "inputs": [
        {
          "internalType": "address",
          "name": "newOwner",
          "type": "address"
        }
      ],
      "name": "transferOwnership",
      "outputs": [],
      "stateMutability": "nonpayable",
      "type": "function"
    },
    {
      "inputs": [
        {
          "internalType": "bytes32",
          "name": "",
          "type": "bytes32"
        }
      ],
      "name": "verifiedOwnership",
      "outputs": [
        {
          "internalType": "bool",
          "name": "",
          "type": "bool"
        }
      ],
      "stateMutability": "view",
      "type": "function"
    },
    {
      "inputs": [
        {
          "internalType": "bytes32",
          "name": "phygitalId",
          "type": "bytes32"
        },
        {
          "internalType": "bytes",
          "name": "phygitalSignature",
          "type": "bytes"
        }
      ],
      "name": "verifyOwnershipAfterTransfer",
      "outputs": [],
      "stateMutability": "nonpayable",
      "type": "function"
    },
    {
      "stateMutability": "payable",
      "type": "receive"
    }
  ],
  "bytecode": "0x60a06040523480156200001157600080fd5b5060405162003fd138038062003fd1833981016040819052620000349162000632565b838333600383838380806200005c576040516306b620db60e21b815260040160405180910390fd5b6200006781620001cc565b506040805180820190915260048152632936598960e21b6020820152620000b0907feafec4d89fa9619884b60000a4d96624a38f7ac2d8d9a604ecf07c12c77e480c906200023a565b620000dc7fdeba1e292f8ba88238e10ab3c7f88bd4be4fac56cad5194b6ecceaf653468af1846200023a565b620001087f2f0a68ab07768e01943a599e73362a0e17a63a72e94dd2e384d2c1d4db932756836200023a565b505060408051602081018490526200015492507f715f248956de7ce65e94d9d836bfead479f7e70d69b718d47bfe7b00e05b4fe4910160408051601f1981840301815291905262000282565b505050608087905250620001897f4eff76d745d12fd5e5f7b38e8f396dd0d099124739e69a289ca1faa7ebc537688662000367565b620001b57f9afb95cacc9f95858ec44aa8c3b685511002e30ae54415823f406128b85b238e83620003b4565b620001c081620001cc565b505050505050620008bf565b6000546001600160a01b038281169116146200023757600080546040516001600160a01b03808516939216917f8be0079c531659141344cd1fd0a4f28419497f9722a3daafe3b4186f6b6457e091a3600080546001600160a01b0319166001600160a01b0383161790555b50565b600082815260016020526040902062000254828262000796565b508160008051602062003fb18339815191528260405162000276919062000862565b60405180910390a25050565b7f2145e1d6d074577dc71ef54c3807742b41b053a9352ae6b491331509acb9750f8201620002c3576040516385c169bd60e01b815260040160405180910390fd5b7fd0f59754f88971fe6bc5a6618cc9d5f1e859c58d16b22d1c7b2d3e2b246cd8aa82016200030457604051630eceab6760e31b815260040160405180910390fd5b60008281526001602052604090206200031e828262000796565b508160008051602062003fb18339815191526101008351111562000352576200034c836000610100620003ea565b62000354565b825b60405162000276919062000862565b5050565b7f8ea0db76a9218319a16b2627c940152b860818f29648e72b840184ff1fa4b01c8201620003a8576040516329de089160e11b815260040160405180910390fd5b62000363828262000282565b620003be62000507565b3415620003de5760405163f36ba73760e01b815260040160405180910390fd5b62000363828262000367565b606081620003fa81601f62000897565b10156200043f5760405162461bcd60e51b815260206004820152600e60248201526d736c6963655f6f766572666c6f7760901b60448201526064015b60405180910390fd5b6200044b828462000897565b84511015620004915760405162461bcd60e51b8152602060048201526011602482015270736c6963655f6f75744f66426f756e647360781b604482015260640162000436565b606082158015620004b25760405191506000825260208201604052620004fe565b6040519150601f8416801560200281840101858101878315602002848b0101015b81831015620004ed578051835260209283019201620004d3565b5050858452601f01601f1916604052505b50949350505050565b336200051b6000546001600160a01b031690565b6001600160a01b031614620005465760405163bf1169c560e01b815233600482015260240162000436565b565b634e487b7160e01b600052604160045260246000fd5b60005b838110156200057b57818101518382015260200162000561565b50506000910152565b600082601f8301126200059657600080fd5b81516001600160401b0380821115620005b357620005b362000548565b604051601f8301601f19908116603f01168101908282118183101715620005de57620005de62000548565b81604052838152866020858801011115620005f857600080fd5b6200060b8460208301602089016200055e565b9695505050505050565b80516001600160a01b03811681146200062d57600080fd5b919050565b60008060008060008060c087890312156200064c57600080fd5b865160208801519096506001600160401b03808211156200066c57600080fd5b6200067a8a838b0162000584565b965060408901519150808211156200069157600080fd5b6200069f8a838b0162000584565b95506060890151915080821115620006b657600080fd5b620006c48a838b0162000584565b94506080890151915080821115620006db57600080fd5b50620006ea89828a0162000584565b925050620006fb60a0880162000615565b90509295509295509295565b600181811c908216806200071c57607f821691505b6020821081036200073d57634e487b7160e01b600052602260045260246000fd5b50919050565b601f8211156200079157600081815260208120601f850160051c810160208610156200076c5750805b601f850160051c820191505b818110156200078d5782815560010162000778565b5050505b505050565b81516001600160401b03811115620007b257620007b262000548565b620007ca81620007c3845462000707565b8462000743565b602080601f831160018114620008025760008415620007e95750858301515b600019600386901b1c1916600185901b1785556200078d565b600085815260208120601f198616915b82811015620008335788860151825594840194600190910190840162000812565b5085821015620008525787850151600019600388901b60f8161c191681555b5050505050600190811b01905550565b6020815260008251806020840152620008838160408501602087016200055e565b601f01601f19169190910160400192915050565b80820180821115620008b957634e487b7160e01b600052601160045260246000fd5b92915050565b6080516136cf620008e2600039600081816102d30152610edb01526136cf6000f3fe6080604052600436106101a55760003560e01c80637f23690c116100e1578063a20dd6451161008a578063dedff9c611610064578063dedff9c6146105bc578063e50438f0146105e9578063f2fde38b14610609578063fa8dc2341461062957610232565b8063a20dd6451461054f578063a3b261f21461056f578063db8c96631461059c57610232565b8063905da30f116100bb578063905da30f146104e257806392a91a3a1461050f578063979024211461053c57610232565b80637f23690c1461049157806386a10ddd146104a45780638da5cb5b146104c457610232565b80634d55c5a41161014e57806365090a4b1161012857806365090a4b1461041c57806370a082311461043c578063715018a61461045c5780637e87632c1461047157610232565b80634d55c5a41461039d578063511b6952146103cd57806354f6127f146103ef57610232565b8063217b22701161017f578063217b2270146103185780632a3654a41461035057806349a6078d1461037057610232565b806301ffc9a71461028c57806307c79bb2146102c157806318160ddd1461030357610232565b366102325734600003610200576040517fe5099ee30000000000000000000000000000000000000000000000000000000081526004016101f79060208082526004908201526000604082015260600190565b60405180910390fd5b6040517f61f4944200000000000000000000000000000000000000000000000000000000815260040160405180910390fd5b600036606060048210156102765782826040517fe5099ee30000000000000000000000000000000000000000000000000000000081526004016101f7929190612919565b6102808383610649565b80519350602001915050f35b34801561029857600080fd5b506102ac6102a7366004612948565b610788565b60405190151581526020015b60405180910390f35b3480156102cd57600080fd5b506102f57f000000000000000000000000000000000000000000000000000000000000000081565b6040519081526020016102b8565b34801561030f57600080fd5b506002546102f5565b34801561032457600080fd5b5061033861033336600461298a565b6107de565b6040516001600160a01b0390911681526020016102b8565b34801561035c57600080fd5b506102ac61036b3660046129bf565b610830565b34801561037c57600080fd5b5061039061038b36600461298a565b61084c565b6040516102b891906129e9565b3480156103a957600080fd5b506102ac6103b836600461298a565b60096020526000908152604090205460ff1681565b3480156103d957600080fd5b506103ed6103e8366004612b24565b61086e565b005b3480156103fb57600080fd5b5061040f61040a36600461298a565b6108cb565b6040516102b89190612bed565b34801561042857600080fd5b506103ed610437366004612c00565b6108d6565b34801561044857600080fd5b506102f5610457366004612c47565b610a36565b34801561046857600080fd5b506103ed610a57565b34801561047d57600080fd5b506103ed61048c366004612e30565b610a6b565b6103ed61049f366004612c00565b610b73565b3480156104b057600080fd5b506103ed6104bf366004612ef5565b610bc1565b3480156104d057600080fd5b506000546001600160a01b0316610338565b3480156104ee57600080fd5b506102f56104fd36600461298a565b600a6020526000908152604090205481565b34801561051b57600080fd5b506102f561052a36600461298a565b60009081526007602052604090205490565b6103ed61054a366004612f4c565b610dc9565b34801561055b57600080fd5b506102ac61056a366004612fa6565b610ed4565b34801561057b57600080fd5b5061058f61058a366004612c47565b610f33565b6040516102b89190612feb565b3480156105a857600080fd5b506103ed6105b7366004613023565b610f57565b3480156105c857600080fd5b506105dc6105d736600461308b565b611076565b6040516102b891906130c0565b3480156105f557600080fd5b506103ed610604366004613140565b611121565b34801561061557600080fd5b506103ed610624366004612c47565b611255565b34801561063557600080fd5b506102ac610644366004612ef5565b6112a9565b6060600061067a6000357fffffffff00000000000000000000000000000000000000000000000000000000166113ab565b5090506001600160a01b0381166106e3576040517fbb370b2b0000000000000000000000000000000000000000000000000000000081527fffffffff000000000000000000000000000000000000000000000000000000006000351660048201526024016101f7565b600080826001600160a01b0316348787333460405160200161070894939291906131be565b60408051601f198184030181529082905261072291613201565b60006040518083038185875af1925050503d806000811461075f576040519150601f19603f3d011682016040523d82523d6000602084013e610764565b606091505b50915091508115610779579250610782915050565b80518060208301fd5b92915050565b60007fffffffff0000000000000000000000000000000000000000000000000000000082167f06d8902b00000000000000000000000000000000000000000000000000000000148061078257506107828261146d565b6000818152600360205260408120546001600160a01b031680610782576040517fae8f9a36000000000000000000000000000000000000000000000000000000008152600481018490526024016101f7565b600061083b826114d2565b6108458383611523565b9392505050565b6060610857826114d2565b600082815260056020526040902061078290611560565b6108783384611523565b6108b7576040517f1294d2a9000000000000000000000000000000000000000000000000000000008152600481018490523360248201526044016101f7565b6108c4858585858561156d565b5050505050565b6060610782826117cd565b6108df826107de565b6001600160a01b0316336001600160a01b03161461094b57610900826107de565b6040517f5b271ea20000000000000000000000000000000000000000000000000000000081526001600160a01b039091166004820152602481018390523360448201526064016101f7565b600082815260096020526040902054339060ff16156109a8576040517f56d5acaf0000000000000000000000000000000000000000000000000000000081526001600160a01b0382166004820152602481018490526044016101f7565b6109b38184846112a9565b6109fb576040517fe73552b60000000000000000000000000000000000000000000000000000000081526001600160a01b0382166004820152602481018490526044016101f7565b5050600090815260096020526040902080547fffffffffffffffffffffffffffffffffffffffffffffffffffffffffffffff00166001179055565b6001600160a01b03811660009081526004602052604081206107829061186f565b610a5f611879565b610a6960006118ce565b565b8451845181141580610a7e575083518114155b80610a8a575082518114155b80610a96575081518114155b15610acd576040517f93a8311900000000000000000000000000000000000000000000000000000000815260040160405180910390fd5b60005b81811015610b6a57610b62878281518110610aed57610aed61321d565b6020026020010151878381518110610b0757610b0761321d565b6020026020010151878481518110610b2157610b2161321d565b6020026020010151878581518110610b3b57610b3b61321d565b6020026020010151878681518110610b5557610b5561321d565b602002602001015161086e565b600101610ad0565b50505050505050565b610b7b611879565b3415610bb3576040517ff36ba73700000000000000000000000000000000000000000000000000000000815260040160405180910390fd5b610bbd8282611954565b5050565b6000610bcc836107de565b90506001600160a01b0381163314610c28576040517f5b271ea20000000000000000000000000000000000000000000000000000000081526001600160a01b0382166004820152602481018490523360448201526064016101f7565b6001600160a01b038416610c68576040517f9577b8b300000000000000000000000000000000000000000000000000000000815260040160405180910390fd5b836001600160a01b0316816001600160a01b031603610cb3576040517f89fdad6200000000000000000000000000000000000000000000000000000000815260040160405180910390fd5b6000838152600560205260408120610ccb90866119b7565b905080610d16576040517fa7626b680000000000000000000000000000000000000000000000000000000081526001600160a01b0386166004820152602481018590526044016101f7565b83826001600160a01b0316866001600160a01b03167e52e433f2d4225671bc164dd1cdc9a76044356091f27ad234798bd0cbf0834986604051610d599190612bed565b60405180910390a460003385600186604051602001610d7b949392919061324c565b60408051601f198184030181529190529050610dc16001600160a01b0387167f8a1c15a8799f71b547e08e2bcb2e85257e81b0a07eee2ce6712549eef1f00970836119cc565b505050505050565b610dd1611879565b3415610e09576040517ff36ba73700000000000000000000000000000000000000000000000000000000815260040160405180910390fd5b8051825114610e44576040517f3bcc897900000000000000000000000000000000000000000000000000000000815260040160405180910390fd5b8151600003610e7f576040517f97da5f9500000000000000000000000000000000000000000000000000000000815260040160405180910390fd5b60005b8251811015610ecf57610ec7838281518110610ea057610ea061321d565b6020026020010151838381518110610eba57610eba61321d565b6020026020010151611954565b600101610e82565b505050565b60006108457f000000000000000000000000000000000000000000000000000000000000000083604051602001610f0d91815260200190565b6040516020818303038152906040528051906020012085611a989092919063ffffffff16565b6001600160a01b038116600090815260046020526040902060609061078290611560565b6000610f62846107de565b90506001600160a01b0381163314610fbe576040517f5b271ea20000000000000000000000000000000000000000000000000000000081526001600160a01b0382166004820152602481018590523360448201526064016101f7565b6001600160a01b038516610ffe576040517f9577b8b300000000000000000000000000000000000000000000000000000000815260040160405180910390fd5b846001600160a01b0316816001600160a01b031603611049576040517f89fdad6200000000000000000000000000000000000000000000000000000000815260040160405180910390fd5b6110568582868686611aae565b82156108c45760003385600085604051602001610d7b949392919061324c565b6060815167ffffffffffffffff81111561109257611092612a46565b6040519080825280602002602001820160405280156110c557816020015b60608152602001906001900390816110b05790505b50905060005b825181101561111b576110f68382815181106110e9576110e961321d565b60200260200101516117cd565b8282815181106111085761110861321d565b60209081029190910101526001016110cb565b50919050565b6000848152600a602052604090205433901561116c576040517f34c7b511000000000000000000000000000000000000000000000000000000008152600481018690526024016101f7565b6111778186866112a9565b6111bf576040517fe73552b60000000000000000000000000000000000000000000000000000000081526001600160a01b0382166004820152602481018690526044016101f7565b6111c98386610ed4565b611202576040517f461e0d36000000000000000000000000000000000000000000000000000000008152600481018690526024016101f7565b600085815260096020908152604080832080547fffffffffffffffffffffffffffffffffffffffffffffffffffffffffffffff00166001179055805191820190529081526108c490829087908590611b67565b61125d611879565b6001600160a01b03811661129d576040517f1ad8836c00000000000000000000000000000000000000000000000000000000815260040160405180910390fd5b6112a6816118ce565b50565b6000828152600a60209081526040808320548151606088901b7fffffffffffffffffffffffffffffffffffffffff000000000000000000000000168185015260348082019290925282518082039092018252605401909152805191012081806113128386611cff565b509150915080600381111561132957611329613286565b15611372576040517fe73552b60000000000000000000000000000000000000000000000000000000081526001600160a01b0388166004820152602481018790526044016101f7565b604080516001600160a01b0384166020820152879101604051602081830303815290604052805190602001201493505050509392505050565b600080806113fb7fcee78b4094da86011096000000000000000000000000000000000000000000007fffffffff000000000000000000000000000000000000000000000000000000008616611d4c565b90506000611408826117cd565b9050805160141415801561141c5750805115155b1561145557806040517f42bfe79f0000000000000000000000000000000000000000000000000000000081526004016101f79190612bed565b61145e816132b5565b60601c95600195509350505050565b60007fffffffff0000000000000000000000000000000000000000000000000000000082167f30dc52780000000000000000000000000000000000000000000000000000000014806114c357506114c382611dd0565b80610782575061078282611e26565b6000818152600360205260409020546001600160a01b03166112a6576040517fae8f9a36000000000000000000000000000000000000000000000000000000008152600481018290526024016101f7565b600061152e826107de565b6001600160a01b0316836001600160a01b03161480610845575060008281526005602052604090206108459084611e76565b6060600061084583611e98565b836001600160a01b0316856001600160a01b0316036115b8576040517f5d67d6c100000000000000000000000000000000000000000000000000000000815260040160405180910390fd5b60006115c3846107de565b9050856001600160a01b0316816001600160a01b03161461162a576040517f5b271ea20000000000000000000000000000000000000000000000000000000081526001600160a01b03808316600483015260248201869052871660448201526064016101f7565b6001600160a01b03851661166a576040517f24ecef4d00000000000000000000000000000000000000000000000000000000815260040160405180910390fd5b61167686868685611ef3565b61167f846107de565b905061168b8685611f6f565b6001600160a01b03861660009081526004602052604090206116ad9085611fc7565b506001600160a01b03851660009081526004602052604090206116d09085611fd3565b506000848152600360205260409081902080547fffffffffffffffffffffffff0000000000000000000000000000000000000000166001600160a01b0388811691821790925591518692918916907fb333c813a7426a7a11e2b190cad52c44119421594b47f6f32ace6d8c7207b2bf9061174f90339089908990613305565b60405180910390a461176386868685611fdf565b60008686868560405160200161177c9493929190613338565b60408051601f1981840301815291905290506117c26001600160a01b0388167fb23eae7e6d1564b295b4c3e3be402d9a2f0776c57bdf365903496f6fa481ab00836119cc565b610b6a868583612064565b60008181526001602052604090208054606091906117ea9061336a565b80601f01602080910402602001604051908101604052809291908181526020018280546118169061336a565b80156118635780601f1061183857610100808354040283529160200191611863565b820191906000526020600020905b81548152906001019060200180831161184657829003601f168201915b50505050509050919050565b6000610782825490565b3361188c6000546001600160a01b031690565b6001600160a01b031614610a69576040517fbf1169c50000000000000000000000000000000000000000000000000000000081523360048201526024016101f7565b6000546001600160a01b038281169116146112a657600080546040516001600160a01b03808516939216917f8be0079c531659141344cd1fd0a4f28419497f9722a3daafe3b4186f6b6457e091a3600080546001600160a01b0383167fffffffffffffffffffffffff000000000000000000000000000000000000000090911617905550565b7f8ea0db76a9218319a16b2627c940152b860818f29648e72b840184ff1fa4b01c82016119ad576040517f53bc112200000000000000000000000000000000000000000000000000000000815260040160405180910390fd5b610bbd8282612192565b6000610845836001600160a01b0384166122b8565b6119ff6001600160a01b0384167f6bb56a1400000000000000000000000000000000000000000000000000000000612307565b15610ecf576040517f6bb56a140000000000000000000000000000000000000000000000000000000081526001600160a01b03841690636bb56a1490611a4b90859085906004016133b7565b6000604051808303816000875af1158015611a6a573d6000803e3d6000fd5b505050506040513d6000823e601f3d908101601f19168201604052611a9291908101906133d0565b50505050565b600082611aa585846123d7565b14949350505050565b6000838152600560205260408120611ac69087612424565b905080611b11576040517f4aa31a8c0000000000000000000000000000000000000000000000000000000081526001600160a01b0387166004820152602481018590526044016101f7565b83856001600160a01b0316876001600160a01b03167f3ee932cea40ebbbfd8577d47156cc17cce8683802c57bbd1fb8c131c6f07af0a8686604051611b5792919061343e565b60405180910390a4505050505050565b6001600160a01b038416611ba7576040517f24ecef4d00000000000000000000000000000000000000000000000000000000815260040160405180910390fd5b611bb46000858584611ef3565b6000838152600360205260409020546001600160a01b031615611c06576040517f34c7b511000000000000000000000000000000000000000000000000000000008152600481018490526024016101f7565b600260008154611c1590613488565b909155506001600160a01b0384166000908152600460205260409020611c3b9084611fd3565b5060008381526003602052604080822080547fffffffffffffffffffffffff0000000000000000000000000000000000000000166001600160a01b03881690811790915590518592907fb333c813a7426a7a11e2b190cad52c44119421594b47f6f32ace6d8c7207b2bf90611cb590339088908890613305565b60405180910390a4611cca6000858584611fdf565b600080858584604051602001611ce39493929190613338565b60405160208183030381529060405290506108c4858483612064565b60008060008351604103611d395760208401516040850151606086015160001a611d2b88828585612439565b955095509550505050611d45565b50508151600091506002905b9250925092565b604080517fffffffffffffffffffff00000000000000000000000000000000000000000000841660208201526000602a82018190527fffffffffffffffffffffffffffffffffffffffff0000000000000000000000008416602c83015291829101604051602081830303815290604052905080611dc8906134c0565b949350505050565b60007fffffffff0000000000000000000000000000000000000000000000000000000082167fa918fa6b000000000000000000000000000000000000000000000000000000001480610782575061078282612508565b600080611e527f01ffc9a7000000000000000000000000000000000000000000000000000000006113ab565b5090506001600160a01b038116611e6c5750600092915050565b6108458184612307565b6001600160a01b03811660009081526001830160205260408120541515610845565b60608160000180548060200260200160405190810160405280929190818152602001828054801561186357602002820191906000526020600020905b815481526020019060010190808311611ed45750505050509050919050565b6001600160a01b03841615801590611f1a575060008281526009602052604090205460ff16155b15611f63576040517f906fb8a70000000000000000000000000000000000000000000000000000000081526001600160a01b0385166004820152602481018390526044016101f7565b611a928484848461259f565b600081815260056020526040812090611f878261186f565b90506000805b82811015610dc157611fa0846000612665565b9150611fbf828787600060405180602001604052806000815250611aae565b600101611f8d565b60006108458383612671565b600061084583836122b8565b6001600160a01b0384161561204c57600082815260096020908152604080832080547fffffffffffffffffffffffffffffffffffffffffffffffffffffffffffffff00169055600a909152902054612038906001613502565b6000838152600a6020526040902055611a92565b6000828152600a60205260409020600190555b611a92565b6120976001600160a01b0384167f6bb56a1400000000000000000000000000000000000000000000000000000000612307565b15612103576040517f6bb56a140000000000000000000000000000000000000000000000000000000081526001600160a01b03841690636bb56a1490611a4b907f0b084a55ebf70fd3c06fd755269dac2212c4d3f0f4d09079780bfa50c1b2984d9085906004016133b7565b81610ecf576001600160a01b0383163b15612155576040517f4349776d0000000000000000000000000000000000000000000000000000000081526001600160a01b03841660048201526024016101f7565b6040517f031731370000000000000000000000000000000000000000000000000000000081526001600160a01b03841660048201526024016101f7565b7f2145e1d6d074577dc71ef54c3807742b41b053a9352ae6b491331509acb9750f82016121eb576040517f85c169bd00000000000000000000000000000000000000000000000000000000815260040160405180910390fd5b7fd0f59754f88971fe6bc5a6618cc9d5f1e859c58d16b22d1c7b2d3e2b246cd8aa8201612244576040517f76755b3800000000000000000000000000000000000000000000000000000000815260040160405180910390fd5b600082815260016020526040902061225c828261355b565b50817fece574603820d07bc9b91f2a932baadf4628aabcb8afba49776529c14a6104b26101008351111561229d57612298836000610100612764565b61229f565b825b6040516122ac9190612bed565b60405180910390a25050565b60008181526001830160205260408120546122ff57508154600181810184556000848152602080822090930184905584548482528286019093526040902091909155610782565b506000610782565b6040517fffffffff0000000000000000000000000000000000000000000000000000000082166024820152600090819060440160408051601f19818403018152919052602080820180517bffffffffffffffffffffffffffffffffffffffffffffffffffffffff167f01ffc9a700000000000000000000000000000000000000000000000000000000178152825192935060009283928392909183918a617530fa92503d915060005190508280156123c0575060208210155b80156123cc5750600081115b979650505050505050565b600081815b845181101561241c57612408828683815181106123fb576123fb61321d565b60200260200101516128c0565b91508061241481613488565b9150506123dc565b509392505050565b6000610845836001600160a01b038416612671565b600080807f7fffffffffffffffffffffffffffffff5d576e7357a4501ddfe92f46681b20a084111561247457506000915060039050826124fe565b604080516000808252602082018084528a905260ff891692820192909252606081018790526080810186905260019060a0016020604051602081039080840390855afa1580156124c8573d6000803e3d6000fd5b5050604051601f1901519150506001600160a01b0381166124f4575060009250600191508290506124fe565b9250600091508190505b9450945094915050565b60007fffffffff0000000000000000000000000000000000000000000000000000000082167f629aa69400000000000000000000000000000000000000000000000000000000148061078257507f01ffc9a7000000000000000000000000000000000000000000000000000000007fffffffff00000000000000000000000000000000000000000000000000000000831614610782565b6001600160a01b0384166125d95760006125b860025490565b60008181526007602090815260408083208790558683526008909152902055505b6001600160a01b03831661205f57600060016125f460025490565b6125fe9190613657565b60008481526008602052604090205490915081811015612640576000828152600760209081526040808320548484528184208190558352600890915290208190555b5060009081526007602090815260408083208390558483526008909152812055611a92565b600061084583836128ef565b6000818152600183016020526040812054801561275a576000612695600183613657565b85549091506000906126a990600190613657565b905080821461270e5760008660000182815481106126c9576126c961321d565b90600052602060002001549050808760000184815481106126ec576126ec61321d565b6000918252602080832090910192909255918252600188019052604090208390555b855486908061271f5761271f61366a565b600190038181906000526020600020016000905590558560010160008681526020019081526020016000206000905560019350505050610782565b6000915050610782565b60608161277281601f613502565b10156127da576040517f08c379a000000000000000000000000000000000000000000000000000000000815260206004820152600e60248201527f736c6963655f6f766572666c6f7700000000000000000000000000000000000060448201526064016101f7565b6127e48284613502565b8451101561284e576040517f08c379a000000000000000000000000000000000000000000000000000000000815260206004820152601160248201527f736c6963655f6f75744f66426f756e647300000000000000000000000000000060448201526064016101f7565b60608215801561286d57604051915060008252602082016040526128b7565b6040519150601f8416801560200281840101858101878315602002848b0101015b818310156128a657805183526020928301920161288e565b5050858452601f01601f1916604052505b50949350505050565b60008183106128dc576000828152602084905260409020610845565b6000838152602083905260409020610845565b60008260000182815481106129065761290661321d565b9060005260206000200154905092915050565b60208152816020820152818360408301376000818301604090810191909152601f909201601f19160101919050565b60006020828403121561295a57600080fd5b81357fffffffff000000000000000000000000000000000000000000000000000000008116811461084557600080fd5b60006020828403121561299c57600080fd5b5035919050565b80356001600160a01b03811681146129ba57600080fd5b919050565b600080604083850312156129d257600080fd5b6129db836129a3565b946020939093013593505050565b6020808252825182820181905260009190848201906040850190845b81811015612a2a5783516001600160a01b031683529284019291840191600101612a05565b50909695505050505050565b803580151581146129ba57600080fd5b7f4e487b7100000000000000000000000000000000000000000000000000000000600052604160045260246000fd5b604051601f8201601f1916810167ffffffffffffffff81118282101715612a9e57612a9e612a46565b604052919050565b600067ffffffffffffffff821115612ac057612ac0612a46565b50601f01601f191660200190565b600082601f830112612adf57600080fd5b8135612af2612aed82612aa6565b612a75565b818152846020838601011115612b0757600080fd5b816020850160208301376000918101602001919091529392505050565b600080600080600060a08688031215612b3c57600080fd5b612b45866129a3565b9450612b53602087016129a3565b935060408601359250612b6860608701612a36565b9150608086013567ffffffffffffffff811115612b8457600080fd5b612b9088828901612ace565b9150509295509295909350565b60005b83811015612bb8578181015183820152602001612ba0565b50506000910152565b60008151808452612bd9816020860160208601612b9d565b601f01601f19169290920160200192915050565b6020815260006108456020830184612bc1565b60008060408385031215612c1357600080fd5b82359150602083013567ffffffffffffffff811115612c3157600080fd5b612c3d85828601612ace565b9150509250929050565b600060208284031215612c5957600080fd5b610845826129a3565b600067ffffffffffffffff821115612c7c57612c7c612a46565b5060051b60200190565b600082601f830112612c9757600080fd5b81356020612ca7612aed83612c62565b82815260059290921b84018101918181019086841115612cc657600080fd5b8286015b84811015612ce857612cdb816129a3565b8352918301918301612cca565b509695505050505050565b600082601f830112612d0457600080fd5b81356020612d14612aed83612c62565b82815260059290921b84018101918181019086841115612d3357600080fd5b8286015b84811015612ce85780358352918301918301612d37565b600082601f830112612d5f57600080fd5b81356020612d6f612aed83612c62565b82815260059290921b84018101918181019086841115612d8e57600080fd5b8286015b84811015612ce857612da381612a36565b8352918301918301612d92565b600082601f830112612dc157600080fd5b81356020612dd1612aed83612c62565b82815260059290921b84018101918181019086841115612df057600080fd5b8286015b84811015612ce857803567ffffffffffffffff811115612e145760008081fd5b612e228986838b0101612ace565b845250918301918301612df4565b600080600080600060a08688031215612e4857600080fd5b853567ffffffffffffffff80821115612e6057600080fd5b612e6c89838a01612c86565b96506020880135915080821115612e8257600080fd5b612e8e89838a01612c86565b95506040880135915080821115612ea457600080fd5b612eb089838a01612cf3565b94506060880135915080821115612ec657600080fd5b612ed289838a01612d4e565b93506080880135915080821115612ee857600080fd5b50612b9088828901612db0565b600080600060608486031215612f0a57600080fd5b612f13846129a3565b925060208401359150604084013567ffffffffffffffff811115612f3657600080fd5b612f4286828701612ace565b9150509250925092565b60008060408385031215612f5f57600080fd5b823567ffffffffffffffff80821115612f7757600080fd5b612f8386838701612cf3565b93506020850135915080821115612f9957600080fd5b50612c3d85828601612db0565b60008060408385031215612fb957600080fd5b823567ffffffffffffffff811115612fd057600080fd5b612fdc85828601612cf3565b95602094909401359450505050565b6020808252825182820181905260009190848201906040850190845b81811015612a2a57835183529284019291840191600101613007565b6000806000806080858703121561303957600080fd5b613042856129a3565b93506020850135925061305760408601612a36565b9150606085013567ffffffffffffffff81111561307357600080fd5b61307f87828801612ace565b91505092959194509250565b60006020828403121561309d57600080fd5b813567ffffffffffffffff8111156130b457600080fd5b611dc884828501612cf3565b6000602080830181845280855180835260408601915060408160051b870101925083870160005b82811015613133577fffffffffffffffffffffffffffffffffffffffffffffffffffffffffffffffc0888603018452613121858351612bc1565b945092850192908501906001016130e7565b5092979650505050505050565b6000806000806080858703121561315657600080fd5b84359350602085013567ffffffffffffffff8082111561317557600080fd5b61318188838901612ace565b9450604087013591508082111561319757600080fd5b506131a487828801612cf3565b9250506131b360608601612a36565b905092959194509250565b8385823760609290921b7fffffffffffffffffffffffffffffffffffffffff00000000000000000000000016919092019081526014810191909152603401919050565b60008251613213818460208701612b9d565b9190910192915050565b7f4e487b7100000000000000000000000000000000000000000000000000000000600052603260045260246000fd5b6001600160a01b0385168152836020820152821515604082015260806060820152600061327c6080830184612bc1565b9695505050505050565b7f4e487b7100000000000000000000000000000000000000000000000000000000600052602160045260246000fd5b6000815160208301517fffffffffffffffffffffffffffffffffffffffff000000000000000000000000808216935060148310156132fd5780818460140360031b1b83161693505b505050919050565b6001600160a01b0384168152821515602082015260606040820152600061332f6060830184612bc1565b95945050505050565b60006001600160a01b0380871683528086166020840152508360408301526080606083015261327c6080830184612bc1565b600181811c9082168061337e57607f821691505b60208210810361111b577f4e487b7100000000000000000000000000000000000000000000000000000000600052602260045260246000fd5b828152604060208201526000611dc86040830184612bc1565b6000602082840312156133e257600080fd5b815167ffffffffffffffff8111156133f957600080fd5b8201601f8101841361340a57600080fd5b8051613418612aed82612aa6565b81815285602083850101111561342d57600080fd5b61332f826020830160208601612b9d565b8215158152604060208201526000611dc86040830184612bc1565b7f4e487b7100000000000000000000000000000000000000000000000000000000600052601160045260246000fd5b60007fffffffffffffffffffffffffffffffffffffffffffffffffffffffffffffffff82036134b9576134b9613459565b5060010190565b8051602080830151919081101561111b577fffffffffffffffffffffffffffffffffffffffffffffffffffffffffffffffff60209190910360031b1b16919050565b8082018082111561078257610782613459565b601f821115610ecf57600081815260208120601f850160051c8101602086101561353c5750805b601f850160051c820191505b81811015610dc157828155600101613548565b815167ffffffffffffffff81111561357557613575612a46565b61358981613583845461336a565b84613515565b602080601f8311600181146135dc57600084156135a65750858301515b7fffffffffffffffffffffffffffffffffffffffffffffffffffffffffffffffff600386901b1c1916600185901b178555610dc1565b600085815260208120601f198616915b8281101561360b578886015182559484019460019091019084016135ec565b508582101561364757878501517fffffffffffffffffffffffffffffffffffffffffffffffffffffffffffffffff600388901b60f8161c191681555b5050505050600190811b01905550565b8181038181111561078257610782613459565b7f4e487b7100000000000000000000000000000000000000000000000000000000600052603160045260246000fdfea26469706673582212205d772fd69dc6e036c4c46d470485ee5f94dd3c2068ed6e823e5f88daf21e95fe64736f6c63430008140033ece574603820d07bc9b91f2a932baadf4628aabcb8afba49776529c14a6104b2",
  "linkReferences": {},
  "deployedLinkReferences": {}
}