{
  "_format": "hh-sol-artifact-1",
  "contractName": "PhygitalAsset",
  "sourceName": "contracts/PhygitalAsset.sol",
  "abi": [
    {
      "inputs": [
        {
          "internalType": "bytes32",
          "name": "merkleRootOfCollection_",
          "type": "bytes32"
        },
        {
          "internalType": "bytes",
          "name": "collectionJSONURL_",
          "type": "bytes"
        },
        {
          "internalType": "string",
          "name": "name_",
          "type": "string"
        },
        {
          "internalType": "string",
          "name": "symbol_",
          "type": "string"
        },
        {
          "internalType": "bytes",
          "name": "metadataJSONURL_",
          "type": "bytes"
        },
        {
          "internalType": "address",
          "name": "collectionOwner_",
          "type": "address"
        }
      ],
      "stateMutability": "nonpayable",
      "type": "constructor"
    },
    {
      "inputs": [],
      "name": "ERC725Y_DataKeysValuesEmptyArray",
      "type": "error"
    },
    {
      "inputs": [],
      "name": "ERC725Y_DataKeysValuesLengthMismatch",
      "type": "error"
    },
    {
      "inputs": [],
      "name": "ERC725Y_MsgValueDisallowed",
      "type": "error"
    },
    {
      "inputs": [
        {
          "internalType": "bytes",
          "name": "storedData",
          "type": "bytes"
        }
      ],
      "name": "InvalidExtensionAddress",
      "type": "error"
    },
    {
      "inputs": [
        {
          "internalType": "bytes",
          "name": "data",
          "type": "bytes"
        }
      ],
      "name": "InvalidFunctionSelector",
      "type": "error"
    },
    {
      "inputs": [],
      "name": "LSP4TokenNameNotEditable",
      "type": "error"
    },
    {
      "inputs": [],
      "name": "LSP4TokenSymbolNotEditable",
      "type": "error"
    },
    {
      "inputs": [],
      "name": "LSP8CannotSendToAddressZero",
      "type": "error"
    },
    {
      "inputs": [],
      "name": "LSP8CannotSendToSelf",
      "type": "error"
    },
    {
      "inputs": [],
      "name": "LSP8CannotUseAddressZeroAsOperator",
      "type": "error"
    },
    {
      "inputs": [],
      "name": "LSP8InvalidTransferBatch",
      "type": "error"
    },
    {
      "inputs": [
        {
          "internalType": "bytes32",
          "name": "tokenId",
          "type": "bytes32"
        }
      ],
      "name": "LSP8NonExistentTokenId",
      "type": "error"
    },
    {
      "inputs": [
        {
          "internalType": "address",
          "name": "operator",
          "type": "address"
        },
        {
          "internalType": "bytes32",
          "name": "tokenId",
          "type": "bytes32"
        }
      ],
      "name": "LSP8NonExistingOperator",
      "type": "error"
    },
    {
      "inputs": [
        {
          "internalType": "bytes32",
          "name": "tokenId",
          "type": "bytes32"
        },
        {
          "internalType": "address",
          "name": "caller",
          "type": "address"
        }
      ],
      "name": "LSP8NotTokenOperator",
      "type": "error"
    },
    {
      "inputs": [
        {
          "internalType": "address",
          "name": "tokenOwner",
          "type": "address"
        },
        {
          "internalType": "bytes32",
          "name": "tokenId",
          "type": "bytes32"
        },
        {
          "internalType": "address",
          "name": "caller",
          "type": "address"
        }
      ],
      "name": "LSP8NotTokenOwner",
      "type": "error"
    },
    {
      "inputs": [
        {
          "internalType": "address",
          "name": "tokenReceiver",
          "type": "address"
        }
      ],
      "name": "LSP8NotifyTokenReceiverContractMissingLSP1Interface",
      "type": "error"
    },
    {
      "inputs": [
        {
          "internalType": "address",
          "name": "tokenReceiver",
          "type": "address"
        }
      ],
      "name": "LSP8NotifyTokenReceiverIsEOA",
      "type": "error"
    },
    {
      "inputs": [
        {
          "internalType": "address",
          "name": "operator",
          "type": "address"
        },
        {
          "internalType": "bytes32",
          "name": "tokenId",
          "type": "bytes32"
        }
      ],
      "name": "LSP8OperatorAlreadyAuthorized",
      "type": "error"
    },
    {
      "inputs": [],
      "name": "LSP8TokenContractCannotHoldValue",
      "type": "error"
    },
    {
      "inputs": [
        {
          "internalType": "bytes32",
          "name": "tokenId",
          "type": "bytes32"
        }
      ],
      "name": "LSP8TokenIdAlreadyMinted",
      "type": "error"
    },
    {
      "inputs": [],
      "name": "LSP8TokenIdTypeNotEditable",
      "type": "error"
    },
    {
      "inputs": [],
      "name": "LSP8TokenOwnerCannotBeOperator",
      "type": "error"
    },
    {
      "inputs": [
        {
          "internalType": "bytes4",
          "name": "functionSelector",
          "type": "bytes4"
        }
      ],
      "name": "NoExtensionFoundForFunctionSelector",
      "type": "error"
    },
    {
      "inputs": [
        {
          "internalType": "address",
          "name": "callerAddress",
          "type": "address"
        }
      ],
      "name": "OwnableCallerNotTheOwner",
      "type": "error"
    },
    {
      "inputs": [],
      "name": "OwnableCannotSetZeroAddressAsOwner",
      "type": "error"
    },
    {
      "inputs": [
        {
          "internalType": "address",
          "name": "owner",
          "type": "address"
        },
        {
          "internalType": "bytes32",
          "name": "phygitalId",
          "type": "bytes32"
        }
      ],
      "name": "PhygitalAssetHasAlreadyAVerifiedOwnership",
      "type": "error"
    },
    {
      "inputs": [
        {
          "internalType": "address",
          "name": "owner",
          "type": "address"
        },
        {
          "internalType": "bytes32",
          "name": "phygitalId",
          "type": "bytes32"
        }
      ],
      "name": "PhygitalAssetHasAnUnverifiedOwnership",
      "type": "error"
    },
    {
      "inputs": [
        {
          "internalType": "uint256",
          "name": "phygitalIndex",
          "type": "uint256"
        },
        {
          "internalType": "bytes32",
          "name": "phygitalId",
          "type": "bytes32"
        }
      ],
      "name": "PhygitalAssetIsNotPartOfCollection",
      "type": "error"
    },
    {
      "inputs": [
        {
          "internalType": "address",
          "name": "owner",
          "type": "address"
        },
        {
          "internalType": "bytes32",
          "name": "phygitalId",
          "type": "bytes32"
        }
      ],
      "name": "PhygitalAssetOwnershipVerificationFailed",
      "type": "error"
    },
    {
      "anonymous": false,
      "inputs": [
        {
          "indexed": true,
          "internalType": "address",
          "name": "operator",
          "type": "address"
        },
        {
          "indexed": true,
          "internalType": "address",
          "name": "tokenOwner",
          "type": "address"
        },
        {
          "indexed": true,
          "internalType": "bytes32",
          "name": "tokenId",
          "type": "bytes32"
        },
        {
          "indexed": false,
          "internalType": "bytes",
          "name": "operatorNotificationData",
          "type": "bytes"
        }
      ],
      "name": "AuthorizedOperator",
      "type": "event"
    },
    {
      "anonymous": false,
      "inputs": [
        {
          "indexed": true,
          "internalType": "bytes32",
          "name": "dataKey",
          "type": "bytes32"
        },
        {
          "indexed": false,
          "internalType": "bytes",
          "name": "dataValue",
          "type": "bytes"
        }
      ],
      "name": "DataChanged",
      "type": "event"
    },
    {
      "anonymous": false,
      "inputs": [
        {
          "indexed": true,
          "internalType": "address",
          "name": "previousOwner",
          "type": "address"
        },
        {
          "indexed": true,
          "internalType": "address",
          "name": "newOwner",
          "type": "address"
        }
      ],
      "name": "OwnershipTransferred",
      "type": "event"
    },
    {
      "anonymous": false,
      "inputs": [
        {
          "indexed": true,
          "internalType": "address",
          "name": "operator",
          "type": "address"
        },
        {
          "indexed": true,
          "internalType": "address",
          "name": "tokenOwner",
          "type": "address"
        },
        {
          "indexed": true,
          "internalType": "bytes32",
          "name": "tokenId",
          "type": "bytes32"
        },
        {
          "indexed": false,
          "internalType": "bool",
          "name": "notified",
          "type": "bool"
        },
        {
          "indexed": false,
          "internalType": "bytes",
          "name": "operatorNotificationData",
          "type": "bytes"
        }
      ],
      "name": "RevokedOperator",
      "type": "event"
    },
    {
      "anonymous": false,
      "inputs": [
        {
          "indexed": false,
          "internalType": "address",
          "name": "operator",
          "type": "address"
        },
        {
          "indexed": true,
          "internalType": "address",
          "name": "from",
          "type": "address"
        },
        {
          "indexed": true,
          "internalType": "address",
          "name": "to",
          "type": "address"
        },
        {
          "indexed": true,
          "internalType": "bytes32",
          "name": "tokenId",
          "type": "bytes32"
        },
        {
          "indexed": false,
          "internalType": "bool",
          "name": "force",
          "type": "bool"
        },
        {
          "indexed": false,
          "internalType": "bytes",
          "name": "data",
          "type": "bytes"
        }
      ],
      "name": "Transfer",
      "type": "event"
    },
    {
      "stateMutability": "payable",
      "type": "fallback"
    },
    {
      "inputs": [
        {
          "internalType": "bytes32[]",
          "name": "merkleProofOfCollection",
          "type": "bytes32[]"
        },
        {
          "internalType": "bytes32",
          "name": "phygitalId",
          "type": "bytes32"
        },
        {
          "internalType": "uint256",
          "name": "phygitalIndex",
          "type": "uint256"
        }
      ],
      "name": "_isPhygitalPartOfCollection",
      "outputs": [
        {
          "internalType": "bool",
          "name": "",
          "type": "bool"
        }
      ],
      "stateMutability": "view",
      "type": "function"
    },
    {
      "inputs": [
        {
          "internalType": "address",
          "name": "phygitalOwner",
          "type": "address"
        },
        {
          "internalType": "bytes32",
          "name": "phygitalId",
          "type": "bytes32"
        },
        {
          "internalType": "bytes",
          "name": "phygitalSignature",
          "type": "bytes"
        }
      ],
      "name": "_verifyPhygitalOwnership",
      "outputs": [
        {
          "internalType": "bool",
          "name": "",
          "type": "bool"
        }
      ],
      "stateMutability": "pure",
      "type": "function"
    },
    {
      "inputs": [
        {
          "internalType": "address",
          "name": "operator",
          "type": "address"
        },
        {
          "internalType": "bytes32",
          "name": "tokenId",
          "type": "bytes32"
        },
        {
          "internalType": "bytes",
          "name": "operatorNotificationData",
          "type": "bytes"
        }
      ],
      "name": "authorizeOperator",
      "outputs": [],
      "stateMutability": "nonpayable",
      "type": "function"
    },
    {
      "inputs": [
        {
          "internalType": "address",
          "name": "tokenOwner",
          "type": "address"
        }
      ],
      "name": "balanceOf",
      "outputs": [
        {
          "internalType": "uint256",
          "name": "",
          "type": "uint256"
        }
      ],
      "stateMutability": "view",
      "type": "function"
    },
    {
      "inputs": [
        {
          "internalType": "bytes32",
          "name": "dataKey",
          "type": "bytes32"
        }
      ],
      "name": "getData",
      "outputs": [
        {
          "internalType": "bytes",
          "name": "dataValue",
          "type": "bytes"
        }
      ],
      "stateMutability": "view",
      "type": "function"
    },
    {
      "inputs": [
        {
          "internalType": "bytes32[]",
          "name": "dataKeys",
          "type": "bytes32[]"
        }
      ],
      "name": "getDataBatch",
      "outputs": [
        {
          "internalType": "bytes[]",
          "name": "dataValues",
          "type": "bytes[]"
        }
      ],
      "stateMutability": "view",
      "type": "function"
    },
    {
      "inputs": [
        {
          "internalType": "bytes32",
          "name": "tokenId",
          "type": "bytes32"
        }
      ],
      "name": "getOperatorsOf",
      "outputs": [
        {
          "internalType": "address[]",
          "name": "",
          "type": "address[]"
        }
      ],
      "stateMutability": "view",
      "type": "function"
    },
    {
      "inputs": [
        {
          "internalType": "address",
          "name": "operator",
          "type": "address"
        },
        {
          "internalType": "bytes32",
          "name": "tokenId",
          "type": "bytes32"
        }
      ],
      "name": "isOperatorFor",
      "outputs": [
        {
          "internalType": "bool",
          "name": "",
          "type": "bool"
        }
      ],
      "stateMutability": "view",
      "type": "function"
    },
    {
      "inputs": [],
      "name": "merkleRootOfCollection",
      "outputs": [
        {
          "internalType": "bytes32",
          "name": "",
          "type": "bytes32"
        }
      ],
      "stateMutability": "view",
      "type": "function"
    },
    {
      "inputs": [
        {
          "internalType": "bytes32",
          "name": "phygitalId",
          "type": "bytes32"
        },
        {
          "internalType": "uint256",
          "name": "phygitalIndex",
          "type": "uint256"
        },
        {
          "internalType": "bytes",
          "name": "phygitalSignature",
          "type": "bytes"
        },
        {
          "internalType": "bytes32[]",
          "name": "merkleProofOfCollection",
          "type": "bytes32[]"
        },
        {
          "internalType": "bool",
          "name": "force",
          "type": "bool"
        }
      ],
      "name": "mint",
      "outputs": [],
      "stateMutability": "nonpayable",
      "type": "function"
    },
    {
      "inputs": [],
      "name": "owner",
      "outputs": [
        {
          "internalType": "address",
          "name": "",
          "type": "address"
        }
      ],
      "stateMutability": "view",
      "type": "function"
    },
    {
      "inputs": [],
      "name": "renounceOwnership",
      "outputs": [],
      "stateMutability": "nonpayable",
      "type": "function"
    },
    {
      "inputs": [
        {
          "internalType": "address",
          "name": "operator",
          "type": "address"
        },
        {
          "internalType": "bytes32",
          "name": "tokenId",
          "type": "bytes32"
        },
        {
          "internalType": "bool",
          "name": "notify",
          "type": "bool"
        },
        {
          "internalType": "bytes",
          "name": "operatorNotificationData",
          "type": "bytes"
        }
      ],
      "name": "revokeOperator",
      "outputs": [],
      "stateMutability": "nonpayable",
      "type": "function"
    },
    {
      "inputs": [
        {
          "internalType": "bytes32",
          "name": "dataKey",
          "type": "bytes32"
        },
        {
          "internalType": "bytes",
          "name": "dataValue",
          "type": "bytes"
        }
      ],
      "name": "setData",
      "outputs": [],
      "stateMutability": "payable",
      "type": "function"
    },
    {
      "inputs": [
        {
          "internalType": "bytes32[]",
          "name": "dataKeys",
          "type": "bytes32[]"
        },
        {
          "internalType": "bytes[]",
          "name": "dataValues",
          "type": "bytes[]"
        }
      ],
      "name": "setDataBatch",
      "outputs": [],
      "stateMutability": "payable",
      "type": "function"
    },
    {
      "inputs": [
        {
          "internalType": "bytes4",
          "name": "interfaceId",
          "type": "bytes4"
        }
      ],
      "name": "supportsInterface",
      "outputs": [
        {
          "internalType": "bool",
          "name": "",
          "type": "bool"
        }
      ],
      "stateMutability": "view",
      "type": "function"
    },
    {
      "inputs": [
        {
          "internalType": "uint256",
          "name": "index",
          "type": "uint256"
        }
      ],
      "name": "tokenAt",
      "outputs": [
        {
          "internalType": "bytes32",
          "name": "",
          "type": "bytes32"
        }
      ],
      "stateMutability": "view",
      "type": "function"
    },
    {
      "inputs": [
        {
          "internalType": "address",
          "name": "tokenOwner",
          "type": "address"
        }
      ],
      "name": "tokenIdsOf",
      "outputs": [
        {
          "internalType": "bytes32[]",
          "name": "",
          "type": "bytes32[]"
        }
      ],
      "stateMutability": "view",
      "type": "function"
    },
    {
      "inputs": [
        {
          "internalType": "bytes32",
          "name": "tokenId",
          "type": "bytes32"
        }
      ],
      "name": "tokenOwnerOf",
      "outputs": [
        {
          "internalType": "address",
          "name": "",
          "type": "address"
        }
      ],
      "stateMutability": "view",
      "type": "function"
    },
    {
      "inputs": [],
      "name": "totalSupply",
      "outputs": [
        {
          "internalType": "uint256",
          "name": "",
          "type": "uint256"
        }
      ],
      "stateMutability": "view",
      "type": "function"
    },
    {
      "inputs": [
        {
          "internalType": "address",
          "name": "from",
          "type": "address"
        },
        {
          "internalType": "address",
          "name": "to",
          "type": "address"
        },
        {
          "internalType": "bytes32",
          "name": "tokenId",
          "type": "bytes32"
        },
        {
          "internalType": "bool",
          "name": "force",
          "type": "bool"
        },
        {
          "internalType": "bytes",
          "name": "data",
          "type": "bytes"
        }
      ],
      "name": "transfer",
      "outputs": [],
      "stateMutability": "nonpayable",
      "type": "function"
    },
    {
      "inputs": [
        {
          "internalType": "address[]",
          "name": "from",
          "type": "address[]"
        },
        {
          "internalType": "address[]",
          "name": "to",
          "type": "address[]"
        },
        {
          "internalType": "bytes32[]",
          "name": "tokenId",
          "type": "bytes32[]"
        },
        {
          "internalType": "bool[]",
          "name": "force",
          "type": "bool[]"
        },
        {
          "internalType": "bytes[]",
          "name": "data",
          "type": "bytes[]"
        }
      ],
      "name": "transferBatch",
      "outputs": [],
      "stateMutability": "nonpayable",
      "type": "function"
    },
    {
      "inputs": [
        {
          "internalType": "address",
          "name": "newOwner",
          "type": "address"
        }
      ],
      "name": "transferOwnership",
      "outputs": [],
      "stateMutability": "nonpayable",
      "type": "function"
    },
    {
      "inputs": [
        {
          "internalType": "bytes32",
          "name": "",
          "type": "bytes32"
        }
      ],
      "name": "verifiedOwnership",
      "outputs": [
        {
          "internalType": "bool",
          "name": "",
          "type": "bool"
        }
      ],
      "stateMutability": "view",
      "type": "function"
    },
    {
      "inputs": [
        {
          "internalType": "bytes32",
          "name": "phygitalId",
          "type": "bytes32"
        },
        {
          "internalType": "bytes",
          "name": "phygitalSignature",
          "type": "bytes"
        }
      ],
      "name": "verifyOwnershipAfterTransfer",
      "outputs": [],
      "stateMutability": "nonpayable",
      "type": "function"
    },
    {
      "inputs": [],
      "name": "version",
      "outputs": [
        {
          "internalType": "string",
          "name": "",
          "type": "string"
        }
      ],
      "stateMutability": "view",
      "type": "function"
    },
    {
      "stateMutability": "payable",
      "type": "receive"
    }
  ],
  "bytecode": "0x60a06040523480156200001157600080fd5b5060405162003fe238038062003fe2833981016040819052620000349162000632565b838333600383838380806200005c576040516306b620db60e21b815260040160405180910390fd5b6200006781620001cc565b506040805180820190915260048152632936598960e21b6020820152620000b0907feafec4d89fa9619884b60000a4d96624a38f7ac2d8d9a604ecf07c12c77e480c906200023a565b620000dc7fdeba1e292f8ba88238e10ab3c7f88bd4be4fac56cad5194b6ecceaf653468af1846200023a565b620001087f2f0a68ab07768e01943a599e73362a0e17a63a72e94dd2e384d2c1d4db932756836200023a565b505060408051602081018490526200015492507f715f248956de7ce65e94d9d836bfead479f7e70d69b718d47bfe7b00e05b4fe4910160408051601f1981840301815291905262000282565b505050608087905250620001897f4eff76d745d12fd5e5f7b38e8f396dd0d099124739e69a289ca1faa7ebc537688662000367565b620001b57f9afb95cacc9f95858ec44aa8c3b685511002e30ae54415823f406128b85b238e83620003b4565b620001c081620001cc565b505050505050620008bf565b6000546001600160a01b038281169116146200023757600080546040516001600160a01b03808516939216917f8be0079c531659141344cd1fd0a4f28419497f9722a3daafe3b4186f6b6457e091a3600080546001600160a01b0319166001600160a01b0383161790555b50565b600082815260016020526040902062000254828262000796565b508160008051602062003fc28339815191528260405162000276919062000862565b60405180910390a25050565b7f2145e1d6d074577dc71ef54c3807742b41b053a9352ae6b491331509acb9750f8201620002c3576040516385c169bd60e01b815260040160405180910390fd5b7fd0f59754f88971fe6bc5a6618cc9d5f1e859c58d16b22d1c7b2d3e2b246cd8aa82016200030457604051630eceab6760e31b815260040160405180910390fd5b60008281526001602052604090206200031e828262000796565b508160008051602062003fc28339815191526101008351111562000352576200034c836000610100620003ea565b62000354565b825b60405162000276919062000862565b5050565b7f8ea0db76a9218319a16b2627c940152b860818f29648e72b840184ff1fa4b01c8201620003a8576040516329de089160e11b815260040160405180910390fd5b62000363828262000282565b620003be62000507565b3415620003de5760405163f36ba73760e01b815260040160405180910390fd5b62000363828262000367565b606081620003fa81601f62000897565b10156200043f5760405162461bcd60e51b815260206004820152600e60248201526d736c6963655f6f766572666c6f7760901b60448201526064015b60405180910390fd5b6200044b828462000897565b84511015620004915760405162461bcd60e51b8152602060048201526011602482015270736c6963655f6f75744f66426f756e647360781b604482015260640162000436565b606082158015620004b25760405191506000825260208201604052620004fe565b6040519150601f8416801560200281840101858101878315602002848b0101015b81831015620004ed578051835260209283019201620004d3565b5050858452601f01601f1916604052505b50949350505050565b336200051b6000546001600160a01b031690565b6001600160a01b031614620005465760405163bf1169c560e01b815233600482015260240162000436565b565b634e487b7160e01b600052604160045260246000fd5b60005b838110156200057b57818101518382015260200162000561565b50506000910152565b600082601f8301126200059657600080fd5b81516001600160401b0380821115620005b357620005b362000548565b604051601f8301601f19908116603f01168101908282118183101715620005de57620005de62000548565b81604052838152866020858801011115620005f857600080fd5b6200060b8460208301602089016200055e565b9695505050505050565b80516001600160a01b03811681146200062d57600080fd5b919050565b60008060008060008060c087890312156200064c57600080fd5b865160208801519096506001600160401b03808211156200066c57600080fd5b6200067a8a838b0162000584565b965060408901519150808211156200069157600080fd5b6200069f8a838b0162000584565b95506060890151915080821115620006b657600080fd5b620006c48a838b0162000584565b94506080890151915080821115620006db57600080fd5b50620006ea89828a0162000584565b925050620006fb60a0880162000615565b90509295509295509295565b600181811c908216806200071c57607f821691505b6020821081036200073d57634e487b7160e01b600052602260045260246000fd5b50919050565b601f8211156200079157600081815260208120601f850160051c810160208610156200076c5750805b601f850160051c820191505b818110156200078d5782815560010162000778565b5050505b505050565b81516001600160401b03811115620007b257620007b262000548565b620007ca81620007c3845462000707565b8462000743565b602080601f831160018114620008025760008415620007e95750858301515b600019600386901b1c1916600185901b1785556200078d565b600085815260208120601f198616915b82811015620008335788860151825594840194600190910190840162000812565b5085821015620008525787850151600019600388901b60f8161c191681555b5050505050600190811b01905550565b6020815260008251806020840152620008838160408501602087016200055e565b601f01601f19169190910160400192915050565b80820180821115620008b957634e487b7160e01b600052601160045260246000fd5b92915050565b6080516136e0620008e2600039600081816102d301526110c501526136e06000f3fe6080604052600436106101a55760003560e01c8063715018a6116100e1578063979024211161008a578063db8c966311610064578063db8c9663146105d5578063dedff9c6146105f5578063f2fde38b14610622578063fa8dc2341461064257610232565b80639790242114610575578063a3b261f214610588578063c414c9df146105b557610232565b806386a10ddd116100bb57806386a10ddd1461050a5780638da5cb5b1461052a57806392a91a3a1461054857610232565b8063715018a6146104c25780637e87632c146104d75780637f23690c146104f757610232565b806349a6078d1161014e57806354f6127f1161012857806354f6127f1461040f57806354fd4d501461043c57806365090a4b1461048257806370a08231146104a257610232565b806349a6078d146103925780634d55c5a4146103bf578063511b6952146103ef57610232565b80631e3e39151161017f5780631e3e391514610318578063217b22701461033a5780632a3654a41461037257610232565b806301ffc9a71461028c57806307c79bb2146102c157806318160ddd1461030357610232565b366102325734600003610200576040517fe5099ee30000000000000000000000000000000000000000000000000000000081526004016101f79060208082526004908201526000604082015260600190565b60405180910390fd5b6040517f61f4944200000000000000000000000000000000000000000000000000000000815260040160405180910390fd5b600036606060048210156102765782826040517fe5099ee30000000000000000000000000000000000000000000000000000000081526004016101f79291906128c0565b6102808383610662565b80519350602001915050f35b34801561029857600080fd5b506102ac6102a73660046128ef565b6107a1565b60405190151581526020015b60405180910390f35b3480156102cd57600080fd5b506102f57f000000000000000000000000000000000000000000000000000000000000000081565b6040519081526020016102b8565b34801561030f57600080fd5b506002546102f5565b34801561032457600080fd5b50610338610333366004612aae565b6107f7565b005b34801561034657600080fd5b5061035a610355366004612b36565b6108f1565b6040516001600160a01b0390911681526020016102b8565b34801561037e57600080fd5b506102ac61038d366004612b66565b610943565b34801561039e57600080fd5b506103b26103ad366004612b36565b61095f565b6040516102b89190612b90565b3480156103cb57600080fd5b506102ac6103da366004612b36565b60096020526000908152604090205460ff1681565b3480156103fb57600080fd5b5061033861040a366004612bdd565b610981565b34801561041b57600080fd5b5061042f61042a366004612b36565b6109de565b6040516102b89190612ca6565b34801561044857600080fd5b5060408051808201909152600681527f302e31322e300000000000000000000000000000000000000000000000000000602082015261042f565b34801561048e57600080fd5b5061033861049d366004612cb9565b6109e9565b3480156104ae57600080fd5b506102f56104bd366004612d00565b610b49565b3480156104ce57600080fd5b50610338610b6a565b3480156104e357600080fd5b506103386104f2366004612e5f565b610b7e565b610338610505366004612cb9565b610c86565b34801561051657600080fd5b50610338610525366004612f24565b610cd4565b34801561053657600080fd5b506000546001600160a01b031661035a565b34801561055457600080fd5b506102f5610563366004612b36565b60009081526007602052604090205490565b610338610583366004612f7b565b610ed4565b34801561059457600080fd5b506105a86105a3366004612d00565b610fdf565b6040516102b89190612fd5565b3480156105c157600080fd5b506102ac6105d036600461300d565b611003565b3480156105e157600080fd5b506103386105f036600461305b565b6110ed565b34801561060157600080fd5b506106156106103660046130c3565b61120c565b6040516102b891906130f8565b34801561062e57600080fd5b5061033861063d366004612d00565b6112b7565b34801561064e57600080fd5b506102ac61065d366004612f24565b61130b565b606060006106936000357fffffffff0000000000000000000000000000000000000000000000000000000016611420565b5090506001600160a01b0381166106fc576040517fbb370b2b0000000000000000000000000000000000000000000000000000000081527fffffffff000000000000000000000000000000000000000000000000000000006000351660048201526024016101f7565b600080826001600160a01b031634878733346040516020016107219493929190613178565b60408051601f198184030181529082905261073b916131bb565b60006040518083038185875af1925050503d8060008114610778576040519150601f19603f3d011682016040523d82523d6000602084013e61077d565b606091505b5091509150811561079257925061079b915050565b80518060208301fd5b92915050565b60007fffffffff0000000000000000000000000000000000000000000000000000000082167f5f5b600b00000000000000000000000000000000000000000000000000000000148061079b575061079b826114e2565b3361080381878661130b565b61084b576040517fe73552b60000000000000000000000000000000000000000000000000000000081526001600160a01b0382166004820152602481018790526044016101f7565b610856838787611003565b610896576040517f2e72eca500000000000000000000000000000000000000000000000000000000815260048101869052602481018790526044016101f7565b600086815260096020908152604080832080547fffffffffffffffffffffffffffffffffffffffffffffffffffffffffffffff00166001179055805191820190529081526108e990829088908590611547565b505050505050565b6000818152600360205260408120546001600160a01b03168061079b576040517fae8f9a36000000000000000000000000000000000000000000000000000000008152600481018490526024016101f7565b600061094e826116df565b6109588383611730565b9392505050565b606061096a826116df565b600082815260056020526040902061079b9061176d565b61098b3384611730565b6109ca576040517f1294d2a9000000000000000000000000000000000000000000000000000000008152600481018490523360248201526044016101f7565b6109d7858585858561177a565b5050505050565b606061079b826119da565b6109f2826108f1565b6001600160a01b0316336001600160a01b031614610a5e57610a13826108f1565b6040517f5b271ea20000000000000000000000000000000000000000000000000000000081526001600160a01b039091166004820152602481018390523360448201526064016101f7565b600082815260096020526040902054339060ff1615610abb576040517f56d5acaf0000000000000000000000000000000000000000000000000000000081526001600160a01b0382166004820152602481018490526044016101f7565b610ac681848461130b565b610b0e576040517fe73552b60000000000000000000000000000000000000000000000000000000081526001600160a01b0382166004820152602481018490526044016101f7565b5050600090815260096020526040902080547fffffffffffffffffffffffffffffffffffffffffffffffffffffffffffffff00166001179055565b6001600160a01b038116600090815260046020526040812061079b90611a7c565b610b72611a86565b610b7c6000611adb565b565b8451845181141580610b91575083518114155b80610b9d575082518114155b80610ba9575081518114155b15610be0576040517f93a8311900000000000000000000000000000000000000000000000000000000815260040160405180910390fd5b60005b81811015610c7d57610c75878281518110610c0057610c006131d7565b6020026020010151878381518110610c1a57610c1a6131d7565b6020026020010151878481518110610c3457610c346131d7565b6020026020010151878581518110610c4e57610c4e6131d7565b6020026020010151878681518110610c6857610c686131d7565b6020026020010151610981565b600101610be3565b50505050505050565b610c8e611a86565b3415610cc6576040517ff36ba73700000000000000000000000000000000000000000000000000000000815260040160405180910390fd5b610cd08282611b61565b5050565b6000610cdf836108f1565b90506001600160a01b0381163314610d3b576040517f5b271ea20000000000000000000000000000000000000000000000000000000081526001600160a01b0382166004820152602481018490523360448201526064016101f7565b6001600160a01b038416610d7b576040517f9577b8b300000000000000000000000000000000000000000000000000000000815260040160405180910390fd5b836001600160a01b0316816001600160a01b031603610dc6576040517f89fdad6200000000000000000000000000000000000000000000000000000000815260040160405180910390fd5b6000838152600560205260408120610dde9086611bc4565b905080610e29576040517fa7626b680000000000000000000000000000000000000000000000000000000081526001600160a01b0386166004820152602481018590526044016101f7565b83826001600160a01b0316866001600160a01b03167e52e433f2d4225671bc164dd1cdc9a76044356091f27ad234798bd0cbf0834986604051610e6c9190612ca6565b60405180910390a460003385600186604051602001610e8e9493929190613206565b60408051601f1981840301815291905290506108e96001600160a01b0387167f8a1c15a8799f71b547e08e2bcb2e85257e81b0a07eee2ce6712549eef1f0097083611bd9565b610edc611a86565b3415610f14576040517ff36ba73700000000000000000000000000000000000000000000000000000000815260040160405180910390fd5b8051825114610f4f576040517f3bcc897900000000000000000000000000000000000000000000000000000000815260040160405180910390fd5b8151600003610f8a576040517f97da5f9500000000000000000000000000000000000000000000000000000000815260040160405180910390fd5b60005b8251811015610fda57610fd2838281518110610fab57610fab6131d7565b6020026020010151838381518110610fc557610fc56131d7565b6020026020010151611b61565b600101610f8d565b505050565b6001600160a01b038116600090815260046020526040902060609061079b9061176d565b600082815b85518110156110c2576000868281518110611025576110256131d7565b6020026020010151905060028561103c919061326f565b6000036110745760408051602081018590529081018290526060016040516020818303038152906040528051906020012092506110a1565b60408051602081018390529081018490526060016040516020818303038152906040528051906020012092505b6110ac6002866132b2565b94505080806110ba906132c6565b915050611008565b507f000000000000000000000000000000000000000000000000000000000000000014949350505050565b60006110f8846108f1565b90506001600160a01b0381163314611154576040517f5b271ea20000000000000000000000000000000000000000000000000000000081526001600160a01b0382166004820152602481018590523360448201526064016101f7565b6001600160a01b038516611194576040517f9577b8b300000000000000000000000000000000000000000000000000000000815260040160405180910390fd5b846001600160a01b0316816001600160a01b0316036111df576040517f89fdad6200000000000000000000000000000000000000000000000000000000815260040160405180910390fd5b6111ec8582868686611ca5565b82156109d75760003385600085604051602001610e8e9493929190613206565b6060815167ffffffffffffffff81111561122857611228612931565b60405190808252806020026020018201604052801561125b57816020015b60608152602001906001900390816112465790505b50905060005b82518110156112b15761128c83828151811061127f5761127f6131d7565b60200260200101516119da565b82828151811061129e5761129e6131d7565b6020908102919091010152600101611261565b50919050565b6112bf611a86565b6001600160a01b0381166112ff576040517f1ad8836c00000000000000000000000000000000000000000000000000000000815260040160405180910390fd5b61130881611adb565b50565b6040517fffffffffffffffffffffffffffffffffffffffff000000000000000000000000606085901b166020820152600090819060340160408051601f19818403018152919052805160209091012090506000806113698386611d5e565b5091509150806003811115611380576113806132fe565b156113c9576040517fe73552b60000000000000000000000000000000000000000000000000000000081526001600160a01b0388166004820152602481018790526044016101f7565b6040517fffffffffffffffffffffffffffffffffffffffff000000000000000000000000606084901b1660208201528690603401604051602081830303815290604052805190602001201493505050509392505050565b600080806114707fcee78b4094da86011096000000000000000000000000000000000000000000007fffffffff000000000000000000000000000000000000000000000000000000008616611dab565b9050600061147d826119da565b905080516014141580156114915750805115155b156114ca57806040517f42bfe79f0000000000000000000000000000000000000000000000000000000081526004016101f79190612ca6565b6114d38161332d565b60601c95600195509350505050565b60007fffffffff0000000000000000000000000000000000000000000000000000000082167f30dc5278000000000000000000000000000000000000000000000000000000001480611538575061153882611e2f565b8061079b575061079b82611e85565b6001600160a01b038416611587576040517f24ecef4d00000000000000000000000000000000000000000000000000000000815260040160405180910390fd5b6115946000858584611ed5565b6000838152600360205260409020546001600160a01b0316156115e6576040517f34c7b511000000000000000000000000000000000000000000000000000000008152600481018490526024016101f7565b6002600081546115f5906132c6565b909155506001600160a01b038416600090815260046020526040902061161b9084611f51565b5060008381526003602052604080822080547fffffffffffffffffffffffff0000000000000000000000000000000000000000166001600160a01b03881690811790915590518592907fb333c813a7426a7a11e2b190cad52c44119421594b47f6f32ace6d8c7207b2bf906116959033908890889061337d565b60405180910390a46116aa6000858584611f5d565b6000808585846040516020016116c394939291906133b0565b60405160208183030381529060405290506109d7858483611fa6565b6000818152600360205260409020546001600160a01b0316611308576040517fae8f9a36000000000000000000000000000000000000000000000000000000008152600481018290526024016101f7565b600061173b826108f1565b6001600160a01b0316836001600160a01b031614806109585750600082815260056020526040902061095890846120d4565b60606000610958836120f6565b836001600160a01b0316856001600160a01b0316036117c5576040517f5d67d6c100000000000000000000000000000000000000000000000000000000815260040160405180910390fd5b60006117d0846108f1565b9050856001600160a01b0316816001600160a01b031614611837576040517f5b271ea20000000000000000000000000000000000000000000000000000000081526001600160a01b03808316600483015260248201869052871660448201526064016101f7565b6001600160a01b038516611877576040517f24ecef4d00000000000000000000000000000000000000000000000000000000815260040160405180910390fd5b61188386868685611ed5565b61188c846108f1565b90506118988685612151565b6001600160a01b03861660009081526004602052604090206118ba90856121a9565b506001600160a01b03851660009081526004602052604090206118dd9085611f51565b506000848152600360205260409081902080547fffffffffffffffffffffffff0000000000000000000000000000000000000000166001600160a01b0388811691821790925591518692918916907fb333c813a7426a7a11e2b190cad52c44119421594b47f6f32ace6d8c7207b2bf9061195c9033908990899061337d565b60405180910390a461197086868685611f5d565b60008686868560405160200161198994939291906133b0565b60408051601f1981840301815291905290506119cf6001600160a01b0388167fb23eae7e6d1564b295b4c3e3be402d9a2f0776c57bdf365903496f6fa481ab0083611bd9565b610c7d868583611fa6565b60008181526001602052604090208054606091906119f7906133e2565b80601f0160208091040260200160405190810160405280929190818152602001828054611a23906133e2565b8015611a705780601f10611a4557610100808354040283529160200191611a70565b820191906000526020600020905b815481529060010190602001808311611a5357829003601f168201915b50505050509050919050565b600061079b825490565b33611a996000546001600160a01b031690565b6001600160a01b031614610b7c576040517fbf1169c50000000000000000000000000000000000000000000000000000000081523360048201526024016101f7565b6000546001600160a01b0382811691161461130857600080546040516001600160a01b03808516939216917f8be0079c531659141344cd1fd0a4f28419497f9722a3daafe3b4186f6b6457e091a3600080546001600160a01b0383167fffffffffffffffffffffffff000000000000000000000000000000000000000090911617905550565b7f8ea0db76a9218319a16b2627c940152b860818f29648e72b840184ff1fa4b01c8201611bba576040517f53bc112200000000000000000000000000000000000000000000000000000000815260040160405180910390fd5b610cd082826121b5565b6000610958836001600160a01b0384166122db565b611c0c6001600160a01b0384167f6bb56a140000000000000000000000000000000000000000000000000000000061232a565b15610fda576040517f6bb56a140000000000000000000000000000000000000000000000000000000081526001600160a01b03841690636bb56a1490611c58908590859060040161342f565b6000604051808303816000875af1158015611c77573d6000803e3d6000fd5b505050506040513d6000823e601f3d908101601f19168201604052611c9f9190810190613448565b50505050565b6000838152600560205260408120611cbd90876123fa565b905080611d08576040517f4aa31a8c0000000000000000000000000000000000000000000000000000000081526001600160a01b0387166004820152602481018590526044016101f7565b83856001600160a01b0316876001600160a01b03167f3ee932cea40ebbbfd8577d47156cc17cce8683802c57bbd1fb8c131c6f07af0a8686604051611d4e9291906134b6565b60405180910390a4505050505050565b60008060008351604103611d985760208401516040850151606086015160001a611d8a8882858561240f565b955095509550505050611da4565b50508151600091506002905b9250925092565b604080517fffffffffffffffffffff00000000000000000000000000000000000000000000841660208201526000602a82018190527fffffffffffffffffffffffffffffffffffffffff0000000000000000000000008416602c83015291829101604051602081830303815290604052905080611e27906134d1565b949350505050565b60007fffffffff0000000000000000000000000000000000000000000000000000000082167fa918fa6b00000000000000000000000000000000000000000000000000000000148061079b575061079b826124de565b600080611eb17f01ffc9a700000000000000000000000000000000000000000000000000000000611420565b5090506001600160a01b038116611ecb5750600092915050565b610958818461232a565b6001600160a01b03841615801590611efc575060008281526009602052604090205460ff16155b15611f45576040517f906fb8a70000000000000000000000000000000000000000000000000000000081526001600160a01b0385166004820152602481018390526044016101f7565b611c9f84848484612575565b600061095883836122db565b6001600160a01b03841615611fa157600082815260096020526040902080547fffffffffffffffffffffffffffffffffffffffffffffffffffffffffffffff001690555b611c9f565b611fd96001600160a01b0384167f6bb56a140000000000000000000000000000000000000000000000000000000061232a565b15612045576040517f6bb56a140000000000000000000000000000000000000000000000000000000081526001600160a01b03841690636bb56a1490611c58907f0b084a55ebf70fd3c06fd755269dac2212c4d3f0f4d09079780bfa50c1b2984d90859060040161342f565b81610fda576001600160a01b0383163b15612097576040517f4349776d0000000000000000000000000000000000000000000000000000000081526001600160a01b03841660048201526024016101f7565b6040517f031731370000000000000000000000000000000000000000000000000000000081526001600160a01b03841660048201526024016101f7565b6001600160a01b03811660009081526001830160205260408120541515610958565b606081600001805480602002602001604051908101604052809291908181526020018280548015611a7057602002820191906000526020600020905b8154815260200190600101908083116121325750505050509050919050565b60008181526005602052604081209061216982611a7c565b90506000805b828110156108e95761218284600061263b565b91506121a1828787600060405180602001604052806000815250611ca5565b60010161216f565b60006109588383612647565b7f2145e1d6d074577dc71ef54c3807742b41b053a9352ae6b491331509acb9750f820161220e576040517f85c169bd00000000000000000000000000000000000000000000000000000000815260040160405180910390fd5b7fd0f59754f88971fe6bc5a6618cc9d5f1e859c58d16b22d1c7b2d3e2b246cd8aa8201612267576040517f76755b3800000000000000000000000000000000000000000000000000000000815260040160405180910390fd5b600082815260016020526040902061227f8282613559565b50817fece574603820d07bc9b91f2a932baadf4628aabcb8afba49776529c14a6104b2610100835111156122c0576122bb83600061010061273a565b6122c2565b825b6040516122cf9190612ca6565b60405180910390a25050565b60008181526001830160205260408120546123225750815460018181018455600084815260208082209093018490558454848252828601909352604090209190915561079b565b50600061079b565b6040517fffffffff0000000000000000000000000000000000000000000000000000000082166024820152600090819060440160408051601f19818403018152919052602080820180517bffffffffffffffffffffffffffffffffffffffffffffffffffffffff167f01ffc9a700000000000000000000000000000000000000000000000000000000178152825192935060009283928392909183918a617530fa92503d915060005190508280156123e3575060208210155b80156123ef5750600081115b979650505050505050565b6000610958836001600160a01b038416612647565b600080807f7fffffffffffffffffffffffffffffff5d576e7357a4501ddfe92f46681b20a084111561244a57506000915060039050826124d4565b604080516000808252602082018084528a905260ff891692820192909252606081018790526080810186905260019060a0016020604051602081039080840390855afa15801561249e573d6000803e3d6000fd5b5050604051601f1901519150506001600160a01b0381166124ca575060009250600191508290506124d4565b9250600091508190505b9450945094915050565b60007fffffffff0000000000000000000000000000000000000000000000000000000082167f629aa69400000000000000000000000000000000000000000000000000000000148061079b57507f01ffc9a7000000000000000000000000000000000000000000000000000000007fffffffff0000000000000000000000000000000000000000000000000000000083161461079b565b6001600160a01b0384166125af57600061258e60025490565b60008181526007602090815260408083208790558683526008909152902055505b6001600160a01b038316611fa157600060016125ca60025490565b6125d49190613655565b60008481526008602052604090205490915081811015612616576000828152600760209081526040808320548484528184208190558352600890915290208190555b5060009081526007602090815260408083208390558483526008909152812055611c9f565b60006109588383612896565b6000818152600183016020526040812054801561273057600061266b600183613655565b855490915060009061267f90600190613655565b90508082146126e457600086600001828154811061269f5761269f6131d7565b90600052602060002001549050808760000184815481106126c2576126c26131d7565b6000918252602080832090910192909255918252600188019052604090208390555b85548690806126f5576126f5613668565b60019003818190600052602060002001600090559055856001016000868152602001908152602001600020600090556001935050505061079b565b600091505061079b565b60608161274881601f613697565b10156127b0576040517f08c379a000000000000000000000000000000000000000000000000000000000815260206004820152600e60248201527f736c6963655f6f766572666c6f7700000000000000000000000000000000000060448201526064016101f7565b6127ba8284613697565b84511015612824576040517f08c379a000000000000000000000000000000000000000000000000000000000815260206004820152601160248201527f736c6963655f6f75744f66426f756e647300000000000000000000000000000060448201526064016101f7565b606082158015612843576040519150600082526020820160405261288d565b6040519150601f8416801560200281840101858101878315602002848b0101015b8183101561287c578051835260209283019201612864565b5050858452601f01601f1916604052505b50949350505050565b60008260000182815481106128ad576128ad6131d7565b9060005260206000200154905092915050565b60208152816020820152818360408301376000818301604090810191909152601f909201601f19160101919050565b60006020828403121561290157600080fd5b81357fffffffff000000000000000000000000000000000000000000000000000000008116811461095857600080fd5b7f4e487b7100000000000000000000000000000000000000000000000000000000600052604160045260246000fd5b604051601f8201601f1916810167ffffffffffffffff8111828210171561298957612989612931565b604052919050565b600067ffffffffffffffff8211156129ab576129ab612931565b50601f01601f191660200190565b600082601f8301126129ca57600080fd5b81356129dd6129d882612991565b612960565b8181528460208386010111156129f257600080fd5b816020850160208301376000918101602001919091529392505050565b600067ffffffffffffffff821115612a2957612a29612931565b5060051b60200190565b600082601f830112612a4457600080fd5b81356020612a546129d883612a0f565b82815260059290921b84018101918181019086841115612a7357600080fd5b8286015b84811015612a8e5780358352918301918301612a77565b509695505050505050565b80358015158114612aa957600080fd5b919050565b600080600080600060a08688031215612ac657600080fd5b8535945060208601359350604086013567ffffffffffffffff80821115612aec57600080fd5b612af889838a016129b9565b94506060880135915080821115612b0e57600080fd5b50612b1b88828901612a33565b925050612b2a60808701612a99565b90509295509295909350565b600060208284031215612b4857600080fd5b5035919050565b80356001600160a01b0381168114612aa957600080fd5b60008060408385031215612b7957600080fd5b612b8283612b4f565b946020939093013593505050565b6020808252825182820181905260009190848201906040850190845b81811015612bd15783516001600160a01b031683529284019291840191600101612bac565b50909695505050505050565b600080600080600060a08688031215612bf557600080fd5b612bfe86612b4f565b9450612c0c60208701612b4f565b935060408601359250612c2160608701612a99565b9150608086013567ffffffffffffffff811115612c3d57600080fd5b612c49888289016129b9565b9150509295509295909350565b60005b83811015612c71578181015183820152602001612c59565b50506000910152565b60008151808452612c92816020860160208601612c56565b601f01601f19169290920160200192915050565b6020815260006109586020830184612c7a565b60008060408385031215612ccc57600080fd5b82359150602083013567ffffffffffffffff811115612cea57600080fd5b612cf6858286016129b9565b9150509250929050565b600060208284031215612d1257600080fd5b61095882612b4f565b600082601f830112612d2c57600080fd5b81356020612d3c6129d883612a0f565b82815260059290921b84018101918181019086841115612d5b57600080fd5b8286015b84811015612a8e57612d7081612b4f565b8352918301918301612d5f565b600082601f830112612d8e57600080fd5b81356020612d9e6129d883612a0f565b82815260059290921b84018101918181019086841115612dbd57600080fd5b8286015b84811015612a8e57612dd281612a99565b8352918301918301612dc1565b600082601f830112612df057600080fd5b81356020612e006129d883612a0f565b82815260059290921b84018101918181019086841115612e1f57600080fd5b8286015b84811015612a8e57803567ffffffffffffffff811115612e435760008081fd5b612e518986838b01016129b9565b845250918301918301612e23565b600080600080600060a08688031215612e7757600080fd5b853567ffffffffffffffff80821115612e8f57600080fd5b612e9b89838a01612d1b565b96506020880135915080821115612eb157600080fd5b612ebd89838a01612d1b565b95506040880135915080821115612ed357600080fd5b612edf89838a01612a33565b94506060880135915080821115612ef557600080fd5b612f0189838a01612d7d565b93506080880135915080821115612f1757600080fd5b50612c4988828901612ddf565b600080600060608486031215612f3957600080fd5b612f4284612b4f565b925060208401359150604084013567ffffffffffffffff811115612f6557600080fd5b612f71868287016129b9565b9150509250925092565b60008060408385031215612f8e57600080fd5b823567ffffffffffffffff80821115612fa657600080fd5b612fb286838701612a33565b93506020850135915080821115612fc857600080fd5b50612cf685828601612ddf565b6020808252825182820181905260009190848201906040850190845b81811015612bd157835183529284019291840191600101612ff1565b60008060006060848603121561302257600080fd5b833567ffffffffffffffff81111561303957600080fd5b61304586828701612a33565b9660208601359650604090950135949350505050565b6000806000806080858703121561307157600080fd5b61307a85612b4f565b93506020850135925061308f60408601612a99565b9150606085013567ffffffffffffffff8111156130ab57600080fd5b6130b7878288016129b9565b91505092959194509250565b6000602082840312156130d557600080fd5b813567ffffffffffffffff8111156130ec57600080fd5b611e2784828501612a33565b6000602080830181845280855180835260408601915060408160051b870101925083870160005b8281101561316b577fffffffffffffffffffffffffffffffffffffffffffffffffffffffffffffffc0888603018452613159858351612c7a565b9450928501929085019060010161311f565b5092979650505050505050565b8385823760609290921b7fffffffffffffffffffffffffffffffffffffffff00000000000000000000000016919092019081526014810191909152603401919050565b600082516131cd818460208701612c56565b9190910192915050565b7f4e487b7100000000000000000000000000000000000000000000000000000000600052603260045260246000fd5b6001600160a01b038516815283602082015282151560408201526080606082015260006132366080830184612c7a565b9695505050505050565b7f4e487b7100000000000000000000000000000000000000000000000000000000600052601260045260246000fd5b60008261327e5761327e613240565b500690565b7f4e487b7100000000000000000000000000000000000000000000000000000000600052601160045260246000fd5b6000826132c1576132c1613240565b500490565b60007fffffffffffffffffffffffffffffffffffffffffffffffffffffffffffffffff82036132f7576132f7613283565b5060010190565b7f4e487b7100000000000000000000000000000000000000000000000000000000600052602160045260246000fd5b6000815160208301517fffffffffffffffffffffffffffffffffffffffff000000000000000000000000808216935060148310156133755780818460140360031b1b83161693505b505050919050565b6001600160a01b038416815282151560208201526060604082015260006133a76060830184612c7a565b95945050505050565b60006001600160a01b038087168352808616602084015250836040830152608060608301526132366080830184612c7a565b600181811c908216806133f657607f821691505b6020821081036112b1577f4e487b7100000000000000000000000000000000000000000000000000000000600052602260045260246000fd5b828152604060208201526000611e276040830184612c7a565b60006020828403121561345a57600080fd5b815167ffffffffffffffff81111561347157600080fd5b8201601f8101841361348257600080fd5b80516134906129d882612991565b8181528560208385010111156134a557600080fd5b6133a7826020830160208601612c56565b8215158152604060208201526000611e276040830184612c7a565b805160208083015191908110156112b1577fffffffffffffffffffffffffffffffffffffffffffffffffffffffffffffffff60209190910360031b1b16919050565b601f821115610fda57600081815260208120601f850160051c8101602086101561353a5750805b601f850160051c820191505b818110156108e957828155600101613546565b815167ffffffffffffffff81111561357357613573612931565b6135878161358184546133e2565b84613513565b602080601f8311600181146135da57600084156135a45750858301515b7fffffffffffffffffffffffffffffffffffffffffffffffffffffffffffffffff600386901b1c1916600185901b1785556108e9565b600085815260208120601f198616915b82811015613609578886015182559484019460019091019084016135ea565b508582101561364557878501517fffffffffffffffffffffffffffffffffffffffffffffffffffffffffffffffff600388901b60f8161c191681555b5050505050600190811b01905550565b8181038181111561079b5761079b613283565b7f4e487b7100000000000000000000000000000000000000000000000000000000600052603160045260246000fd5b8082018082111561079b5761079b61328356fea2646970667358221220e1a56bf36d9abbe9e55679309b8ddfa850ee529c30f0a71ad386860fe5a49e9764736f6c63430008140033ece574603820d07bc9b91f2a932baadf4628aabcb8afba49776529c14a6104b2",
  "linkReferences": {},
  "deployedLinkReferences": {}
}