{
  "_format": "hh-sol-artifact-1",
  "contractName": "PhygitalAsset",
  "sourceName": "contracts/PhygitalAsset.sol",
  "abi": [
    {
      "inputs": [
        {
          "internalType": "bytes32",
          "name": "merkleRootOfCollection_",
          "type": "bytes32"
        },
        {
          "internalType": "bytes",
          "name": "collectionJSONURL_",
          "type": "bytes"
        },
        {
          "internalType": "string",
          "name": "name_",
          "type": "string"
        },
        {
          "internalType": "string",
          "name": "symbol_",
          "type": "string"
        },
        {
          "internalType": "bytes",
          "name": "metadataJSONURL_",
          "type": "bytes"
        },
        {
          "internalType": "address",
          "name": "collectionOwner_",
          "type": "address"
        }
      ],
      "stateMutability": "nonpayable",
      "type": "constructor"
    },
    {
      "inputs": [],
      "name": "ERC725Y_DataKeysValuesEmptyArray",
      "type": "error"
    },
    {
      "inputs": [],
      "name": "ERC725Y_DataKeysValuesLengthMismatch",
      "type": "error"
    },
    {
      "inputs": [],
      "name": "ERC725Y_MsgValueDisallowed",
      "type": "error"
    },
    {
      "inputs": [
        {
          "internalType": "bytes",
          "name": "storedData",
          "type": "bytes"
        }
      ],
      "name": "InvalidExtensionAddress",
      "type": "error"
    },
    {
      "inputs": [
        {
          "internalType": "bytes",
          "name": "data",
          "type": "bytes"
        }
      ],
      "name": "InvalidFunctionSelector",
      "type": "error"
    },
    {
      "inputs": [],
      "name": "LSP4TokenNameNotEditable",
      "type": "error"
    },
    {
      "inputs": [],
      "name": "LSP4TokenSymbolNotEditable",
      "type": "error"
    },
    {
      "inputs": [],
      "name": "LSP8CannotSendToAddressZero",
      "type": "error"
    },
    {
      "inputs": [],
      "name": "LSP8CannotSendToSelf",
      "type": "error"
    },
    {
      "inputs": [],
      "name": "LSP8CannotUseAddressZeroAsOperator",
      "type": "error"
    },
    {
      "inputs": [],
      "name": "LSP8InvalidTransferBatch",
      "type": "error"
    },
    {
      "inputs": [
        {
          "internalType": "bytes32",
          "name": "tokenId",
          "type": "bytes32"
        }
      ],
      "name": "LSP8NonExistentTokenId",
      "type": "error"
    },
    {
      "inputs": [
        {
          "internalType": "address",
          "name": "operator",
          "type": "address"
        },
        {
          "internalType": "bytes32",
          "name": "tokenId",
          "type": "bytes32"
        }
      ],
      "name": "LSP8NonExistingOperator",
      "type": "error"
    },
    {
      "inputs": [
        {
          "internalType": "bytes32",
          "name": "tokenId",
          "type": "bytes32"
        },
        {
          "internalType": "address",
          "name": "caller",
          "type": "address"
        }
      ],
      "name": "LSP8NotTokenOperator",
      "type": "error"
    },
    {
      "inputs": [
        {
          "internalType": "address",
          "name": "tokenOwner",
          "type": "address"
        },
        {
          "internalType": "bytes32",
          "name": "tokenId",
          "type": "bytes32"
        },
        {
          "internalType": "address",
          "name": "caller",
          "type": "address"
        }
      ],
      "name": "LSP8NotTokenOwner",
      "type": "error"
    },
    {
      "inputs": [
        {
          "internalType": "address",
          "name": "tokenReceiver",
          "type": "address"
        }
      ],
      "name": "LSP8NotifyTokenReceiverContractMissingLSP1Interface",
      "type": "error"
    },
    {
      "inputs": [
        {
          "internalType": "address",
          "name": "tokenReceiver",
          "type": "address"
        }
      ],
      "name": "LSP8NotifyTokenReceiverIsEOA",
      "type": "error"
    },
    {
      "inputs": [
        {
          "internalType": "address",
          "name": "operator",
          "type": "address"
        },
        {
          "internalType": "bytes32",
          "name": "tokenId",
          "type": "bytes32"
        }
      ],
      "name": "LSP8OperatorAlreadyAuthorized",
      "type": "error"
    },
    {
      "inputs": [],
      "name": "LSP8TokenContractCannotHoldValue",
      "type": "error"
    },
    {
      "inputs": [
        {
          "internalType": "bytes32",
          "name": "tokenId",
          "type": "bytes32"
        }
      ],
      "name": "LSP8TokenIdAlreadyMinted",
      "type": "error"
    },
    {
      "inputs": [],
      "name": "LSP8TokenIdTypeNotEditable",
      "type": "error"
    },
    {
      "inputs": [],
      "name": "LSP8TokenOwnerCannotBeOperator",
      "type": "error"
    },
    {
      "inputs": [
        {
          "internalType": "bytes4",
          "name": "functionSelector",
          "type": "bytes4"
        }
      ],
      "name": "NoExtensionFoundForFunctionSelector",
      "type": "error"
    },
    {
      "inputs": [
        {
          "internalType": "address",
          "name": "callerAddress",
          "type": "address"
        }
      ],
      "name": "OwnableCallerNotTheOwner",
      "type": "error"
    },
    {
      "inputs": [],
      "name": "OwnableCannotSetZeroAddressAsOwner",
      "type": "error"
    },
    {
      "inputs": [
        {
          "internalType": "address",
          "name": "owner",
          "type": "address"
        },
        {
          "internalType": "bytes32",
          "name": "phygitalId",
          "type": "bytes32"
        }
      ],
      "name": "PhygitalAssetHasAlreadyAVerifiedOwnership",
      "type": "error"
    },
    {
      "inputs": [
        {
          "internalType": "address",
          "name": "owner",
          "type": "address"
        },
        {
          "internalType": "bytes32",
          "name": "phygitalId",
          "type": "bytes32"
        }
      ],
      "name": "PhygitalAssetHasAnUnverifiedOwnership",
      "type": "error"
    },
    {
      "inputs": [
        {
          "internalType": "uint256",
          "name": "phygitalIndex",
          "type": "uint256"
        },
        {
          "internalType": "bytes32",
          "name": "phygitalId",
          "type": "bytes32"
        }
      ],
      "name": "PhygitalAssetIsNotPartOfCollection",
      "type": "error"
    },
    {
      "inputs": [
        {
          "internalType": "address",
          "name": "owner",
          "type": "address"
        },
        {
          "internalType": "bytes32",
          "name": "phygitalId",
          "type": "bytes32"
        }
      ],
      "name": "PhygitalAssetOwnershipVerificationFailed",
      "type": "error"
    },
    {
      "anonymous": false,
      "inputs": [
        {
          "indexed": true,
          "internalType": "address",
          "name": "operator",
          "type": "address"
        },
        {
          "indexed": true,
          "internalType": "address",
          "name": "tokenOwner",
          "type": "address"
        },
        {
          "indexed": true,
          "internalType": "bytes32",
          "name": "tokenId",
          "type": "bytes32"
        },
        {
          "indexed": false,
          "internalType": "bytes",
          "name": "operatorNotificationData",
          "type": "bytes"
        }
      ],
      "name": "AuthorizedOperator",
      "type": "event"
    },
    {
      "anonymous": false,
      "inputs": [
        {
          "indexed": true,
          "internalType": "bytes32",
          "name": "dataKey",
          "type": "bytes32"
        },
        {
          "indexed": false,
          "internalType": "bytes",
          "name": "dataValue",
          "type": "bytes"
        }
      ],
      "name": "DataChanged",
      "type": "event"
    },
    {
      "anonymous": false,
      "inputs": [
        {
          "indexed": true,
          "internalType": "address",
          "name": "previousOwner",
          "type": "address"
        },
        {
          "indexed": true,
          "internalType": "address",
          "name": "newOwner",
          "type": "address"
        }
      ],
      "name": "OwnershipTransferred",
      "type": "event"
    },
    {
      "anonymous": false,
      "inputs": [
        {
          "indexed": true,
          "internalType": "address",
          "name": "operator",
          "type": "address"
        },
        {
          "indexed": true,
          "internalType": "address",
          "name": "tokenOwner",
          "type": "address"
        },
        {
          "indexed": true,
          "internalType": "bytes32",
          "name": "tokenId",
          "type": "bytes32"
        },
        {
          "indexed": false,
          "internalType": "bool",
          "name": "notified",
          "type": "bool"
        },
        {
          "indexed": false,
          "internalType": "bytes",
          "name": "operatorNotificationData",
          "type": "bytes"
        }
      ],
      "name": "RevokedOperator",
      "type": "event"
    },
    {
      "anonymous": false,
      "inputs": [
        {
          "indexed": false,
          "internalType": "address",
          "name": "operator",
          "type": "address"
        },
        {
          "indexed": true,
          "internalType": "address",
          "name": "from",
          "type": "address"
        },
        {
          "indexed": true,
          "internalType": "address",
          "name": "to",
          "type": "address"
        },
        {
          "indexed": true,
          "internalType": "bytes32",
          "name": "tokenId",
          "type": "bytes32"
        },
        {
          "indexed": false,
          "internalType": "bool",
          "name": "force",
          "type": "bool"
        },
        {
          "indexed": false,
          "internalType": "bytes",
          "name": "data",
          "type": "bytes"
        }
      ],
      "name": "Transfer",
      "type": "event"
    },
    {
      "stateMutability": "payable",
      "type": "fallback"
    },
    {
      "inputs": [
        {
          "internalType": "bytes32[]",
          "name": "merkleProofOfCollection",
          "type": "bytes32[]"
        },
        {
          "internalType": "bytes32",
          "name": "phygitalId",
          "type": "bytes32"
        },
        {
          "internalType": "uint256",
          "name": "phygitalIndex",
          "type": "uint256"
        }
      ],
      "name": "_isPhygitalPartOfCollection",
      "outputs": [
        {
          "internalType": "bool",
          "name": "",
          "type": "bool"
        }
      ],
      "stateMutability": "view",
      "type": "function"
    },
    {
      "inputs": [
        {
          "internalType": "address",
          "name": "phygitalOwner",
          "type": "address"
        },
        {
          "internalType": "bytes32",
          "name": "phygitalId",
          "type": "bytes32"
        },
        {
          "internalType": "bytes",
          "name": "phygitalSignature",
          "type": "bytes"
        }
      ],
      "name": "_verifyPhygitalOwnership",
      "outputs": [
        {
          "internalType": "bool",
          "name": "",
          "type": "bool"
        }
      ],
      "stateMutability": "view",
      "type": "function"
    },
    {
      "inputs": [
        {
          "internalType": "address",
          "name": "operator",
          "type": "address"
        },
        {
          "internalType": "bytes32",
          "name": "tokenId",
          "type": "bytes32"
        },
        {
          "internalType": "bytes",
          "name": "operatorNotificationData",
          "type": "bytes"
        }
      ],
      "name": "authorizeOperator",
      "outputs": [],
      "stateMutability": "nonpayable",
      "type": "function"
    },
    {
      "inputs": [
        {
          "internalType": "address",
          "name": "tokenOwner",
          "type": "address"
        }
      ],
      "name": "balanceOf",
      "outputs": [
        {
          "internalType": "uint256",
          "name": "",
          "type": "uint256"
        }
      ],
      "stateMutability": "view",
      "type": "function"
    },
    {
      "inputs": [
        {
          "internalType": "bytes32",
          "name": "dataKey",
          "type": "bytes32"
        }
      ],
      "name": "getData",
      "outputs": [
        {
          "internalType": "bytes",
          "name": "dataValue",
          "type": "bytes"
        }
      ],
      "stateMutability": "view",
      "type": "function"
    },
    {
      "inputs": [
        {
          "internalType": "bytes32[]",
          "name": "dataKeys",
          "type": "bytes32[]"
        }
      ],
      "name": "getDataBatch",
      "outputs": [
        {
          "internalType": "bytes[]",
          "name": "dataValues",
          "type": "bytes[]"
        }
      ],
      "stateMutability": "view",
      "type": "function"
    },
    {
      "inputs": [
        {
          "internalType": "bytes32",
          "name": "tokenId",
          "type": "bytes32"
        }
      ],
      "name": "getOperatorsOf",
      "outputs": [
        {
          "internalType": "address[]",
          "name": "",
          "type": "address[]"
        }
      ],
      "stateMutability": "view",
      "type": "function"
    },
    {
      "inputs": [
        {
          "internalType": "address",
          "name": "operator",
          "type": "address"
        },
        {
          "internalType": "bytes32",
          "name": "tokenId",
          "type": "bytes32"
        }
      ],
      "name": "isOperatorFor",
      "outputs": [
        {
          "internalType": "bool",
          "name": "",
          "type": "bool"
        }
      ],
      "stateMutability": "view",
      "type": "function"
    },
    {
      "inputs": [],
      "name": "merkleRootOfCollection",
      "outputs": [
        {
          "internalType": "bytes32",
          "name": "",
          "type": "bytes32"
        }
      ],
      "stateMutability": "view",
      "type": "function"
    },
    {
      "inputs": [
        {
          "internalType": "bytes32",
          "name": "phygitalId",
          "type": "bytes32"
        },
        {
          "internalType": "uint256",
          "name": "phygitalIndex",
          "type": "uint256"
        },
        {
          "internalType": "bytes",
          "name": "phygitalSignature",
          "type": "bytes"
        },
        {
          "internalType": "bytes32[]",
          "name": "merkleProofOfCollection",
          "type": "bytes32[]"
        },
        {
          "internalType": "bool",
          "name": "force",
          "type": "bool"
        }
      ],
      "name": "mint",
      "outputs": [],
      "stateMutability": "nonpayable",
      "type": "function"
    },
    {
      "inputs": [
        {
          "internalType": "bytes32",
          "name": "",
          "type": "bytes32"
        }
      ],
      "name": "nonce",
      "outputs": [
        {
          "internalType": "uint256",
          "name": "",
          "type": "uint256"
        }
      ],
      "stateMutability": "view",
      "type": "function"
    },
    {
      "inputs": [],
      "name": "owner",
      "outputs": [
        {
          "internalType": "address",
          "name": "",
          "type": "address"
        }
      ],
      "stateMutability": "view",
      "type": "function"
    },
    {
      "inputs": [],
      "name": "renounceOwnership",
      "outputs": [],
      "stateMutability": "nonpayable",
      "type": "function"
    },
    {
      "inputs": [
        {
          "internalType": "address",
          "name": "operator",
          "type": "address"
        },
        {
          "internalType": "bytes32",
          "name": "tokenId",
          "type": "bytes32"
        },
        {
          "internalType": "bool",
          "name": "notify",
          "type": "bool"
        },
        {
          "internalType": "bytes",
          "name": "operatorNotificationData",
          "type": "bytes"
        }
      ],
      "name": "revokeOperator",
      "outputs": [],
      "stateMutability": "nonpayable",
      "type": "function"
    },
    {
      "inputs": [
        {
          "internalType": "bytes32",
          "name": "dataKey",
          "type": "bytes32"
        },
        {
          "internalType": "bytes",
          "name": "dataValue",
          "type": "bytes"
        }
      ],
      "name": "setData",
      "outputs": [],
      "stateMutability": "payable",
      "type": "function"
    },
    {
      "inputs": [
        {
          "internalType": "bytes32[]",
          "name": "dataKeys",
          "type": "bytes32[]"
        },
        {
          "internalType": "bytes[]",
          "name": "dataValues",
          "type": "bytes[]"
        }
      ],
      "name": "setDataBatch",
      "outputs": [],
      "stateMutability": "payable",
      "type": "function"
    },
    {
      "inputs": [
        {
          "internalType": "bytes4",
          "name": "interfaceId",
          "type": "bytes4"
        }
      ],
      "name": "supportsInterface",
      "outputs": [
        {
          "internalType": "bool",
          "name": "",
          "type": "bool"
        }
      ],
      "stateMutability": "view",
      "type": "function"
    },
    {
      "inputs": [
        {
          "internalType": "uint256",
          "name": "index",
          "type": "uint256"
        }
      ],
      "name": "tokenAt",
      "outputs": [
        {
          "internalType": "bytes32",
          "name": "",
          "type": "bytes32"
        }
      ],
      "stateMutability": "view",
      "type": "function"
    },
    {
      "inputs": [
        {
          "internalType": "address",
          "name": "tokenOwner",
          "type": "address"
        }
      ],
      "name": "tokenIdsOf",
      "outputs": [
        {
          "internalType": "bytes32[]",
          "name": "",
          "type": "bytes32[]"
        }
      ],
      "stateMutability": "view",
      "type": "function"
    },
    {
      "inputs": [
        {
          "internalType": "bytes32",
          "name": "tokenId",
          "type": "bytes32"
        }
      ],
      "name": "tokenOwnerOf",
      "outputs": [
        {
          "internalType": "address",
          "name": "",
          "type": "address"
        }
      ],
      "stateMutability": "view",
      "type": "function"
    },
    {
      "inputs": [],
      "name": "totalSupply",
      "outputs": [
        {
          "internalType": "uint256",
          "name": "",
          "type": "uint256"
        }
      ],
      "stateMutability": "view",
      "type": "function"
    },
    {
      "inputs": [
        {
          "internalType": "address",
          "name": "from",
          "type": "address"
        },
        {
          "internalType": "address",
          "name": "to",
          "type": "address"
        },
        {
          "internalType": "bytes32",
          "name": "tokenId",
          "type": "bytes32"
        },
        {
          "internalType": "bool",
          "name": "force",
          "type": "bool"
        },
        {
          "internalType": "bytes",
          "name": "data",
          "type": "bytes"
        }
      ],
      "name": "transfer",
      "outputs": [],
      "stateMutability": "nonpayable",
      "type": "function"
    },
    {
      "inputs": [
        {
          "internalType": "address[]",
          "name": "from",
          "type": "address[]"
        },
        {
          "internalType": "address[]",
          "name": "to",
          "type": "address[]"
        },
        {
          "internalType": "bytes32[]",
          "name": "tokenId",
          "type": "bytes32[]"
        },
        {
          "internalType": "bool[]",
          "name": "force",
          "type": "bool[]"
        },
        {
          "internalType": "bytes[]",
          "name": "data",
          "type": "bytes[]"
        }
      ],
      "name": "transferBatch",
      "outputs": [],
      "stateMutability": "nonpayable",
      "type": "function"
    },
    {
      "inputs": [
        {
          "internalType": "address",
          "name": "newOwner",
          "type": "address"
        }
      ],
      "name": "transferOwnership",
      "outputs": [],
      "stateMutability": "nonpayable",
      "type": "function"
    },
    {
      "inputs": [
        {
          "internalType": "bytes32",
          "name": "",
          "type": "bytes32"
        }
      ],
      "name": "verifiedOwnership",
      "outputs": [
        {
          "internalType": "bool",
          "name": "",
          "type": "bool"
        }
      ],
      "stateMutability": "view",
      "type": "function"
    },
    {
      "inputs": [
        {
          "internalType": "bytes32",
          "name": "phygitalId",
          "type": "bytes32"
        },
        {
          "internalType": "bytes",
          "name": "phygitalSignature",
          "type": "bytes"
        }
      ],
      "name": "verifyOwnershipAfterTransfer",
      "outputs": [],
      "stateMutability": "nonpayable",
      "type": "function"
    },
    {
      "inputs": [],
      "name": "version",
      "outputs": [
        {
          "internalType": "string",
          "name": "",
          "type": "string"
        }
      ],
      "stateMutability": "view",
      "type": "function"
    },
    {
      "stateMutability": "payable",
      "type": "receive"
    }
  ],
  "bytecode": "0x60a06040523480156200001157600080fd5b50604051620040ab380380620040ab833981016040819052620000349162000632565b838333600383838380806200005c576040516306b620db60e21b815260040160405180910390fd5b6200006781620001cc565b506040805180820190915260048152632936598960e21b6020820152620000b0907feafec4d89fa9619884b60000a4d96624a38f7ac2d8d9a604ecf07c12c77e480c906200023a565b620000dc7fdeba1e292f8ba88238e10ab3c7f88bd4be4fac56cad5194b6ecceaf653468af1846200023a565b620001087f2f0a68ab07768e01943a599e73362a0e17a63a72e94dd2e384d2c1d4db932756836200023a565b505060408051602081018490526200015492507f715f248956de7ce65e94d9d836bfead479f7e70d69b718d47bfe7b00e05b4fe4910160408051601f1981840301815291905262000282565b505050608087905250620001897f4eff76d745d12fd5e5f7b38e8f396dd0d099124739e69a289ca1faa7ebc537688662000367565b620001b57f9afb95cacc9f95858ec44aa8c3b685511002e30ae54415823f406128b85b238e83620003b4565b620001c081620001cc565b505050505050620008bf565b6000546001600160a01b038281169116146200023757600080546040516001600160a01b03808516939216917f8be0079c531659141344cd1fd0a4f28419497f9722a3daafe3b4186f6b6457e091a3600080546001600160a01b0319166001600160a01b0383161790555b50565b600082815260016020526040902062000254828262000796565b50816000805160206200408b8339815191528260405162000276919062000862565b60405180910390a25050565b7f2145e1d6d074577dc71ef54c3807742b41b053a9352ae6b491331509acb9750f8201620002c3576040516385c169bd60e01b815260040160405180910390fd5b7fd0f59754f88971fe6bc5a6618cc9d5f1e859c58d16b22d1c7b2d3e2b246cd8aa82016200030457604051630eceab6760e31b815260040160405180910390fd5b60008281526001602052604090206200031e828262000796565b50816000805160206200408b8339815191526101008351111562000352576200034c836000610100620003ea565b62000354565b825b60405162000276919062000862565b5050565b7f8ea0db76a9218319a16b2627c940152b860818f29648e72b840184ff1fa4b01c8201620003a8576040516329de089160e11b815260040160405180910390fd5b62000363828262000282565b620003be62000507565b3415620003de5760405163f36ba73760e01b815260040160405180910390fd5b62000363828262000367565b606081620003fa81601f62000897565b10156200043f5760405162461bcd60e51b815260206004820152600e60248201526d736c6963655f6f766572666c6f7760901b60448201526064015b60405180910390fd5b6200044b828462000897565b84511015620004915760405162461bcd60e51b8152602060048201526011602482015270736c6963655f6f75744f66426f756e647360781b604482015260640162000436565b606082158015620004b25760405191506000825260208201604052620004fe565b6040519150601f8416801560200281840101858101878315602002848b0101015b81831015620004ed578051835260209283019201620004d3565b5050858452601f01601f1916604052505b50949350505050565b336200051b6000546001600160a01b031690565b6001600160a01b031614620005465760405163bf1169c560e01b815233600482015260240162000436565b565b634e487b7160e01b600052604160045260246000fd5b60005b838110156200057b57818101518382015260200162000561565b50506000910152565b600082601f8301126200059657600080fd5b81516001600160401b0380821115620005b357620005b362000548565b604051601f8301601f19908116603f01168101908282118183101715620005de57620005de62000548565b81604052838152866020858801011115620005f857600080fd5b6200060b8460208301602089016200055e565b9695505050505050565b80516001600160a01b03811681146200062d57600080fd5b919050565b60008060008060008060c087890312156200064c57600080fd5b865160208801519096506001600160401b03808211156200066c57600080fd5b6200067a8a838b0162000584565b965060408901519150808211156200069157600080fd5b6200069f8a838b0162000584565b95506060890151915080821115620006b657600080fd5b620006c48a838b0162000584565b94506080890151915080821115620006db57600080fd5b50620006ea89828a0162000584565b925050620006fb60a0880162000615565b90509295509295509295565b600181811c908216806200071c57607f821691505b6020821081036200073d57634e487b7160e01b600052602260045260246000fd5b50919050565b601f8211156200079157600081815260208120601f850160051c810160208610156200076c5750805b601f850160051c820191505b818110156200078d5782815560010162000778565b5050505b505050565b81516001600160401b03811115620007b257620007b262000548565b620007ca81620007c3845462000707565b8462000743565b602080601f831160018114620008025760008415620007e95750858301515b600019600386901b1c1916600185901b1785556200078d565b600085815260208120601f198616915b82811015620008335788860151825594840194600190910190840162000812565b5085821015620008525787850151600019600388901b60f8161c191681555b5050505050600190811b01905550565b6020815260008251806020840152620008838160408501602087016200055e565b601f01601f19169190910160400192915050565b80820180821115620008b957634e487b7160e01b600052601160045260246000fd5b92915050565b6080516137a9620008e2600039600081816102de015261114701526137a96000f3fe6080604052600436106101b05760003560e01c8063715018a6116100ec578063979024211161008a578063db8c966311610064578063db8c96631461060d578063dedff9c61461062d578063f2fde38b1461065a578063fa8dc2341461067a5761023d565b806397902421146105ad578063a3b261f2146105c0578063c414c9df146105ed5761023d565b806386a10ddd116100c657806386a10ddd146105155780638da5cb5b14610535578063905da30f1461055357806392a91a3a146105805761023d565b8063715018a6146104cd5780637e87632c146104e25780637f23690c146105025761023d565b806349a6078d1161015957806354f6127f1161013357806354f6127f1461041a57806354fd4d501461044757806365090a4b1461048d57806370a08231146104ad5761023d565b806349a6078d1461039d5780634d55c5a4146103ca578063511b6952146103fa5761023d565b80631e3e39151161018a5780631e3e391514610323578063217b2270146103455780632a3654a41461037d5761023d565b806301ffc9a71461029757806307c79bb2146102cc57806318160ddd1461030e5761023d565b3661023d573460000361020b576040517fe5099ee30000000000000000000000000000000000000000000000000000000081526004016102029060208082526004908201526000604082015260600190565b60405180910390fd5b6040517f61f4944200000000000000000000000000000000000000000000000000000000815260040160405180910390fd5b600036606060048210156102815782826040517fe5099ee3000000000000000000000000000000000000000000000000000000008152600401610202929190612989565b61028b838361069a565b80519350602001915050f35b3480156102a357600080fd5b506102b76102b23660046129b8565b6107d9565b60405190151581526020015b60405180910390f35b3480156102d857600080fd5b506103007f000000000000000000000000000000000000000000000000000000000000000081565b6040519081526020016102c3565b34801561031a57600080fd5b50600254610300565b34801561032f57600080fd5b5061034361033e366004612b77565b61082f565b005b34801561035157600080fd5b50610365610360366004612bff565b610973565b6040516001600160a01b0390911681526020016102c3565b34801561038957600080fd5b506102b7610398366004612c2f565b6109c5565b3480156103a957600080fd5b506103bd6103b8366004612bff565b6109e1565b6040516102c39190612c59565b3480156103d657600080fd5b506102b76103e5366004612bff565b60096020526000908152604090205460ff1681565b34801561040657600080fd5b50610343610415366004612ca6565b610a03565b34801561042657600080fd5b5061043a610435366004612bff565b610a60565b6040516102c39190612d6f565b34801561045357600080fd5b5060408051808201909152600681527f302e31322e300000000000000000000000000000000000000000000000000000602082015261043a565b34801561049957600080fd5b506103436104a8366004612d82565b610a6b565b3480156104b957600080fd5b506103006104c8366004612dc9565b610bcb565b3480156104d957600080fd5b50610343610bec565b3480156104ee57600080fd5b506103436104fd366004612f28565b610c00565b610343610510366004612d82565b610d08565b34801561052157600080fd5b50610343610530366004612fed565b610d56565b34801561054157600080fd5b506000546001600160a01b0316610365565b34801561055f57600080fd5b5061030061056e366004612bff565b600a6020526000908152604090205481565b34801561058c57600080fd5b5061030061059b366004612bff565b60009081526007602052604090205490565b6103436105bb366004613044565b610f56565b3480156105cc57600080fd5b506105e06105db366004612dc9565b611061565b6040516102c3919061309e565b3480156105f957600080fd5b506102b76106083660046130d6565b611085565b34801561061957600080fd5b50610343610628366004613124565b61116f565b34801561063957600080fd5b5061064d61064836600461318c565b61128e565b6040516102c391906131c1565b34801561066657600080fd5b50610343610675366004612dc9565b611339565b34801561068657600080fd5b506102b7610695366004612fed565b61138d565b606060006106cb6000357fffffffff00000000000000000000000000000000000000000000000000000000166114ad565b5090506001600160a01b038116610734576040517fbb370b2b0000000000000000000000000000000000000000000000000000000081527fffffffff00000000000000000000000000000000000000000000000000000000600035166004820152602401610202565b600080826001600160a01b031634878733346040516020016107599493929190613241565b60408051601f198184030181529082905261077391613284565b60006040518083038185875af1925050503d80600081146107b0576040519150601f19603f3d011682016040523d82523d6000602084013e6107b5565b606091505b509150915081156107ca5792506107d3915050565b80518060208301fd5b92915050565b60007fffffffff0000000000000000000000000000000000000000000000000000000082167fcf06c3040000000000000000000000000000000000000000000000000000000014806107d357506107d38261156f565b6000858152600a602052604090205433901561087a576040517f34c7b51100000000000000000000000000000000000000000000000000000000815260048101879052602401610202565b61088581878661138d565b6108cd576040517fe73552b60000000000000000000000000000000000000000000000000000000081526001600160a01b038216600482015260248101879052604401610202565b6108d8838787611085565b610918576040517f2e72eca50000000000000000000000000000000000000000000000000000000081526004810186905260248101879052604401610202565b600086815260096020908152604080832080547fffffffffffffffffffffffffffffffffffffffffffffffffffffffffffffff001660011790558051918201905290815261096b908290889085906115d4565b505050505050565b6000818152600360205260408120546001600160a01b0316806107d3576040517fae8f9a3600000000000000000000000000000000000000000000000000000000815260048101849052602401610202565b60006109d08261176c565b6109da83836117bd565b9392505050565b60606109ec8261176c565b60008281526005602052604090206107d3906117fa565b610a0d33846117bd565b610a4c576040517f1294d2a900000000000000000000000000000000000000000000000000000000815260048101849052336024820152604401610202565b610a598585858585611807565b5050505050565b60606107d382611a67565b610a7482610973565b6001600160a01b0316336001600160a01b031614610ae057610a9582610973565b6040517f5b271ea20000000000000000000000000000000000000000000000000000000081526001600160a01b03909116600482015260248101839052336044820152606401610202565b600082815260096020526040902054339060ff1615610b3d576040517f56d5acaf0000000000000000000000000000000000000000000000000000000081526001600160a01b038216600482015260248101849052604401610202565b610b4881848461138d565b610b90576040517fe73552b60000000000000000000000000000000000000000000000000000000081526001600160a01b038216600482015260248101849052604401610202565b5050600090815260096020526040902080547fffffffffffffffffffffffffffffffffffffffffffffffffffffffffffffff00166001179055565b6001600160a01b03811660009081526004602052604081206107d390611b09565b610bf4611b13565b610bfe6000611b68565b565b8451845181141580610c13575083518114155b80610c1f575082518114155b80610c2b575081518114155b15610c62576040517f93a8311900000000000000000000000000000000000000000000000000000000815260040160405180910390fd5b60005b81811015610cff57610cf7878281518110610c8257610c826132a0565b6020026020010151878381518110610c9c57610c9c6132a0565b6020026020010151878481518110610cb657610cb66132a0565b6020026020010151878581518110610cd057610cd06132a0565b6020026020010151878681518110610cea57610cea6132a0565b6020026020010151610a03565b600101610c65565b50505050505050565b610d10611b13565b3415610d48576040517ff36ba73700000000000000000000000000000000000000000000000000000000815260040160405180910390fd5b610d528282611bee565b5050565b6000610d6183610973565b90506001600160a01b0381163314610dbd576040517f5b271ea20000000000000000000000000000000000000000000000000000000081526001600160a01b038216600482015260248101849052336044820152606401610202565b6001600160a01b038416610dfd576040517f9577b8b300000000000000000000000000000000000000000000000000000000815260040160405180910390fd5b836001600160a01b0316816001600160a01b031603610e48576040517f89fdad6200000000000000000000000000000000000000000000000000000000815260040160405180910390fd5b6000838152600560205260408120610e609086611c51565b905080610eab576040517fa7626b680000000000000000000000000000000000000000000000000000000081526001600160a01b038616600482015260248101859052604401610202565b83826001600160a01b0316866001600160a01b03167e52e433f2d4225671bc164dd1cdc9a76044356091f27ad234798bd0cbf0834986604051610eee9190612d6f565b60405180910390a460003385600186604051602001610f1094939291906132cf565b60408051601f19818403018152919052905061096b6001600160a01b0387167f8a1c15a8799f71b547e08e2bcb2e85257e81b0a07eee2ce6712549eef1f0097083611c66565b610f5e611b13565b3415610f96576040517ff36ba73700000000000000000000000000000000000000000000000000000000815260040160405180910390fd5b8051825114610fd1576040517f3bcc897900000000000000000000000000000000000000000000000000000000815260040160405180910390fd5b815160000361100c576040517f97da5f9500000000000000000000000000000000000000000000000000000000815260040160405180910390fd5b60005b825181101561105c5761105483828151811061102d5761102d6132a0565b6020026020010151838381518110611047576110476132a0565b6020026020010151611bee565b60010161100f565b505050565b6001600160a01b03811660009081526004602052604090206060906107d3906117fa565b600082815b85518110156111445760008682815181106110a7576110a76132a0565b602002602001015190506002856110be9190613338565b6000036110f6576040805160208101859052908101829052606001604051602081830303815290604052805190602001209250611123565b60408051602081018390529081018490526060016040516020818303038152906040528051906020012092505b61112e60028661337b565b945050808061113c9061338f565b91505061108a565b507f000000000000000000000000000000000000000000000000000000000000000014949350505050565b600061117a84610973565b90506001600160a01b03811633146111d6576040517f5b271ea20000000000000000000000000000000000000000000000000000000081526001600160a01b038216600482015260248101859052336044820152606401610202565b6001600160a01b038516611216576040517f9577b8b300000000000000000000000000000000000000000000000000000000815260040160405180910390fd5b846001600160a01b0316816001600160a01b031603611261576040517f89fdad6200000000000000000000000000000000000000000000000000000000815260040160405180910390fd5b61126e8582868686611d32565b8215610a595760003385600085604051602001610f1094939291906132cf565b6060815167ffffffffffffffff8111156112aa576112aa6129fa565b6040519080825280602002602001820160405280156112dd57816020015b60608152602001906001900390816112c85790505b50905060005b82518110156113335761130e838281518110611301576113016132a0565b6020026020010151611a67565b828281518110611320576113206132a0565b60209081029190910101526001016112e3565b50919050565b611341611b13565b6001600160a01b038116611381576040517f1ad8836c00000000000000000000000000000000000000000000000000000000815260040160405180910390fd5b61138a81611b68565b50565b6000828152600a60209081526040808320548151606088901b7fffffffffffffffffffffffffffffffffffffffff000000000000000000000000168185015260348082019290925282518082039092018252605401909152805191012081806113f68386611deb565b509150915080600381111561140d5761140d6133c7565b15611456576040517fe73552b60000000000000000000000000000000000000000000000000000000081526001600160a01b038816600482015260248101879052604401610202565b6040517fffffffffffffffffffffffffffffffffffffffff000000000000000000000000606084901b1660208201528690603401604051602081830303815290604052805190602001201493505050509392505050565b600080806114fd7fcee78b4094da86011096000000000000000000000000000000000000000000007fffffffff000000000000000000000000000000000000000000000000000000008616611e38565b9050600061150a82611a67565b9050805160141415801561151e5750805115155b1561155757806040517f42bfe79f0000000000000000000000000000000000000000000000000000000081526004016102029190612d6f565b611560816133f6565b60601c95600195509350505050565b60007fffffffff0000000000000000000000000000000000000000000000000000000082167f30dc52780000000000000000000000000000000000000000000000000000000014806115c557506115c582611ebc565b806107d357506107d382611f12565b6001600160a01b038416611614576040517f24ecef4d00000000000000000000000000000000000000000000000000000000815260040160405180910390fd5b6116216000858584611f62565b6000838152600360205260409020546001600160a01b031615611673576040517f34c7b51100000000000000000000000000000000000000000000000000000000815260048101849052602401610202565b6002600081546116829061338f565b909155506001600160a01b03841660009081526004602052604090206116a89084611fde565b5060008381526003602052604080822080547fffffffffffffffffffffffff0000000000000000000000000000000000000000166001600160a01b03881690811790915590518592907fb333c813a7426a7a11e2b190cad52c44119421594b47f6f32ace6d8c7207b2bf9061172290339088908890613446565b60405180910390a46117376000858584611fea565b6000808585846040516020016117509493929190613479565b6040516020818303038152906040529050610a5985848361206f565b6000818152600360205260409020546001600160a01b031661138a576040517fae8f9a3600000000000000000000000000000000000000000000000000000000815260048101829052602401610202565b60006117c882610973565b6001600160a01b0316836001600160a01b031614806109da575060008281526005602052604090206109da908461219d565b606060006109da836121bf565b836001600160a01b0316856001600160a01b031603611852576040517f5d67d6c100000000000000000000000000000000000000000000000000000000815260040160405180910390fd5b600061185d84610973565b9050856001600160a01b0316816001600160a01b0316146118c4576040517f5b271ea20000000000000000000000000000000000000000000000000000000081526001600160a01b0380831660048301526024820186905287166044820152606401610202565b6001600160a01b038516611904576040517f24ecef4d00000000000000000000000000000000000000000000000000000000815260040160405180910390fd5b61191086868685611f62565b61191984610973565b9050611925868561221a565b6001600160a01b03861660009081526004602052604090206119479085612272565b506001600160a01b038516600090815260046020526040902061196a9085611fde565b506000848152600360205260409081902080547fffffffffffffffffffffffff0000000000000000000000000000000000000000166001600160a01b0388811691821790925591518692918916907fb333c813a7426a7a11e2b190cad52c44119421594b47f6f32ace6d8c7207b2bf906119e990339089908990613446565b60405180910390a46119fd86868685611fea565b600086868685604051602001611a169493929190613479565b60408051601f198184030181529190529050611a5c6001600160a01b0388167fb23eae7e6d1564b295b4c3e3be402d9a2f0776c57bdf365903496f6fa481ab0083611c66565b610cff86858361206f565b6000818152600160205260409020805460609190611a84906134ab565b80601f0160208091040260200160405190810160405280929190818152602001828054611ab0906134ab565b8015611afd5780601f10611ad257610100808354040283529160200191611afd565b820191906000526020600020905b815481529060010190602001808311611ae057829003601f168201915b50505050509050919050565b60006107d3825490565b33611b266000546001600160a01b031690565b6001600160a01b031614610bfe576040517fbf1169c5000000000000000000000000000000000000000000000000000000008152336004820152602401610202565b6000546001600160a01b0382811691161461138a57600080546040516001600160a01b03808516939216917f8be0079c531659141344cd1fd0a4f28419497f9722a3daafe3b4186f6b6457e091a3600080546001600160a01b0383167fffffffffffffffffffffffff000000000000000000000000000000000000000090911617905550565b7f8ea0db76a9218319a16b2627c940152b860818f29648e72b840184ff1fa4b01c8201611c47576040517f53bc112200000000000000000000000000000000000000000000000000000000815260040160405180910390fd5b610d52828261227e565b60006109da836001600160a01b0384166123a4565b611c996001600160a01b0384167f6bb56a14000000000000000000000000000000000000000000000000000000006123f3565b1561105c576040517f6bb56a140000000000000000000000000000000000000000000000000000000081526001600160a01b03841690636bb56a1490611ce590859085906004016134f8565b6000604051808303816000875af1158015611d04573d6000803e3d6000fd5b505050506040513d6000823e601f3d908101601f19168201604052611d2c9190810190613511565b50505050565b6000838152600560205260408120611d4a90876124c3565b905080611d95576040517f4aa31a8c0000000000000000000000000000000000000000000000000000000081526001600160a01b038716600482015260248101859052604401610202565b83856001600160a01b0316876001600160a01b03167f3ee932cea40ebbbfd8577d47156cc17cce8683802c57bbd1fb8c131c6f07af0a8686604051611ddb92919061357f565b60405180910390a4505050505050565b60008060008351604103611e255760208401516040850151606086015160001a611e17888285856124d8565b955095509550505050611e31565b50508151600091506002905b9250925092565b604080517fffffffffffffffffffff00000000000000000000000000000000000000000000841660208201526000602a82018190527fffffffffffffffffffffffffffffffffffffffff0000000000000000000000008416602c83015291829101604051602081830303815290604052905080611eb49061359a565b949350505050565b60007fffffffff0000000000000000000000000000000000000000000000000000000082167fa918fa6b0000000000000000000000000000000000000000000000000000000014806107d357506107d3826125a7565b600080611f3e7f01ffc9a7000000000000000000000000000000000000000000000000000000006114ad565b5090506001600160a01b038116611f585750600092915050565b6109da81846123f3565b6001600160a01b03841615801590611f89575060008281526009602052604090205460ff16155b15611fd2576040517f906fb8a70000000000000000000000000000000000000000000000000000000081526001600160a01b038516600482015260248101839052604401610202565b611d2c8484848461263e565b60006109da83836123a4565b6001600160a01b0384161561205757600082815260096020908152604080832080547fffffffffffffffffffffffffffffffffffffffffffffffffffffffffffffff00169055600a9091529020546120439060016135dc565b6000838152600a6020526040902055611d2c565b6000828152600a60205260409020600190555b611d2c565b6120a26001600160a01b0384167f6bb56a14000000000000000000000000000000000000000000000000000000006123f3565b1561210e576040517f6bb56a140000000000000000000000000000000000000000000000000000000081526001600160a01b03841690636bb56a1490611ce5907f0b084a55ebf70fd3c06fd755269dac2212c4d3f0f4d09079780bfa50c1b2984d9085906004016134f8565b8161105c576001600160a01b0383163b15612160576040517f4349776d0000000000000000000000000000000000000000000000000000000081526001600160a01b0384166004820152602401610202565b6040517f031731370000000000000000000000000000000000000000000000000000000081526001600160a01b0384166004820152602401610202565b6001600160a01b038116600090815260018301602052604081205415156109da565b606081600001805480602002602001604051908101604052809291908181526020018280548015611afd57602002820191906000526020600020905b8154815260200190600101908083116121fb5750505050509050919050565b60008181526005602052604081209061223282611b09565b90506000805b8281101561096b5761224b846000612704565b915061226a828787600060405180602001604052806000815250611d32565b600101612238565b60006109da8383612710565b7f2145e1d6d074577dc71ef54c3807742b41b053a9352ae6b491331509acb9750f82016122d7576040517f85c169bd00000000000000000000000000000000000000000000000000000000815260040160405180910390fd5b7fd0f59754f88971fe6bc5a6618cc9d5f1e859c58d16b22d1c7b2d3e2b246cd8aa8201612330576040517f76755b3800000000000000000000000000000000000000000000000000000000815260040160405180910390fd5b60008281526001602052604090206123488282613635565b50817fece574603820d07bc9b91f2a932baadf4628aabcb8afba49776529c14a6104b26101008351111561238957612384836000610100612803565b61238b565b825b6040516123989190612d6f565b60405180910390a25050565b60008181526001830160205260408120546123eb575081546001818101845560008481526020808220909301849055845484825282860190935260409020919091556107d3565b5060006107d3565b6040517fffffffff0000000000000000000000000000000000000000000000000000000082166024820152600090819060440160408051601f19818403018152919052602080820180517bffffffffffffffffffffffffffffffffffffffffffffffffffffffff167f01ffc9a700000000000000000000000000000000000000000000000000000000178152825192935060009283928392909183918a617530fa92503d915060005190508280156124ac575060208210155b80156124b85750600081115b979650505050505050565b60006109da836001600160a01b038416612710565b600080807f7fffffffffffffffffffffffffffffff5d576e7357a4501ddfe92f46681b20a0841115612513575060009150600390508261259d565b604080516000808252602082018084528a905260ff891692820192909252606081018790526080810186905260019060a0016020604051602081039080840390855afa158015612567573d6000803e3d6000fd5b5050604051601f1901519150506001600160a01b0381166125935750600092506001915082905061259d565b9250600091508190505b9450945094915050565b60007fffffffff0000000000000000000000000000000000000000000000000000000082167f629aa6940000000000000000000000000000000000000000000000000000000014806107d357507f01ffc9a7000000000000000000000000000000000000000000000000000000007fffffffff000000000000000000000000000000000000000000000000000000008316146107d3565b6001600160a01b03841661267857600061265760025490565b60008181526007602090815260408083208790558683526008909152902055505b6001600160a01b03831661206a576000600161269360025490565b61269d9190613731565b600084815260086020526040902054909150818110156126df576000828152600760209081526040808320548484528184208190558352600890915290208190555b5060009081526007602090815260408083208390558483526008909152812055611d2c565b60006109da838361295f565b600081815260018301602052604081205480156127f9576000612734600183613731565b855490915060009061274890600190613731565b90508082146127ad576000866000018281548110612768576127686132a0565b906000526020600020015490508087600001848154811061278b5761278b6132a0565b6000918252602080832090910192909255918252600188019052604090208390555b85548690806127be576127be613744565b6001900381819060005260206000200160009055905585600101600086815260200190815260200160002060009055600193505050506107d3565b60009150506107d3565b60608161281181601f6135dc565b1015612879576040517f08c379a000000000000000000000000000000000000000000000000000000000815260206004820152600e60248201527f736c6963655f6f766572666c6f770000000000000000000000000000000000006044820152606401610202565b61288382846135dc565b845110156128ed576040517f08c379a000000000000000000000000000000000000000000000000000000000815260206004820152601160248201527f736c6963655f6f75744f66426f756e64730000000000000000000000000000006044820152606401610202565b60608215801561290c5760405191506000825260208201604052612956565b6040519150601f8416801560200281840101858101878315602002848b0101015b8183101561294557805183526020928301920161292d565b5050858452601f01601f1916604052505b50949350505050565b6000826000018281548110612976576129766132a0565b9060005260206000200154905092915050565b60208152816020820152818360408301376000818301604090810191909152601f909201601f19160101919050565b6000602082840312156129ca57600080fd5b81357fffffffff00000000000000000000000000000000000000000000000000000000811681146109da57600080fd5b7f4e487b7100000000000000000000000000000000000000000000000000000000600052604160045260246000fd5b604051601f8201601f1916810167ffffffffffffffff81118282101715612a5257612a526129fa565b604052919050565b600067ffffffffffffffff821115612a7457612a746129fa565b50601f01601f191660200190565b600082601f830112612a9357600080fd5b8135612aa6612aa182612a5a565b612a29565b818152846020838601011115612abb57600080fd5b816020850160208301376000918101602001919091529392505050565b600067ffffffffffffffff821115612af257612af26129fa565b5060051b60200190565b600082601f830112612b0d57600080fd5b81356020612b1d612aa183612ad8565b82815260059290921b84018101918181019086841115612b3c57600080fd5b8286015b84811015612b575780358352918301918301612b40565b509695505050505050565b80358015158114612b7257600080fd5b919050565b600080600080600060a08688031215612b8f57600080fd5b8535945060208601359350604086013567ffffffffffffffff80821115612bb557600080fd5b612bc189838a01612a82565b94506060880135915080821115612bd757600080fd5b50612be488828901612afc565b925050612bf360808701612b62565b90509295509295909350565b600060208284031215612c1157600080fd5b5035919050565b80356001600160a01b0381168114612b7257600080fd5b60008060408385031215612c4257600080fd5b612c4b83612c18565b946020939093013593505050565b6020808252825182820181905260009190848201906040850190845b81811015612c9a5783516001600160a01b031683529284019291840191600101612c75565b50909695505050505050565b600080600080600060a08688031215612cbe57600080fd5b612cc786612c18565b9450612cd560208701612c18565b935060408601359250612cea60608701612b62565b9150608086013567ffffffffffffffff811115612d0657600080fd5b612d1288828901612a82565b9150509295509295909350565b60005b83811015612d3a578181015183820152602001612d22565b50506000910152565b60008151808452612d5b816020860160208601612d1f565b601f01601f19169290920160200192915050565b6020815260006109da6020830184612d43565b60008060408385031215612d9557600080fd5b82359150602083013567ffffffffffffffff811115612db357600080fd5b612dbf85828601612a82565b9150509250929050565b600060208284031215612ddb57600080fd5b6109da82612c18565b600082601f830112612df557600080fd5b81356020612e05612aa183612ad8565b82815260059290921b84018101918181019086841115612e2457600080fd5b8286015b84811015612b5757612e3981612c18565b8352918301918301612e28565b600082601f830112612e5757600080fd5b81356020612e67612aa183612ad8565b82815260059290921b84018101918181019086841115612e8657600080fd5b8286015b84811015612b5757612e9b81612b62565b8352918301918301612e8a565b600082601f830112612eb957600080fd5b81356020612ec9612aa183612ad8565b82815260059290921b84018101918181019086841115612ee857600080fd5b8286015b84811015612b5757803567ffffffffffffffff811115612f0c5760008081fd5b612f1a8986838b0101612a82565b845250918301918301612eec565b600080600080600060a08688031215612f4057600080fd5b853567ffffffffffffffff80821115612f5857600080fd5b612f6489838a01612de4565b96506020880135915080821115612f7a57600080fd5b612f8689838a01612de4565b95506040880135915080821115612f9c57600080fd5b612fa889838a01612afc565b94506060880135915080821115612fbe57600080fd5b612fca89838a01612e46565b93506080880135915080821115612fe057600080fd5b50612d1288828901612ea8565b60008060006060848603121561300257600080fd5b61300b84612c18565b925060208401359150604084013567ffffffffffffffff81111561302e57600080fd5b61303a86828701612a82565b9150509250925092565b6000806040838503121561305757600080fd5b823567ffffffffffffffff8082111561306f57600080fd5b61307b86838701612afc565b9350602085013591508082111561309157600080fd5b50612dbf85828601612ea8565b6020808252825182820181905260009190848201906040850190845b81811015612c9a578351835292840192918401916001016130ba565b6000806000606084860312156130eb57600080fd5b833567ffffffffffffffff81111561310257600080fd5b61310e86828701612afc565b9660208601359650604090950135949350505050565b6000806000806080858703121561313a57600080fd5b61314385612c18565b93506020850135925061315860408601612b62565b9150606085013567ffffffffffffffff81111561317457600080fd5b61318087828801612a82565b91505092959194509250565b60006020828403121561319e57600080fd5b813567ffffffffffffffff8111156131b557600080fd5b611eb484828501612afc565b6000602080830181845280855180835260408601915060408160051b870101925083870160005b82811015613234577fffffffffffffffffffffffffffffffffffffffffffffffffffffffffffffffc0888603018452613222858351612d43565b945092850192908501906001016131e8565b5092979650505050505050565b8385823760609290921b7fffffffffffffffffffffffffffffffffffffffff00000000000000000000000016919092019081526014810191909152603401919050565b60008251613296818460208701612d1f565b9190910192915050565b7f4e487b7100000000000000000000000000000000000000000000000000000000600052603260045260246000fd5b6001600160a01b038516815283602082015282151560408201526080606082015260006132ff6080830184612d43565b9695505050505050565b7f4e487b7100000000000000000000000000000000000000000000000000000000600052601260045260246000fd5b60008261334757613347613309565b500690565b7f4e487b7100000000000000000000000000000000000000000000000000000000600052601160045260246000fd5b60008261338a5761338a613309565b500490565b60007fffffffffffffffffffffffffffffffffffffffffffffffffffffffffffffffff82036133c0576133c061334c565b5060010190565b7f4e487b7100000000000000000000000000000000000000000000000000000000600052602160045260246000fd5b6000815160208301517fffffffffffffffffffffffffffffffffffffffff0000000000000000000000008082169350601483101561343e5780818460140360031b1b83161693505b505050919050565b6001600160a01b038416815282151560208201526060604082015260006134706060830184612d43565b95945050505050565b60006001600160a01b038087168352808616602084015250836040830152608060608301526132ff6080830184612d43565b600181811c908216806134bf57607f821691505b602082108103611333577f4e487b7100000000000000000000000000000000000000000000000000000000600052602260045260246000fd5b828152604060208201526000611eb46040830184612d43565b60006020828403121561352357600080fd5b815167ffffffffffffffff81111561353a57600080fd5b8201601f8101841361354b57600080fd5b8051613559612aa182612a5a565b81815285602083850101111561356e57600080fd5b613470826020830160208601612d1f565b8215158152604060208201526000611eb46040830184612d43565b80516020808301519190811015611333577fffffffffffffffffffffffffffffffffffffffffffffffffffffffffffffffff60209190910360031b1b16919050565b808201808211156107d3576107d361334c565b601f82111561105c57600081815260208120601f850160051c810160208610156136165750805b601f850160051c820191505b8181101561096b57828155600101613622565b815167ffffffffffffffff81111561364f5761364f6129fa565b6136638161365d84546134ab565b846135ef565b602080601f8311600181146136b657600084156136805750858301515b7fffffffffffffffffffffffffffffffffffffffffffffffffffffffffffffffff600386901b1c1916600185901b17855561096b565b600085815260208120601f198616915b828110156136e5578886015182559484019460019091019084016136c6565b508582101561372157878501517fffffffffffffffffffffffffffffffffffffffffffffffffffffffffffffffff600388901b60f8161c191681555b5050505050600190811b01905550565b818103818111156107d3576107d361334c565b7f4e487b7100000000000000000000000000000000000000000000000000000000600052603160045260246000fdfea2646970667358221220e6675d08077ba02c5c8554a16e7c5baf9e6f2cb12f568c007713f4c8daff74d164736f6c63430008140033ece574603820d07bc9b91f2a932baadf4628aabcb8afba49776529c14a6104b2",
  "linkReferences": {},
  "deployedLinkReferences": {}
}