{
  "_format": "hh-sol-artifact-1",
  "contractName": "PhygitalAsset",
  "sourceName": "contracts/PhygitalAsset.sol",
  "abi": [
    {
      "inputs": [
        {
          "internalType": "bytes32",
          "name": "merkleRootOfCollection_",
          "type": "bytes32"
        },
        {
          "internalType": "bytes",
          "name": "collectionJSONURL_",
          "type": "bytes"
        },
        {
          "internalType": "string",
          "name": "name_",
          "type": "string"
        },
        {
          "internalType": "string",
          "name": "symbol_",
          "type": "string"
        },
        {
          "internalType": "bytes",
          "name": "metadataJSONURL_",
          "type": "bytes"
        },
        {
          "internalType": "bytes",
          "name": "metadataBaseURI_",
          "type": "bytes"
        },
        {
          "internalType": "address",
          "name": "collectionOwner_",
          "type": "address"
        }
      ],
      "stateMutability": "nonpayable",
      "type": "constructor"
    },
    {
      "inputs": [],
      "name": "ERC725Y_DataKeysValuesEmptyArray",
      "type": "error"
    },
    {
      "inputs": [],
      "name": "ERC725Y_DataKeysValuesLengthMismatch",
      "type": "error"
    },
    {
      "inputs": [],
      "name": "ERC725Y_MsgValueDisallowed",
      "type": "error"
    },
    {
      "inputs": [
        {
          "internalType": "bytes",
          "name": "storedData",
          "type": "bytes"
        }
      ],
      "name": "InvalidExtensionAddress",
      "type": "error"
    },
    {
      "inputs": [
        {
          "internalType": "bytes",
          "name": "data",
          "type": "bytes"
        }
      ],
      "name": "InvalidFunctionSelector",
      "type": "error"
    },
    {
      "inputs": [],
      "name": "LSP4TokenNameNotEditable",
      "type": "error"
    },
    {
      "inputs": [],
      "name": "LSP4TokenSymbolNotEditable",
      "type": "error"
    },
    {
      "inputs": [],
      "name": "LSP8CannotSendToAddressZero",
      "type": "error"
    },
    {
      "inputs": [],
      "name": "LSP8CannotSendToSelf",
      "type": "error"
    },
    {
      "inputs": [],
      "name": "LSP8CannotUseAddressZeroAsOperator",
      "type": "error"
    },
    {
      "inputs": [],
      "name": "LSP8InvalidTransferBatch",
      "type": "error"
    },
    {
      "inputs": [
        {
          "internalType": "bytes32",
          "name": "tokenId",
          "type": "bytes32"
        }
      ],
      "name": "LSP8NonExistentTokenId",
      "type": "error"
    },
    {
      "inputs": [
        {
          "internalType": "address",
          "name": "operator",
          "type": "address"
        },
        {
          "internalType": "bytes32",
          "name": "tokenId",
          "type": "bytes32"
        }
      ],
      "name": "LSP8NonExistingOperator",
      "type": "error"
    },
    {
      "inputs": [
        {
          "internalType": "bytes32",
          "name": "tokenId",
          "type": "bytes32"
        },
        {
          "internalType": "address",
          "name": "caller",
          "type": "address"
        }
      ],
      "name": "LSP8NotTokenOperator",
      "type": "error"
    },
    {
      "inputs": [
        {
          "internalType": "address",
          "name": "tokenOwner",
          "type": "address"
        },
        {
          "internalType": "bytes32",
          "name": "tokenId",
          "type": "bytes32"
        },
        {
          "internalType": "address",
          "name": "caller",
          "type": "address"
        }
      ],
      "name": "LSP8NotTokenOwner",
      "type": "error"
    },
    {
      "inputs": [
        {
          "internalType": "address",
          "name": "tokenReceiver",
          "type": "address"
        }
      ],
      "name": "LSP8NotifyTokenReceiverContractMissingLSP1Interface",
      "type": "error"
    },
    {
      "inputs": [
        {
          "internalType": "address",
          "name": "tokenReceiver",
          "type": "address"
        }
      ],
      "name": "LSP8NotifyTokenReceiverIsEOA",
      "type": "error"
    },
    {
      "inputs": [
        {
          "internalType": "address",
          "name": "operator",
          "type": "address"
        },
        {
          "internalType": "bytes32",
          "name": "tokenId",
          "type": "bytes32"
        }
      ],
      "name": "LSP8OperatorAlreadyAuthorized",
      "type": "error"
    },
    {
      "inputs": [],
      "name": "LSP8TokenContractCannotHoldValue",
      "type": "error"
    },
    {
      "inputs": [
        {
          "internalType": "bytes32",
          "name": "tokenId",
          "type": "bytes32"
        }
      ],
      "name": "LSP8TokenIdAlreadyMinted",
      "type": "error"
    },
    {
      "inputs": [],
      "name": "LSP8TokenIdTypeNotEditable",
      "type": "error"
    },
    {
      "inputs": [],
      "name": "LSP8TokenOwnerCannotBeOperator",
      "type": "error"
    },
    {
      "inputs": [
        {
          "internalType": "bytes4",
          "name": "functionSelector",
          "type": "bytes4"
        }
      ],
      "name": "NoExtensionFoundForFunctionSelector",
      "type": "error"
    },
    {
      "inputs": [
        {
          "internalType": "address",
          "name": "callerAddress",
          "type": "address"
        }
      ],
      "name": "OwnableCallerNotTheOwner",
      "type": "error"
    },
    {
      "inputs": [],
      "name": "OwnableCannotSetZeroAddressAsOwner",
      "type": "error"
    },
    {
      "inputs": [
        {
          "internalType": "address",
          "name": "owner",
          "type": "address"
        },
        {
          "internalType": "bytes32",
          "name": "phygitalId",
          "type": "bytes32"
        }
      ],
      "name": "PhygitalAssetHasAlreadyAVerifiedOwnership",
      "type": "error"
    },
    {
      "inputs": [
        {
          "internalType": "address",
          "name": "owner",
          "type": "address"
        },
        {
          "internalType": "bytes32",
          "name": "phygitalId",
          "type": "bytes32"
        }
      ],
      "name": "PhygitalAssetHasAnUnverifiedOwnership",
      "type": "error"
    },
    {
      "inputs": [
        {
          "internalType": "bytes32",
          "name": "phygitalId",
          "type": "bytes32"
        }
      ],
      "name": "PhygitalAssetIsNotPartOfCollection",
      "type": "error"
    },
    {
      "inputs": [
        {
          "internalType": "address",
          "name": "owner",
          "type": "address"
        },
        {
          "internalType": "bytes32",
          "name": "phygitalId",
          "type": "bytes32"
        }
      ],
      "name": "PhygitalAssetOwnershipVerificationFailed",
      "type": "error"
    },
    {
      "anonymous": false,
      "inputs": [
        {
          "indexed": true,
          "internalType": "address",
          "name": "operator",
          "type": "address"
        },
        {
          "indexed": true,
          "internalType": "address",
          "name": "tokenOwner",
          "type": "address"
        },
        {
          "indexed": true,
          "internalType": "bytes32",
          "name": "tokenId",
          "type": "bytes32"
        },
        {
          "indexed": false,
          "internalType": "bytes",
          "name": "operatorNotificationData",
          "type": "bytes"
        }
      ],
      "name": "AuthorizedOperator",
      "type": "event"
    },
    {
      "anonymous": false,
      "inputs": [
        {
          "indexed": true,
          "internalType": "bytes32",
          "name": "dataKey",
          "type": "bytes32"
        },
        {
          "indexed": false,
          "internalType": "bytes",
          "name": "dataValue",
          "type": "bytes"
        }
      ],
      "name": "DataChanged",
      "type": "event"
    },
    {
      "anonymous": false,
      "inputs": [
        {
          "indexed": true,
          "internalType": "address",
          "name": "previousOwner",
          "type": "address"
        },
        {
          "indexed": true,
          "internalType": "address",
          "name": "newOwner",
          "type": "address"
        }
      ],
      "name": "OwnershipTransferred",
      "type": "event"
    },
    {
      "anonymous": false,
      "inputs": [
        {
          "indexed": true,
          "internalType": "address",
          "name": "owner",
          "type": "address"
        },
        {
          "indexed": true,
          "internalType": "bytes32",
          "name": "phygitalId",
          "type": "bytes32"
        }
      ],
      "name": "OwnershipVerified",
      "type": "event"
    },
    {
      "anonymous": false,
      "inputs": [
        {
          "indexed": true,
          "internalType": "address",
          "name": "operator",
          "type": "address"
        },
        {
          "indexed": true,
          "internalType": "address",
          "name": "tokenOwner",
          "type": "address"
        },
        {
          "indexed": true,
          "internalType": "bytes32",
          "name": "tokenId",
          "type": "bytes32"
        },
        {
          "indexed": false,
          "internalType": "bool",
          "name": "notified",
          "type": "bool"
        },
        {
          "indexed": false,
          "internalType": "bytes",
          "name": "operatorNotificationData",
          "type": "bytes"
        }
      ],
      "name": "RevokedOperator",
      "type": "event"
    },
    {
      "anonymous": false,
      "inputs": [
        {
          "indexed": false,
          "internalType": "address",
          "name": "operator",
          "type": "address"
        },
        {
          "indexed": true,
          "internalType": "address",
          "name": "from",
          "type": "address"
        },
        {
          "indexed": true,
          "internalType": "address",
          "name": "to",
          "type": "address"
        },
        {
          "indexed": true,
          "internalType": "bytes32",
          "name": "tokenId",
          "type": "bytes32"
        },
        {
          "indexed": false,
          "internalType": "bool",
          "name": "force",
          "type": "bool"
        },
        {
          "indexed": false,
          "internalType": "bytes",
          "name": "data",
          "type": "bytes"
        }
      ],
      "name": "Transfer",
      "type": "event"
    },
    {
      "stateMutability": "payable",
      "type": "fallback"
    },
    {
      "inputs": [
        {
          "internalType": "address",
          "name": "operator",
          "type": "address"
        },
        {
          "internalType": "bytes32",
          "name": "tokenId",
          "type": "bytes32"
        },
        {
          "internalType": "bytes",
          "name": "operatorNotificationData",
          "type": "bytes"
        }
      ],
      "name": "authorizeOperator",
      "outputs": [],
      "stateMutability": "nonpayable",
      "type": "function"
    },
    {
      "inputs": [
        {
          "internalType": "address",
          "name": "tokenOwner",
          "type": "address"
        }
      ],
      "name": "balanceOf",
      "outputs": [
        {
          "internalType": "uint256",
          "name": "",
          "type": "uint256"
        }
      ],
      "stateMutability": "view",
      "type": "function"
    },
    {
      "inputs": [
        {
          "internalType": "bytes32",
          "name": "dataKey",
          "type": "bytes32"
        }
      ],
      "name": "getData",
      "outputs": [
        {
          "internalType": "bytes",
          "name": "dataValue",
          "type": "bytes"
        }
      ],
      "stateMutability": "view",
      "type": "function"
    },
    {
      "inputs": [
        {
          "internalType": "bytes32[]",
          "name": "dataKeys",
          "type": "bytes32[]"
        }
      ],
      "name": "getDataBatch",
      "outputs": [
        {
          "internalType": "bytes[]",
          "name": "dataValues",
          "type": "bytes[]"
        }
      ],
      "stateMutability": "view",
      "type": "function"
    },
    {
      "inputs": [
        {
          "internalType": "bytes32",
          "name": "tokenId",
          "type": "bytes32"
        }
      ],
      "name": "getOperatorsOf",
      "outputs": [
        {
          "internalType": "address[]",
          "name": "",
          "type": "address[]"
        }
      ],
      "stateMutability": "view",
      "type": "function"
    },
    {
      "inputs": [
        {
          "internalType": "address",
          "name": "operator",
          "type": "address"
        },
        {
          "internalType": "bytes32",
          "name": "tokenId",
          "type": "bytes32"
        }
      ],
      "name": "isOperatorFor",
      "outputs": [
        {
          "internalType": "bool",
          "name": "",
          "type": "bool"
        }
      ],
      "stateMutability": "view",
      "type": "function"
    },
    {
      "inputs": [],
      "name": "merkleRootOfCollection",
      "outputs": [
        {
          "internalType": "bytes32",
          "name": "",
          "type": "bytes32"
        }
      ],
      "stateMutability": "view",
      "type": "function"
    },
    {
      "inputs": [
        {
          "internalType": "address",
          "name": "phygitalAddress",
          "type": "address"
        },
        {
          "internalType": "bytes",
          "name": "phygitalSignature",
          "type": "bytes"
        },
        {
          "internalType": "bytes32[]",
          "name": "merkleProofOfCollection",
          "type": "bytes32[]"
        },
        {
          "internalType": "bool",
          "name": "force",
          "type": "bool"
        }
      ],
      "name": "mint",
      "outputs": [],
      "stateMutability": "nonpayable",
      "type": "function"
    },
    {
      "inputs": [
        {
          "internalType": "bytes32",
          "name": "",
          "type": "bytes32"
        }
      ],
      "name": "nonce",
      "outputs": [
        {
          "internalType": "uint256",
          "name": "",
          "type": "uint256"
        }
      ],
      "stateMutability": "view",
      "type": "function"
    },
    {
      "inputs": [],
      "name": "owner",
      "outputs": [
        {
          "internalType": "address",
          "name": "",
          "type": "address"
        }
      ],
      "stateMutability": "view",
      "type": "function"
    },
    {
      "inputs": [],
      "name": "renounceOwnership",
      "outputs": [],
      "stateMutability": "nonpayable",
      "type": "function"
    },
    {
      "inputs": [
        {
          "internalType": "address",
          "name": "operator",
          "type": "address"
        },
        {
          "internalType": "bytes32",
          "name": "tokenId",
          "type": "bytes32"
        },
        {
          "internalType": "bool",
          "name": "notify",
          "type": "bool"
        },
        {
          "internalType": "bytes",
          "name": "operatorNotificationData",
          "type": "bytes"
        }
      ],
      "name": "revokeOperator",
      "outputs": [],
      "stateMutability": "nonpayable",
      "type": "function"
    },
    {
      "inputs": [
        {
          "internalType": "bytes32",
          "name": "dataKey",
          "type": "bytes32"
        },
        {
          "internalType": "bytes",
          "name": "dataValue",
          "type": "bytes"
        }
      ],
      "name": "setData",
      "outputs": [],
      "stateMutability": "payable",
      "type": "function"
    },
    {
      "inputs": [
        {
          "internalType": "bytes32[]",
          "name": "dataKeys",
          "type": "bytes32[]"
        },
        {
          "internalType": "bytes[]",
          "name": "dataValues",
          "type": "bytes[]"
        }
      ],
      "name": "setDataBatch",
      "outputs": [],
      "stateMutability": "payable",
      "type": "function"
    },
    {
      "inputs": [
        {
          "internalType": "bytes4",
          "name": "interfaceId",
          "type": "bytes4"
        }
      ],
      "name": "supportsInterface",
      "outputs": [
        {
          "internalType": "bool",
          "name": "",
          "type": "bool"
        }
      ],
      "stateMutability": "view",
      "type": "function"
    },
    {
      "inputs": [
        {
          "internalType": "uint256",
          "name": "index",
          "type": "uint256"
        }
      ],
      "name": "tokenAt",
      "outputs": [
        {
          "internalType": "bytes32",
          "name": "",
          "type": "bytes32"
        }
      ],
      "stateMutability": "view",
      "type": "function"
    },
    {
      "inputs": [
        {
          "internalType": "address",
          "name": "tokenOwner",
          "type": "address"
        }
      ],
      "name": "tokenIdsOf",
      "outputs": [
        {
          "internalType": "bytes32[]",
          "name": "",
          "type": "bytes32[]"
        }
      ],
      "stateMutability": "view",
      "type": "function"
    },
    {
      "inputs": [
        {
          "internalType": "bytes32",
          "name": "tokenId",
          "type": "bytes32"
        }
      ],
      "name": "tokenOwnerOf",
      "outputs": [
        {
          "internalType": "address",
          "name": "",
          "type": "address"
        }
      ],
      "stateMutability": "view",
      "type": "function"
    },
    {
      "inputs": [],
      "name": "totalSupply",
      "outputs": [
        {
          "internalType": "uint256",
          "name": "",
          "type": "uint256"
        }
      ],
      "stateMutability": "view",
      "type": "function"
    },
    {
      "inputs": [
        {
          "internalType": "address",
          "name": "from",
          "type": "address"
        },
        {
          "internalType": "address",
          "name": "to",
          "type": "address"
        },
        {
          "internalType": "bytes32",
          "name": "tokenId",
          "type": "bytes32"
        },
        {
          "internalType": "bool",
          "name": "force",
          "type": "bool"
        },
        {
          "internalType": "bytes",
          "name": "data",
          "type": "bytes"
        }
      ],
      "name": "transfer",
      "outputs": [],
      "stateMutability": "nonpayable",
      "type": "function"
    },
    {
      "inputs": [
        {
          "internalType": "address[]",
          "name": "from",
          "type": "address[]"
        },
        {
          "internalType": "address[]",
          "name": "to",
          "type": "address[]"
        },
        {
          "internalType": "bytes32[]",
          "name": "tokenId",
          "type": "bytes32[]"
        },
        {
          "internalType": "bool[]",
          "name": "force",
          "type": "bool[]"
        },
        {
          "internalType": "bytes[]",
          "name": "data",
          "type": "bytes[]"
        }
      ],
      "name": "transferBatch",
      "outputs": [],
      "stateMutability": "nonpayable",
      "type": "function"
    },
    {
      "inputs": [
        {
          "internalType": "address",
          "name": "newOwner",
          "type": "address"
        }
      ],
      "name": "transferOwnership",
      "outputs": [],
      "stateMutability": "nonpayable",
      "type": "function"
    },
    {
      "inputs": [
        {
          "internalType": "bytes32",
          "name": "",
          "type": "bytes32"
        }
      ],
      "name": "verifiedOwnership",
      "outputs": [
        {
          "internalType": "bool",
          "name": "",
          "type": "bool"
        }
      ],
      "stateMutability": "view",
      "type": "function"
    },
    {
      "inputs": [
        {
          "internalType": "address",
          "name": "phygitalAddress",
          "type": "address"
        },
        {
          "internalType": "bytes",
          "name": "phygitalSignature",
          "type": "bytes"
        }
      ],
      "name": "verifyOwnershipAfterTransfer",
      "outputs": [],
      "stateMutability": "nonpayable",
      "type": "function"
    },
    {
      "stateMutability": "payable",
      "type": "receive"
    }
  ],
  "bytecode": "0x60a06040523480156200001157600080fd5b506040516200419138038062004191833981016040819052620000349162000746565b848433600283838380806200005c576040516306b620db60e21b815260040160405180910390fd5b620000678162000357565b506040805180820190915260048152632936598960e21b6020820152620000b0907feafec4d89fa9619884b60000a4d96624a38f7ac2d8d9a604ecf07c12c77e480c90620003c5565b620000dc7fdeba1e292f8ba88238e10ab3c7f88bd4be4fac56cad5194b6ecceaf653468af184620003c5565b620001087f2f0a68ab07768e01943a599e73362a0e17a63a72e94dd2e384d2c1d4db93275683620003c5565b505060408051602081018490526200015492507f715f248956de7ce65e94d9d836bfead479f7e70d69b718d47bfe7b00e05b4fe4910160408051601f198184030181529190526200040d565b505050608088905250620001897f4eff76d745d12fd5e5f7b38e8f396dd0d099124739e69a289ca1faa7ebc5376887620004f2565b620001b57f9afb95cacc9f95858ec44aa8c3b685511002e30ae54415823f406128b85b238e84620004f2565b620002077fe0261fa95db2eb3b5439bd033cda66d56b96f92f243a8228fd87550ed7bdfdb360001b6002604051602001620001f1919062000844565b60408051601f19818403018152919052620004f2565b620002337f1a7628600c3bac7101f53697f48df381ddc36b9015e7d7c9c5633d1252aa284383620004f2565b604051600160801b602082015262000270907f114bd03b3a46d48759680d81ebb2b414fda7d030a7105a851867accf1c2352e790603001620001f1565b604080516f0452f40ece91b521d65a03607aecad0560821b602082015260006030820152620002d49101604051602081830303815290604052620002b4906200086d565b6040516001600160601b0319606085901b166020820152603401620001f1565b6040805169036f42f57aecc15a72ed60b51b60208201526001600160601b0319606084901b16602c8201526200033f91016040516020818303038152906040526200031f906200086d565b6040516324871b3d60e01b602082015260006024820152603401620001f1565b6200034a8162000357565b5050505050505062000a47565b6000546001600160a01b03828116911614620003c257600080546040516001600160a01b03808516939216917f8be0079c531659141344cd1fd0a4f28419497f9722a3daafe3b4186f6b6457e091a3600080546001600160a01b0319166001600160a01b0383161790555b50565b6000828152600160205260409020620003df82826200091e565b50816000805160206200417183398151915282604051620004019190620009ea565b60405180910390a25050565b7f2145e1d6d074577dc71ef54c3807742b41b053a9352ae6b491331509acb9750f82016200044e576040516385c169bd60e01b815260040160405180910390fd5b7fd0f59754f88971fe6bc5a6618cc9d5f1e859c58d16b22d1c7b2d3e2b246cd8aa82016200048f57604051630eceab6760e31b815260040160405180910390fd5b6000828152600160205260409020620004a982826200091e565b50816000805160206200417183398151915261010083511115620004dd57620004d78360006101006200053f565b620004df565b825b604051620004019190620009ea565b5050565b7f8ea0db76a9218319a16b2627c940152b860818f29648e72b840184ff1fa4b01c820162000533576040516329de089160e11b815260040160405180910390fd5b620004ee82826200040d565b6060816200054f81601f62000a1f565b1015620005945760405162461bcd60e51b815260206004820152600e60248201526d736c6963655f6f766572666c6f7760901b60448201526064015b60405180910390fd5b620005a0828462000a1f565b84511015620005e65760405162461bcd60e51b8152602060048201526011602482015270736c6963655f6f75744f66426f756e647360781b60448201526064016200058b565b60608215801562000607576040519150600082526020820160405262000653565b6040519150601f8416801560200281840101858101878315602002848b0101015b818310156200064257805183526020928301920162000628565b5050858452601f01601f1916604052505b50949350505050565b634e487b7160e01b600052604160045260246000fd5b60005b838110156200068f57818101518382015260200162000675565b50506000910152565b600082601f830112620006aa57600080fd5b81516001600160401b0380821115620006c757620006c76200065c565b604051601f8301601f19908116603f01168101908282118183101715620006f257620006f26200065c565b816040528381528660208588010111156200070c57600080fd5b6200071f84602083016020890162000672565b9695505050505050565b80516001600160a01b03811681146200074157600080fd5b919050565b600080600080600080600060e0888a0312156200076257600080fd5b875160208901519097506001600160401b03808211156200078257600080fd5b620007908b838c0162000698565b975060408a0151915080821115620007a757600080fd5b620007b58b838c0162000698565b965060608a0151915080821115620007cc57600080fd5b620007da8b838c0162000698565b955060808a0151915080821115620007f157600080fd5b620007ff8b838c0162000698565b945060a08a01519150808211156200081657600080fd5b50620008258a828b0162000698565b9250506200083660c0890162000729565b905092959891949750929550565b60208101600383106200086757634e487b7160e01b600052602160045260246000fd5b91905290565b805160208083015191908110156200088f576000198160200360031b1b821691505b50919050565b600181811c90821680620008aa57607f821691505b6020821081036200088f57634e487b7160e01b600052602260045260246000fd5b601f8211156200091957600081815260208120601f850160051c81016020861015620008f45750805b601f850160051c820191505b81811015620009155782815560010162000900565b5050505b505050565b81516001600160401b038111156200093a576200093a6200065c565b62000952816200094b845462000895565b84620008cb565b602080601f8311600181146200098a5760008415620009715750858301515b600019600386901b1c1916600185901b17855562000915565b600085815260208120601f198616915b82811015620009bb578886015182559484019460019091019084016200099a565b5085821015620009da5787850151600019600388901b60f8161c191681555b5050505050600190811b01905550565b602081526000825180602084015262000a0b81604085016020870162000672565b601f01601f19169190910160400192915050565b8082018082111562000a4157634e487b7160e01b600052601160045260246000fd5b92915050565b60805161370762000a6a600039600081816102bd015261154601526137076000f3fe60806040526004361061018f5760003560e01c8063715018a6116100d657806392a91a3a1161007f578063db8c966311610059578063db8c966314610586578063dedff9c6146105a6578063f2fde38b146105d35761021c565b806392a91a3a146105195780639790242114610546578063a3b261f2146105595761021c565b806386a10ddd116100b057806386a10ddd146104ae5780638da5cb5b146104ce578063905da30f146104ec5761021c565b8063715018a6146104665780637e87632c1461047b5780637f23690c1461049b5761021c565b806341b3d51311610138578063511b695211610112578063511b6952146103f957806354f6127f1461041957806370a08231146104465761021c565b806341b3d5131461037c57806349a6078d1461039c5780634d55c5a4146103c95761021c565b8063217b227011610169578063217b2270146103025780632a3654a41461033a578063316466131461035a5761021c565b806301ffc9a71461027657806307c79bb2146102ab57806318160ddd146102ed5761021c565b3661021c57346000036101ea576040517fe5099ee30000000000000000000000000000000000000000000000000000000081526004016101e19060208082526004908201526000604082015260600190565b60405180910390fd5b6040517f61f4944200000000000000000000000000000000000000000000000000000000815260040160405180910390fd5b600036606060048210156102605782826040517fe5099ee30000000000000000000000000000000000000000000000000000000081526004016101e1929190612957565b61026a83836105f3565b80519350602001915050f35b34801561028257600080fd5b50610296610291366004612986565b610732565b60405190151581526020015b60405180910390f35b3480156102b757600080fd5b506102df7f000000000000000000000000000000000000000000000000000000000000000081565b6040519081526020016102a2565b3480156102f957600080fd5b506002546102df565b34801561030e57600080fd5b5061032261031d3660046129c8565b610788565b6040516001600160a01b0390911681526020016102a2565b34801561034657600080fd5b506102966103553660046129fd565b6107da565b34801561036657600080fd5b5061037a610375366004612b9f565b6107f6565b005b34801561038857600080fd5b5061037a610397366004612c24565b610962565b3480156103a857600080fd5b506103bc6103b73660046129c8565b610b26565b6040516102a29190612c72565b3480156103d557600080fd5b506102966103e43660046129c8565b60096020526000908152604090205460ff1681565b34801561040557600080fd5b5061037a610414366004612cbf565b610b48565b34801561042557600080fd5b506104396104343660046129c8565b610ba5565b6040516102a29190612d88565b34801561045257600080fd5b506102df610461366004612d9b565b610bb0565b34801561047257600080fd5b5061037a610bd1565b34801561048757600080fd5b5061037a610496366004612efa565b610be5565b61037a6104a9366004612fbf565b610ced565b3480156104ba57600080fd5b5061037a6104c9366004612ff0565b610d3b565b3480156104da57600080fd5b506000546001600160a01b0316610322565b3480156104f857600080fd5b506102df6105073660046129c8565b600a6020526000908152604090205481565b34801561052557600080fd5b506102df6105343660046129c8565b60009081526007602052604090205490565b61037a610554366004613047565b610f3b565b34801561056557600080fd5b50610579610574366004612d9b565b611046565b6040516102a291906130a1565b34801561059257600080fd5b5061037a6105a13660046130d9565b61106a565b3480156105b257600080fd5b506105c66105c1366004613141565b611189565b6040516102a29190613176565b3480156105df57600080fd5b5061037a6105ee366004612d9b565b611234565b606060006106246000357fffffffff0000000000000000000000000000000000000000000000000000000016611288565b5090506001600160a01b03811661068d576040517fbb370b2b0000000000000000000000000000000000000000000000000000000081527fffffffff000000000000000000000000000000000000000000000000000000006000351660048201526024016101e1565b600080826001600160a01b031634878733346040516020016106b294939291906131f6565b60408051601f19818403018152908290526106cc91613239565b60006040518083038185875af1925050503d8060008114610709576040519150601f19603f3d011682016040523d82523d6000602084013e61070e565b606091505b5091509150811561072357925061072c915050565b80518060208301fd5b92915050565b60007fffffffff0000000000000000000000000000000000000000000000000000000082167fae8205e100000000000000000000000000000000000000000000000000000000148061072c575061072c8261134a565b6000818152600360205260408120546001600160a01b03168061072c576040517fae8f9a36000000000000000000000000000000000000000000000000000000008152600481018490526024016101e1565b60006107e5826113af565b6107ef8383611400565b9392505050565b604080516001600160a01b038616602082015233916000910160408051601f1981840301815291815281516020928301206000818152600a90935291205490915015610871576040517f34c7b511000000000000000000000000000000000000000000000000000000008152600481018290526024016101e1565b61087c82828761143d565b6108c4576040517fe73552b60000000000000000000000000000000000000000000000000000000081526001600160a01b0383166004820152602481018290526044016101e1565b6108ce848261153f565b610907576040517f461e0d36000000000000000000000000000000000000000000000000000000008152600481018290526024016101e1565b600081815260096020908152604080832080547fffffffffffffffffffffffffffffffffffffffffffffffffffffffffffffff001660011790558051918201905290815261095a9083908390869061159e565b505050505050565b604080516001600160a01b03841660208201526000910160405160208183030381529060405280519060200120905061099a81610788565b6001600160a01b0316336001600160a01b031614610a06576109bb81610788565b6040517f5b271ea20000000000000000000000000000000000000000000000000000000081526001600160a01b039091166004820152602481018290523360448201526064016101e1565b600081815260096020526040902054339060ff1615610a63576040517f56d5acaf0000000000000000000000000000000000000000000000000000000081526001600160a01b0382166004820152602481018390526044016101e1565b610a6e81838561143d565b610ab6576040517fe73552b60000000000000000000000000000000000000000000000000000000081526001600160a01b0382166004820152602481018390526044016101e1565b60008281526009602052604080822080547fffffffffffffffffffffffffffffffffffffffffffffffffffffffffffffff001660011790555183916001600160a01b038416917f82d5124614b519082e63bcde47b6766198a805058094fdf76658b33cd80cc9bc9190a350505050565b6060610b31826113af565b600082815260056020526040902061072c90611736565b610b523384611400565b610b91576040517f1294d2a9000000000000000000000000000000000000000000000000000000008152600481018490523360248201526044016101e1565b610b9e8585858585611743565b5050505050565b606061072c826119a3565b6001600160a01b038116600090815260046020526040812061072c90611a45565b610bd9611a4f565b610be36000611aa4565b565b8451845181141580610bf8575083518114155b80610c04575082518114155b80610c10575081518114155b15610c47576040517f93a8311900000000000000000000000000000000000000000000000000000000815260040160405180910390fd5b60005b81811015610ce457610cdc878281518110610c6757610c67613255565b6020026020010151878381518110610c8157610c81613255565b6020026020010151878481518110610c9b57610c9b613255565b6020026020010151878581518110610cb557610cb5613255565b6020026020010151878681518110610ccf57610ccf613255565b6020026020010151610b48565b600101610c4a565b50505050505050565b610cf5611a4f565b3415610d2d576040517ff36ba73700000000000000000000000000000000000000000000000000000000815260040160405180910390fd5b610d378282611b2a565b5050565b6000610d4683610788565b90506001600160a01b0381163314610da2576040517f5b271ea20000000000000000000000000000000000000000000000000000000081526001600160a01b0382166004820152602481018490523360448201526064016101e1565b6001600160a01b038416610de2576040517f9577b8b300000000000000000000000000000000000000000000000000000000815260040160405180910390fd5b836001600160a01b0316816001600160a01b031603610e2d576040517f89fdad6200000000000000000000000000000000000000000000000000000000815260040160405180910390fd5b6000838152600560205260408120610e459086611b8d565b905080610e90576040517fa7626b680000000000000000000000000000000000000000000000000000000081526001600160a01b0386166004820152602481018590526044016101e1565b83826001600160a01b0316866001600160a01b03167e52e433f2d4225671bc164dd1cdc9a76044356091f27ad234798bd0cbf0834986604051610ed39190612d88565b60405180910390a460003385600186604051602001610ef59493929190613284565b60408051601f19818403018152919052905061095a6001600160a01b0387167f8a1c15a8799f71b547e08e2bcb2e85257e81b0a07eee2ce6712549eef1f0097083611ba2565b610f43611a4f565b3415610f7b576040517ff36ba73700000000000000000000000000000000000000000000000000000000815260040160405180910390fd5b8051825114610fb6576040517f3bcc897900000000000000000000000000000000000000000000000000000000815260040160405180910390fd5b8151600003610ff1576040517f97da5f9500000000000000000000000000000000000000000000000000000000815260040160405180910390fd5b60005b82518110156110415761103983828151811061101257611012613255565b602002602001015183838151811061102c5761102c613255565b6020026020010151611b2a565b600101610ff4565b505050565b6001600160a01b038116600090815260046020526040902060609061072c90611736565b600061107584610788565b90506001600160a01b03811633146110d1576040517f5b271ea20000000000000000000000000000000000000000000000000000000081526001600160a01b0382166004820152602481018590523360448201526064016101e1565b6001600160a01b038516611111576040517f9577b8b300000000000000000000000000000000000000000000000000000000815260040160405180910390fd5b846001600160a01b0316816001600160a01b03160361115c576040517f89fdad6200000000000000000000000000000000000000000000000000000000815260040160405180910390fd5b6111698582868686611c6e565b8215610b9e5760003385600085604051602001610ef59493929190613284565b6060815167ffffffffffffffff8111156111a5576111a5612a27565b6040519080825280602002602001820160405280156111d857816020015b60608152602001906001900390816111c35790505b50905060005b825181101561122e576112098382815181106111fc576111fc613255565b60200260200101516119a3565b82828151811061121b5761121b613255565b60209081029190910101526001016111de565b50919050565b61123c611a4f565b6001600160a01b03811661127c576040517f1ad8836c00000000000000000000000000000000000000000000000000000000815260040160405180910390fd5b61128581611aa4565b50565b600080806112d87fcee78b4094da86011096000000000000000000000000000000000000000000007fffffffff000000000000000000000000000000000000000000000000000000008616611d27565b905060006112e5826119a3565b905080516014141580156112f95750805115155b1561133257806040517f42bfe79f0000000000000000000000000000000000000000000000000000000081526004016101e19190612d88565b61133b816132be565b60601c95600195509350505050565b60007fffffffff0000000000000000000000000000000000000000000000000000000082167f30dc52780000000000000000000000000000000000000000000000000000000014806113a057506113a082611dab565b8061072c575061072c82611e01565b6000818152600360205260409020546001600160a01b0316611285576040517fae8f9a36000000000000000000000000000000000000000000000000000000008152600481018290526024016101e1565b600061140b82610788565b6001600160a01b0316836001600160a01b031614806107ef575060008281526005602052604090206107ef9084611e51565b6000828152600a60209081526040808320548151606088901b7fffffffffffffffffffffffffffffffffffffffff000000000000000000000000168185015260348082019290925282518082039092018252605401909152805191012081806114a68386611e73565b50915091508060038111156114bd576114bd61330e565b15611506576040517fe73552b60000000000000000000000000000000000000000000000000000000081526001600160a01b0388166004820152602481018790526044016101e1565b604080516001600160a01b0384166020820152879101604051602081830303815290604052805190602001201493505050509392505050565b60006107ef7f00000000000000000000000000000000000000000000000000000000000000008360405160200161157891815260200190565b6040516020818303038152906040528051906020012085611ec09092919063ffffffff16565b6001600160a01b0384166115de576040517f24ecef4d00000000000000000000000000000000000000000000000000000000815260040160405180910390fd5b6115eb6000858584611ed6565b6000838152600360205260409020546001600160a01b03161561163d576040517f34c7b511000000000000000000000000000000000000000000000000000000008152600481018490526024016101e1565b60026000815461164c9061336c565b909155506001600160a01b03841660009081526004602052604090206116729084611f52565b5060008381526003602052604080822080547fffffffffffffffffffffffff0000000000000000000000000000000000000000166001600160a01b03881690811790915590518592907fb333c813a7426a7a11e2b190cad52c44119421594b47f6f32ace6d8c7207b2bf906116ec903390889088906133a4565b60405180910390a46117016000858584611f5e565b60008085858460405160200161171a94939291906133d7565b6040516020818303038152906040529050610b9e858483611fe3565b606060006107ef83612111565b836001600160a01b0316856001600160a01b03160361178e576040517f5d67d6c100000000000000000000000000000000000000000000000000000000815260040160405180910390fd5b600061179984610788565b9050856001600160a01b0316816001600160a01b031614611800576040517f5b271ea20000000000000000000000000000000000000000000000000000000081526001600160a01b03808316600483015260248201869052871660448201526064016101e1565b6001600160a01b038516611840576040517f24ecef4d00000000000000000000000000000000000000000000000000000000815260040160405180910390fd5b61184c86868685611ed6565b61185584610788565b9050611861868561216c565b6001600160a01b038616600090815260046020526040902061188390856121c4565b506001600160a01b03851660009081526004602052604090206118a69085611f52565b506000848152600360205260409081902080547fffffffffffffffffffffffff0000000000000000000000000000000000000000166001600160a01b0388811691821790925591518692918916907fb333c813a7426a7a11e2b190cad52c44119421594b47f6f32ace6d8c7207b2bf90611925903390899089906133a4565b60405180910390a461193986868685611f5e565b60008686868560405160200161195294939291906133d7565b60408051601f1981840301815291905290506119986001600160a01b0388167fb23eae7e6d1564b295b4c3e3be402d9a2f0776c57bdf365903496f6fa481ab0083611ba2565b610ce4868583611fe3565b60008181526001602052604090208054606091906119c090613409565b80601f01602080910402602001604051908101604052809291908181526020018280546119ec90613409565b8015611a395780601f10611a0e57610100808354040283529160200191611a39565b820191906000526020600020905b815481529060010190602001808311611a1c57829003601f168201915b50505050509050919050565b600061072c825490565b33611a626000546001600160a01b031690565b6001600160a01b031614610be3576040517fbf1169c50000000000000000000000000000000000000000000000000000000081523360048201526024016101e1565b6000546001600160a01b0382811691161461128557600080546040516001600160a01b03808516939216917f8be0079c531659141344cd1fd0a4f28419497f9722a3daafe3b4186f6b6457e091a3600080546001600160a01b0383167fffffffffffffffffffffffff000000000000000000000000000000000000000090911617905550565b7f8ea0db76a9218319a16b2627c940152b860818f29648e72b840184ff1fa4b01c8201611b83576040517f53bc112200000000000000000000000000000000000000000000000000000000815260040160405180910390fd5b610d3782826121d0565b60006107ef836001600160a01b0384166122f6565b611bd56001600160a01b0384167f6bb56a1400000000000000000000000000000000000000000000000000000000612345565b15611041576040517f6bb56a140000000000000000000000000000000000000000000000000000000081526001600160a01b03841690636bb56a1490611c219085908590600401613456565b6000604051808303816000875af1158015611c40573d6000803e3d6000fd5b505050506040513d6000823e601f3d908101601f19168201604052611c68919081019061346f565b50505050565b6000838152600560205260408120611c869087612415565b905080611cd1576040517f4aa31a8c0000000000000000000000000000000000000000000000000000000081526001600160a01b0387166004820152602481018590526044016101e1565b83856001600160a01b0316876001600160a01b03167f3ee932cea40ebbbfd8577d47156cc17cce8683802c57bbd1fb8c131c6f07af0a8686604051611d179291906134dd565b60405180910390a4505050505050565b604080517fffffffffffffffffffff00000000000000000000000000000000000000000000841660208201526000602a82018190527fffffffffffffffffffffffffffffffffffffffff0000000000000000000000008416602c83015291829101604051602081830303815290604052905080611da3906134f8565b949350505050565b60007fffffffff0000000000000000000000000000000000000000000000000000000082167fa918fa6b00000000000000000000000000000000000000000000000000000000148061072c575061072c8261242a565b600080611e2d7f01ffc9a700000000000000000000000000000000000000000000000000000000611288565b5090506001600160a01b038116611e475750600092915050565b6107ef8184612345565b6001600160a01b038116600090815260018301602052604081205415156107ef565b60008060008351604103611ead5760208401516040850151606086015160001a611e9f888285856124c1565b955095509550505050611eb9565b50508151600091506002905b9250925092565b600082611ecd8584612590565b14949350505050565b6001600160a01b03841615801590611efd575060008281526009602052604090205460ff16155b15611f46576040517f906fb8a70000000000000000000000000000000000000000000000000000000081526001600160a01b0385166004820152602481018390526044016101e1565b611c68848484846125dd565b60006107ef83836122f6565b6001600160a01b03841615611fcb57600082815260096020908152604080832080547fffffffffffffffffffffffffffffffffffffffffffffffffffffffffffffff00169055600a909152902054611fb790600161353a565b6000838152600a6020526040902055611c68565b6000828152600a60205260409020600190555b611c68565b6120166001600160a01b0384167f6bb56a1400000000000000000000000000000000000000000000000000000000612345565b15612082576040517f6bb56a140000000000000000000000000000000000000000000000000000000081526001600160a01b03841690636bb56a1490611c21907f0b084a55ebf70fd3c06fd755269dac2212c4d3f0f4d09079780bfa50c1b2984d908590600401613456565b81611041576001600160a01b0383163b156120d4576040517f4349776d0000000000000000000000000000000000000000000000000000000081526001600160a01b03841660048201526024016101e1565b6040517f031731370000000000000000000000000000000000000000000000000000000081526001600160a01b03841660048201526024016101e1565b606081600001805480602002602001604051908101604052809291908181526020018280548015611a3957602002820191906000526020600020905b81548152602001906001019080831161214d5750505050509050919050565b60008181526005602052604081209061218482611a45565b90506000805b8281101561095a5761219d8460006126a3565b91506121bc828787600060405180602001604052806000815250611c6e565b60010161218a565b60006107ef83836126af565b7f2145e1d6d074577dc71ef54c3807742b41b053a9352ae6b491331509acb9750f8201612229576040517f85c169bd00000000000000000000000000000000000000000000000000000000815260040160405180910390fd5b7fd0f59754f88971fe6bc5a6618cc9d5f1e859c58d16b22d1c7b2d3e2b246cd8aa8201612282576040517f76755b3800000000000000000000000000000000000000000000000000000000815260040160405180910390fd5b600082815260016020526040902061229a8282613593565b50817fece574603820d07bc9b91f2a932baadf4628aabcb8afba49776529c14a6104b2610100835111156122db576122d68360006101006127a2565b6122dd565b825b6040516122ea9190612d88565b60405180910390a25050565b600081815260018301602052604081205461233d5750815460018181018455600084815260208082209093018490558454848252828601909352604090209190915561072c565b50600061072c565b6040517fffffffff0000000000000000000000000000000000000000000000000000000082166024820152600090819060440160408051601f19818403018152919052602080820180517bffffffffffffffffffffffffffffffffffffffffffffffffffffffff167f01ffc9a700000000000000000000000000000000000000000000000000000000178152825192935060009283928392909183918a617530fa92503d915060005190508280156123fe575060208210155b801561240a5750600081115b979650505050505050565b60006107ef836001600160a01b0384166126af565b60007fffffffff0000000000000000000000000000000000000000000000000000000082167f629aa69400000000000000000000000000000000000000000000000000000000148061072c57507f01ffc9a7000000000000000000000000000000000000000000000000000000007fffffffff0000000000000000000000000000000000000000000000000000000083161461072c565b600080807f7fffffffffffffffffffffffffffffff5d576e7357a4501ddfe92f46681b20a08411156124fc5750600091506003905082612586565b604080516000808252602082018084528a905260ff891692820192909252606081018790526080810186905260019060a0016020604051602081039080840390855afa158015612550573d6000803e3d6000fd5b5050604051601f1901519150506001600160a01b03811661257c57506000925060019150829050612586565b9250600091508190505b9450945094915050565b600081815b84518110156125d5576125c1828683815181106125b4576125b4613255565b60200260200101516128fe565b9150806125cd8161336c565b915050612595565b509392505050565b6001600160a01b0384166126175760006125f660025490565b60008181526007602090815260408083208790558683526008909152902055505b6001600160a01b038316611fde576000600161263260025490565b61263c919061368f565b6000848152600860205260409020549091508181101561267e576000828152600760209081526040808320548484528184208190558352600890915290208190555b5060009081526007602090815260408083208390558483526008909152812055611c68565b60006107ef838361292d565b600081815260018301602052604081205480156127985760006126d360018361368f565b85549091506000906126e79060019061368f565b905080821461274c57600086600001828154811061270757612707613255565b906000526020600020015490508087600001848154811061272a5761272a613255565b6000918252602080832090910192909255918252600188019052604090208390555b855486908061275d5761275d6136a2565b60019003818190600052602060002001600090559055856001016000868152602001908152602001600020600090556001935050505061072c565b600091505061072c565b6060816127b081601f61353a565b1015612818576040517f08c379a000000000000000000000000000000000000000000000000000000000815260206004820152600e60248201527f736c6963655f6f766572666c6f7700000000000000000000000000000000000060448201526064016101e1565b612822828461353a565b8451101561288c576040517f08c379a000000000000000000000000000000000000000000000000000000000815260206004820152601160248201527f736c6963655f6f75744f66426f756e647300000000000000000000000000000060448201526064016101e1565b6060821580156128ab57604051915060008252602082016040526128f5565b6040519150601f8416801560200281840101858101878315602002848b0101015b818310156128e45780518352602092830192016128cc565b5050858452601f01601f1916604052505b50949350505050565b600081831061291a5760008281526020849052604090206107ef565b60008381526020839052604090206107ef565b600082600001828154811061294457612944613255565b9060005260206000200154905092915050565b60208152816020820152818360408301376000818301604090810191909152601f909201601f19160101919050565b60006020828403121561299857600080fd5b81357fffffffff00000000000000000000000000000000000000000000000000000000811681146107ef57600080fd5b6000602082840312156129da57600080fd5b5035919050565b80356001600160a01b03811681146129f857600080fd5b919050565b60008060408385031215612a1057600080fd5b612a19836129e1565b946020939093013593505050565b7f4e487b7100000000000000000000000000000000000000000000000000000000600052604160045260246000fd5b604051601f8201601f1916810167ffffffffffffffff81118282101715612a7f57612a7f612a27565b604052919050565b600067ffffffffffffffff821115612aa157612aa1612a27565b50601f01601f191660200190565b600082601f830112612ac057600080fd5b8135612ad3612ace82612a87565b612a56565b818152846020838601011115612ae857600080fd5b816020850160208301376000918101602001919091529392505050565b600067ffffffffffffffff821115612b1f57612b1f612a27565b5060051b60200190565b600082601f830112612b3a57600080fd5b81356020612b4a612ace83612b05565b82815260059290921b84018101918181019086841115612b6957600080fd5b8286015b84811015612b845780358352918301918301612b6d565b509695505050505050565b803580151581146129f857600080fd5b60008060008060808587031215612bb557600080fd5b612bbe856129e1565b9350602085013567ffffffffffffffff80821115612bdb57600080fd5b612be788838901612aaf565b94506040870135915080821115612bfd57600080fd5b50612c0a87828801612b29565b925050612c1960608601612b8f565b905092959194509250565b60008060408385031215612c3757600080fd5b612c40836129e1565b9150602083013567ffffffffffffffff811115612c5c57600080fd5b612c6885828601612aaf565b9150509250929050565b6020808252825182820181905260009190848201906040850190845b81811015612cb35783516001600160a01b031683529284019291840191600101612c8e565b50909695505050505050565b600080600080600060a08688031215612cd757600080fd5b612ce0866129e1565b9450612cee602087016129e1565b935060408601359250612d0360608701612b8f565b9150608086013567ffffffffffffffff811115612d1f57600080fd5b612d2b88828901612aaf565b9150509295509295909350565b60005b83811015612d53578181015183820152602001612d3b565b50506000910152565b60008151808452612d74816020860160208601612d38565b601f01601f19169290920160200192915050565b6020815260006107ef6020830184612d5c565b600060208284031215612dad57600080fd5b6107ef826129e1565b600082601f830112612dc757600080fd5b81356020612dd7612ace83612b05565b82815260059290921b84018101918181019086841115612df657600080fd5b8286015b84811015612b8457612e0b816129e1565b8352918301918301612dfa565b600082601f830112612e2957600080fd5b81356020612e39612ace83612b05565b82815260059290921b84018101918181019086841115612e5857600080fd5b8286015b84811015612b8457612e6d81612b8f565b8352918301918301612e5c565b600082601f830112612e8b57600080fd5b81356020612e9b612ace83612b05565b82815260059290921b84018101918181019086841115612eba57600080fd5b8286015b84811015612b8457803567ffffffffffffffff811115612ede5760008081fd5b612eec8986838b0101612aaf565b845250918301918301612ebe565b600080600080600060a08688031215612f1257600080fd5b853567ffffffffffffffff80821115612f2a57600080fd5b612f3689838a01612db6565b96506020880135915080821115612f4c57600080fd5b612f5889838a01612db6565b95506040880135915080821115612f6e57600080fd5b612f7a89838a01612b29565b94506060880135915080821115612f9057600080fd5b612f9c89838a01612e18565b93506080880135915080821115612fb257600080fd5b50612d2b88828901612e7a565b60008060408385031215612fd257600080fd5b82359150602083013567ffffffffffffffff811115612c5c57600080fd5b60008060006060848603121561300557600080fd5b61300e846129e1565b925060208401359150604084013567ffffffffffffffff81111561303157600080fd5b61303d86828701612aaf565b9150509250925092565b6000806040838503121561305a57600080fd5b823567ffffffffffffffff8082111561307257600080fd5b61307e86838701612b29565b9350602085013591508082111561309457600080fd5b50612c6885828601612e7a565b6020808252825182820181905260009190848201906040850190845b81811015612cb3578351835292840192918401916001016130bd565b600080600080608085870312156130ef57600080fd5b6130f8856129e1565b93506020850135925061310d60408601612b8f565b9150606085013567ffffffffffffffff81111561312957600080fd5b61313587828801612aaf565b91505092959194509250565b60006020828403121561315357600080fd5b813567ffffffffffffffff81111561316a57600080fd5b611da384828501612b29565b6000602080830181845280855180835260408601915060408160051b870101925083870160005b828110156131e9577fffffffffffffffffffffffffffffffffffffffffffffffffffffffffffffffc08886030184526131d7858351612d5c565b9450928501929085019060010161319d565b5092979650505050505050565b8385823760609290921b7fffffffffffffffffffffffffffffffffffffffff00000000000000000000000016919092019081526014810191909152603401919050565b6000825161324b818460208701612d38565b9190910192915050565b7f4e487b7100000000000000000000000000000000000000000000000000000000600052603260045260246000fd5b6001600160a01b038516815283602082015282151560408201526080606082015260006132b46080830184612d5c565b9695505050505050565b6000815160208301517fffffffffffffffffffffffffffffffffffffffff000000000000000000000000808216935060148310156133065780818460140360031b1b83161693505b505050919050565b7f4e487b7100000000000000000000000000000000000000000000000000000000600052602160045260246000fd5b7f4e487b7100000000000000000000000000000000000000000000000000000000600052601160045260246000fd5b60007fffffffffffffffffffffffffffffffffffffffffffffffffffffffffffffffff820361339d5761339d61333d565b5060010190565b6001600160a01b038416815282151560208201526060604082015260006133ce6060830184612d5c565b95945050505050565b60006001600160a01b038087168352808616602084015250836040830152608060608301526132b46080830184612d5c565b600181811c9082168061341d57607f821691505b60208210810361122e577f4e487b7100000000000000000000000000000000000000000000000000000000600052602260045260246000fd5b828152604060208201526000611da36040830184612d5c565b60006020828403121561348157600080fd5b815167ffffffffffffffff81111561349857600080fd5b8201601f810184136134a957600080fd5b80516134b7612ace82612a87565b8181528560208385010111156134cc57600080fd5b6133ce826020830160208601612d38565b8215158152604060208201526000611da36040830184612d5c565b8051602080830151919081101561122e577fffffffffffffffffffffffffffffffffffffffffffffffffffffffffffffffff60209190910360031b1b16919050565b8082018082111561072c5761072c61333d565b601f82111561104157600081815260208120601f850160051c810160208610156135745750805b601f850160051c820191505b8181101561095a57828155600101613580565b815167ffffffffffffffff8111156135ad576135ad612a27565b6135c1816135bb8454613409565b8461354d565b602080601f83116001811461361457600084156135de5750858301515b7fffffffffffffffffffffffffffffffffffffffffffffffffffffffffffffffff600386901b1c1916600185901b17855561095a565b600085815260208120601f198616915b8281101561364357888601518255948401946001909101908401613624565b508582101561367f57878501517fffffffffffffffffffffffffffffffffffffffffffffffffffffffffffffffff600388901b60f8161c191681555b5050505050600190811b01905550565b8181038181111561072c5761072c61333d565b7f4e487b7100000000000000000000000000000000000000000000000000000000600052603160045260246000fdfea26469706673582212200f02874a592c34fb330d97dcd798aa06ee3627ba31c5eb7ee3d6bf5da4dbc3e664736f6c63430008140033ece574603820d07bc9b91f2a932baadf4628aabcb8afba49776529c14a6104b2",
  "linkReferences": {},
  "deployedLinkReferences": {}
}